{
	"SmartContract.sol": {
		"TilapiaSupplyChain": {
			"abi": [
				{
					"inputs": [],
					"stateMutability": "nonpayable",
					"type": "constructor"
				},
				{
					"inputs": [
						{
							"internalType": "address",
							"name": "_distributor",
							"type": "address"
						}
					],
					"name": "addDistributor",
					"outputs": [],
					"stateMutability": "nonpayable",
					"type": "function"
				},
				{
					"inputs": [
						{
							"internalType": "address",
							"name": "_farmer",
							"type": "address"
						}
					],
					"name": "addFarmer",
					"outputs": [],
					"stateMutability": "nonpayable",
					"type": "function"
				},
				{
					"inputs": [
						{
							"internalType": "uint256",
							"name": "_productId",
							"type": "uint256"
						}
					],
					"name": "confirmDelivery",
					"outputs": [],
					"stateMutability": "nonpayable",
					"type": "function"
				},
				{
					"inputs": [
						{
							"internalType": "address",
							"name": "",
							"type": "address"
						}
					],
					"name": "distributors",
					"outputs": [
						{
							"internalType": "bool",
							"name": "",
							"type": "bool"
						}
					],
					"stateMutability": "view",
					"type": "function"
				},
				{
					"inputs": [
						{
							"internalType": "address",
							"name": "",
							"type": "address"
						}
					],
					"name": "farmers",
					"outputs": [
						{
							"internalType": "bool",
							"name": "",
							"type": "bool"
						}
					],
					"stateMutability": "view",
					"type": "function"
				},
				{
					"inputs": [
						{
							"internalType": "uint256",
							"name": "_productId",
							"type": "uint256"
						}
					],
					"name": "getHistory",
					"outputs": [
						{
							"components": [
								{
									"internalType": "address",
									"name": "from",
									"type": "address"
								},
								{
									"internalType": "address",
									"name": "to",
									"type": "address"
								},
								{
									"internalType": "uint256",
									"name": "timestamp",
									"type": "uint256"
								},
								{
									"internalType": "enum TilapiaSupplyChain.Status",
									"name": "status",
									"type": "uint8"
								}
							],
							"internalType": "struct TilapiaSupplyChain.History[]",
							"name": "",
							"type": "tuple[]"
						}
					],
					"stateMutability": "view",
					"type": "function"
				},
				{
					"inputs": [
						{
							"internalType": "uint256",
							"name": "_productId",
							"type": "uint256"
						}
					],
					"name": "getProduct",
					"outputs": [
						{
							"internalType": "uint256",
							"name": "",
							"type": "uint256"
						},
						{
							"internalType": "string",
							"name": "",
							"type": "string"
						},
						{
							"internalType": "uint256",
							"name": "",
							"type": "uint256"
						},
						{
							"internalType": "string",
							"name": "",
							"type": "string"
						},
						{
							"internalType": "uint256",
							"name": "",
							"type": "uint256"
						},
						{
							"internalType": "address",
							"name": "",
							"type": "address"
						},
						{
							"internalType": "enum TilapiaSupplyChain.Status",
							"name": "",
							"type": "uint8"
						}
					],
					"stateMutability": "view",
					"type": "function"
				},
				{
					"inputs": [],
					"name": "owner",
					"outputs": [
						{
							"internalType": "address",
							"name": "",
							"type": "address"
						}
					],
					"stateMutability": "view",
					"type": "function"
				},
				{
					"inputs": [
						{
							"internalType": "uint256",
							"name": "",
							"type": "uint256"
						},
						{
							"internalType": "uint256",
							"name": "",
							"type": "uint256"
						}
					],
					"name": "productHistory",
					"outputs": [
						{
							"internalType": "address",
							"name": "from",
							"type": "address"
						},
						{
							"internalType": "address",
							"name": "to",
							"type": "address"
						},
						{
							"internalType": "uint256",
							"name": "timestamp",
							"type": "uint256"
						},
						{
							"internalType": "enum TilapiaSupplyChain.Status",
							"name": "status",
							"type": "uint8"
						}
					],
					"stateMutability": "view",
					"type": "function"
				},
				{
					"inputs": [
						{
							"internalType": "uint256",
							"name": "",
							"type": "uint256"
						}
					],
					"name": "products",
					"outputs": [
						{
							"internalType": "uint256",
							"name": "productId",
							"type": "uint256"
						},
						{
							"internalType": "string",
							"name": "name",
							"type": "string"
						},
						{
							"internalType": "uint256",
							"name": "quantity",
							"type": "uint256"
						},
						{
							"internalType": "string",
							"name": "origin",
							"type": "string"
						},
						{
							"internalType": "uint256",
							"name": "dateCreated",
							"type": "uint256"
						},
						{
							"internalType": "address",
							"name": "currentOwner",
							"type": "address"
						},
						{
							"internalType": "enum TilapiaSupplyChain.Status",
							"name": "status",
							"type": "uint8"
						}
					],
					"stateMutability": "view",
					"type": "function"
				},
				{
					"inputs": [
						{
							"internalType": "uint256",
							"name": "_productId",
							"type": "uint256"
						},
						{
							"internalType": "string",
							"name": "_name",
							"type": "string"
						},
						{
							"internalType": "uint256",
							"name": "_quantity",
							"type": "uint256"
						},
						{
							"internalType": "string",
							"name": "_origin",
							"type": "string"
						}
					],
					"name": "registerProduct",
					"outputs": [],
					"stateMutability": "nonpayable",
					"type": "function"
				},
				{
					"inputs": [
						{
							"internalType": "uint256",
							"name": "_productId",
							"type": "uint256"
						},
						{
							"internalType": "address",
							"name": "_distributor",
							"type": "address"
						}
					],
					"name": "transferToDistributor",
					"outputs": [],
					"stateMutability": "nonpayable",
					"type": "function"
				}
			],
			"devdoc": {
				"kind": "dev",
				"methods": {},
				"version": 1
			},
			"evm": {
				"assembly": "    /* \"SmartContract.sol\":60:4395  contract TilapiaSupplyChain {... */\n  mstore(0x40, 0x80)\n    /* \"SmartContract.sol\":1085:1136  constructor() {... */\n  callvalue\n  dup1\n  iszero\n  tag_1\n  jumpi\n  revert(0x00, 0x00)\ntag_1:\n  pop\n    /* \"SmartContract.sol\":1118:1128  msg.sender */\n  caller\n    /* \"SmartContract.sol\":1110:1115  owner */\n  0x02\n  0x00\n    /* \"SmartContract.sol\":1110:1128  owner = msg.sender */\n  0x0100\n  exp\n  dup2\n  sload\n  dup2\n  0xffffffffffffffffffffffffffffffffffffffff\n  mul\n  not\n  and\n  swap1\n  dup4\n  0xffffffffffffffffffffffffffffffffffffffff\n  and\n  mul\n  or\n  swap1\n  sstore\n  pop\n    /* \"SmartContract.sol\":60:4395  contract TilapiaSupplyChain {... */\n  dataSize(sub_0)\n  dup1\n  dataOffset(sub_0)\n  0x00\n  codecopy\n  0x00\n  return\nstop\n\nsub_0: assembly {\n        /* \"SmartContract.sol\":60:4395  contract TilapiaSupplyChain {... */\n      mstore(0x40, 0x80)\n      callvalue\n      dup1\n      iszero\n      tag_1\n      jumpi\n      revert(0x00, 0x00)\n    tag_1:\n      pop\n      jumpi(tag_2, lt(calldatasize, 0x04))\n      shr(0xe0, calldataload(0x00))\n      dup1\n      0xa9ec9d07\n      gt\n      tag_15\n      jumpi\n      dup1\n      0xa9ec9d07\n      eq\n      tag_9\n      jumpi\n      dup1\n      0xb9db15b4\n      eq\n      tag_10\n      jumpi\n      dup1\n      0xc8691b2a\n      eq\n      tag_11\n      jumpi\n      dup1\n      0xcc642784\n      eq\n      tag_12\n      jumpi\n      dup1\n      0xe229f2cb\n      eq\n      tag_13\n      jumpi\n      dup1\n      0xfd84cb97\n      eq\n      tag_14\n      jumpi\n      jump(tag_2)\n    tag_15:\n      dup1\n      0x3a7d2376\n      eq\n      tag_3\n      jumpi\n      dup1\n      0x401b2168\n      eq\n      tag_4\n      jumpi\n      dup1\n      0x7250e224\n      eq\n      tag_5\n      jumpi\n      dup1\n      0x7acc0b20\n      eq\n      tag_6\n      jumpi\n      dup1\n      0x80c3f96d\n      eq\n      tag_7\n      jumpi\n      dup1\n      0x8da5cb5b\n      eq\n      tag_8\n      jumpi\n    tag_2:\n      revert(0x00, 0x00)\n        /* \"SmartContract.sol\":544:595  mapping(uint256 => History[]) public productHistory */\n    tag_3:\n      tag_16\n      0x04\n      dup1\n      calldatasize\n      sub\n      dup2\n      add\n      swap1\n      tag_17\n      swap2\n      swap1\n      tag_18\n      jump\t// in\n    tag_17:\n      tag_19\n      jump\t// in\n    tag_16:\n      mload(0x40)\n      tag_20\n      swap5\n      swap4\n      swap3\n      swap2\n      swap1\n      tag_21\n      jump\t// in\n    tag_20:\n      mload(0x40)\n      dup1\n      swap2\n      sub\n      swap1\n      return\n        /* \"SmartContract.sol\":633:672  mapping(address => bool) public farmers */\n    tag_4:\n      tag_22\n      0x04\n      dup1\n      calldatasize\n      sub\n      dup2\n      add\n      swap1\n      tag_23\n      swap2\n      swap1\n      tag_24\n      jump\t// in\n    tag_23:\n      tag_25\n      jump\t// in\n    tag_22:\n      mload(0x40)\n      tag_26\n      swap2\n      swap1\n      tag_27\n      jump\t// in\n    tag_26:\n      mload(0x40)\n      dup1\n      swap2\n      sub\n      swap1\n      return\n        /* \"SmartContract.sol\":1338:1453  function addDistributor(address _distributor) public onlyOwner {... */\n    tag_5:\n      tag_28\n      0x04\n      dup1\n      calldatasize\n      sub\n      dup2\n      add\n      swap1\n      tag_29\n      swap2\n      swap1\n      tag_24\n      jump\t// in\n    tag_29:\n      tag_30\n      jump\t// in\n    tag_28:\n      stop\n        /* \"SmartContract.sol\":494:537  mapping(uint256 => Product) public products */\n    tag_6:\n      tag_31\n      0x04\n      dup1\n      calldatasize\n      sub\n      dup2\n      add\n      swap1\n      tag_32\n      swap2\n      swap1\n      tag_33\n      jump\t// in\n    tag_32:\n      tag_34\n      jump\t// in\n    tag_31:\n      mload(0x40)\n      tag_35\n      swap8\n      swap7\n      swap6\n      swap5\n      swap4\n      swap3\n      swap2\n      swap1\n      tag_36\n      jump\t// in\n    tag_35:\n      mload(0x40)\n      dup1\n      swap2\n      sub\n      swap1\n      return\n        /* \"SmartContract.sol\":1235:1330  function addFarmer(address _farmer) public onlyOwner {... */\n    tag_7:\n      tag_37\n      0x04\n      dup1\n      calldatasize\n      sub\n      dup2\n      add\n      swap1\n      tag_38\n      swap2\n      swap1\n      tag_24\n      jump\t// in\n    tag_38:\n      tag_39\n      jump\t// in\n    tag_37:\n      stop\n        /* \"SmartContract.sol\":604:624  address public owner */\n    tag_8:\n      tag_40\n      tag_41\n      jump\t// in\n    tag_40:\n      mload(0x40)\n      tag_42\n      swap2\n      swap1\n      tag_43\n      jump\t// in\n    tag_42:\n      mload(0x40)\n      dup1\n      swap2\n      sub\n      swap1\n      return\n        /* \"SmartContract.sol\":1558:2323  function registerProduct(... */\n    tag_9:\n      tag_44\n      0x04\n      dup1\n      calldatasize\n      sub\n      dup2\n      add\n      swap1\n      tag_45\n      swap2\n      swap1\n      tag_46\n      jump\t// in\n    tag_45:\n      tag_47\n      jump\t// in\n    tag_44:\n      stop\n        /* \"SmartContract.sol\":3688:4221  function getProduct(uint256 _productId)... */\n    tag_10:\n      tag_48\n      0x04\n      dup1\n      calldatasize\n      sub\n      dup2\n      add\n      swap1\n      tag_49\n      swap2\n      swap1\n      tag_33\n      jump\t// in\n    tag_49:\n      tag_50\n      jump\t// in\n    tag_48:\n      mload(0x40)\n      tag_51\n      swap8\n      swap7\n      swap6\n      swap5\n      swap4\n      swap3\n      swap2\n      swap1\n      tag_36\n      jump\t// in\n    tag_51:\n      mload(0x40)\n      dup1\n      swap2\n      sub\n      swap1\n      return\n        /* \"SmartContract.sol\":4229:4392  function getHistory(uint256 _productId)... */\n    tag_11:\n      tag_52\n      0x04\n      dup1\n      calldatasize\n      sub\n      dup2\n      add\n      swap1\n      tag_53\n      swap2\n      swap1\n      tag_33\n      jump\t// in\n    tag_53:\n      tag_54\n      jump\t// in\n    tag_52:\n      mload(0x40)\n      tag_55\n      swap2\n      swap1\n      tag_56\n      jump\t// in\n    tag_55:\n      mload(0x40)\n      dup1\n      swap2\n      sub\n      swap1\n      return\n        /* \"SmartContract.sol\":679:723  mapping(address => bool) public distributors */\n    tag_12:\n      tag_57\n      0x04\n      dup1\n      calldatasize\n      sub\n      dup2\n      add\n      swap1\n      tag_58\n      swap2\n      swap1\n      tag_24\n      jump\t// in\n    tag_58:\n      tag_59\n      jump\t// in\n    tag_57:\n      mload(0x40)\n      tag_60\n      swap2\n      swap1\n      tag_27\n      jump\t// in\n    tag_60:\n      mload(0x40)\n      dup1\n      swap2\n      sub\n      swap1\n      return\n        /* \"SmartContract.sol\":2426:3125  function transferToDistributor(... */\n    tag_13:\n      tag_61\n      0x04\n      dup1\n      calldatasize\n      sub\n      dup2\n      add\n      swap1\n      tag_62\n      swap2\n      swap1\n      tag_63\n      jump\t// in\n    tag_62:\n      tag_64\n      jump\t// in\n    tag_61:\n      stop\n        /* \"SmartContract.sol\":3133:3589  function confirmDelivery(uint256 _productId) public onlyDistributor {... */\n    tag_14:\n      tag_65\n      0x04\n      dup1\n      calldatasize\n      sub\n      dup2\n      add\n      swap1\n      tag_66\n      swap2\n      swap1\n      tag_33\n      jump\t// in\n    tag_66:\n      tag_67\n      jump\t// in\n    tag_65:\n      stop\n        /* \"SmartContract.sol\":544:595  mapping(uint256 => History[]) public productHistory */\n    tag_19:\n      mstore(0x20, 0x01)\n      dup2\n      0x00\n      mstore\n      keccak256(0x00, 0x40)\n      dup2\n      dup2\n      sload\n      dup2\n      lt\n      tag_68\n      jumpi\n      0x00\n      dup1\n      revert\n    tag_68:\n      swap1\n      0x00\n      mstore\n      keccak256(0x00, 0x20)\n      swap1\n      0x04\n      mul\n      add\n      0x00\n      swap2\n      pop\n      swap2\n      pop\n      pop\n      dup1\n      0x00\n      add\n      0x00\n      swap1\n      sload\n      swap1\n      0x0100\n      exp\n      swap1\n      div\n      0xffffffffffffffffffffffffffffffffffffffff\n      and\n      swap1\n      dup1\n      0x01\n      add\n      0x00\n      swap1\n      sload\n      swap1\n      0x0100\n      exp\n      swap1\n      div\n      0xffffffffffffffffffffffffffffffffffffffff\n      and\n      swap1\n      dup1\n      0x02\n      add\n      sload\n      swap1\n      dup1\n      0x03\n      add\n      0x00\n      swap1\n      sload\n      swap1\n      0x0100\n      exp\n      swap1\n      div\n      0xff\n      and\n      swap1\n      pop\n      dup5\n      jump\t// out\n        /* \"SmartContract.sol\":633:672  mapping(address => bool) public farmers */\n    tag_25:\n      mstore(0x20, 0x03)\n      dup1\n      0x00\n      mstore\n      keccak256(0x00, 0x40)\n      0x00\n      swap2\n      pop\n      sload\n      swap1\n      0x0100\n      exp\n      swap1\n      div\n      0xff\n      and\n      dup2\n      jump\t// out\n        /* \"SmartContract.sol\":1338:1453  function addDistributor(address _distributor) public onlyOwner {... */\n    tag_30:\n        /* \"SmartContract.sol\":786:791  owner */\n      0x02\n      0x00\n      swap1\n      sload\n      swap1\n      0x0100\n      exp\n      swap1\n      div\n      0xffffffffffffffffffffffffffffffffffffffff\n      and\n        /* \"SmartContract.sol\":772:791  msg.sender == owner */\n      0xffffffffffffffffffffffffffffffffffffffff\n      and\n        /* \"SmartContract.sol\":772:782  msg.sender */\n      caller\n        /* \"SmartContract.sol\":772:791  msg.sender == owner */\n      0xffffffffffffffffffffffffffffffffffffffff\n      and\n      eq\n        /* \"SmartContract.sol\":764:814  require(msg.sender == owner, \"Not contract owner\") */\n      tag_71\n      jumpi\n      mload(0x40)\n      0x08c379a000000000000000000000000000000000000000000000000000000000\n      dup2\n      mstore\n      0x04\n      add\n      tag_72\n      swap1\n      tag_73\n      jump\t// in\n    tag_72:\n      mload(0x40)\n      dup1\n      swap2\n      sub\n      swap1\n      revert\n    tag_71:\n        /* \"SmartContract.sol\":1441:1445  true */\n      0x01\n        /* \"SmartContract.sol\":1412:1424  distributors */\n      0x04\n        /* \"SmartContract.sol\":1412:1438  distributors[_distributor] */\n      0x00\n        /* \"SmartContract.sol\":1425:1437  _distributor */\n      dup4\n        /* \"SmartContract.sol\":1412:1438  distributors[_distributor] */\n      0xffffffffffffffffffffffffffffffffffffffff\n      and\n      0xffffffffffffffffffffffffffffffffffffffff\n      and\n      dup2\n      mstore\n      0x20\n      add\n      swap1\n      dup2\n      mstore\n      0x20\n      add\n      0x00\n      keccak256\n      0x00\n        /* \"SmartContract.sol\":1412:1445  distributors[_distributor] = true */\n      0x0100\n      exp\n      dup2\n      sload\n      dup2\n      0xff\n      mul\n      not\n      and\n      swap1\n      dup4\n      iszero\n      iszero\n      mul\n      or\n      swap1\n      sstore\n      pop\n        /* \"SmartContract.sol\":1338:1453  function addDistributor(address _distributor) public onlyOwner {... */\n      pop\n      jump\t// out\n        /* \"SmartContract.sol\":494:537  mapping(uint256 => Product) public products */\n    tag_34:\n      mstore(0x20, 0x00)\n      dup1\n      0x00\n      mstore\n      keccak256(0x00, 0x40)\n      0x00\n      swap2\n      pop\n      swap1\n      pop\n      dup1\n      0x00\n      add\n      sload\n      swap1\n      dup1\n      0x01\n      add\n      dup1\n      sload\n      tag_75\n      swap1\n      tag_76\n      jump\t// in\n    tag_75:\n      dup1\n      0x1f\n      add\n      0x20\n      dup1\n      swap2\n      div\n      mul\n      0x20\n      add\n      mload(0x40)\n      swap1\n      dup2\n      add\n      0x40\n      mstore\n      dup1\n      swap3\n      swap2\n      swap1\n      dup2\n      dup2\n      mstore\n      0x20\n      add\n      dup3\n      dup1\n      sload\n      tag_77\n      swap1\n      tag_76\n      jump\t// in\n    tag_77:\n      dup1\n      iszero\n      tag_78\n      jumpi\n      dup1\n      0x1f\n      lt\n      tag_79\n      jumpi\n      0x0100\n      dup1\n      dup4\n      sload\n      div\n      mul\n      dup4\n      mstore\n      swap2\n      0x20\n      add\n      swap2\n      jump(tag_78)\n    tag_79:\n      dup3\n      add\n      swap2\n      swap1\n      0x00\n      mstore\n      keccak256(0x00, 0x20)\n      swap1\n    tag_80:\n      dup2\n      sload\n      dup2\n      mstore\n      swap1\n      0x01\n      add\n      swap1\n      0x20\n      add\n      dup1\n      dup4\n      gt\n      tag_80\n      jumpi\n      dup3\n      swap1\n      sub\n      0x1f\n      and\n      dup3\n      add\n      swap2\n    tag_78:\n      pop\n      pop\n      pop\n      pop\n      pop\n      swap1\n      dup1\n      0x02\n      add\n      sload\n      swap1\n      dup1\n      0x03\n      add\n      dup1\n      sload\n      tag_81\n      swap1\n      tag_76\n      jump\t// in\n    tag_81:\n      dup1\n      0x1f\n      add\n      0x20\n      dup1\n      swap2\n      div\n      mul\n      0x20\n      add\n      mload(0x40)\n      swap1\n      dup2\n      add\n      0x40\n      mstore\n      dup1\n      swap3\n      swap2\n      swap1\n      dup2\n      dup2\n      mstore\n      0x20\n      add\n      dup3\n      dup1\n      sload\n      tag_82\n      swap1\n      tag_76\n      jump\t// in\n    tag_82:\n      dup1\n      iszero\n      tag_83\n      jumpi\n      dup1\n      0x1f\n      lt\n      tag_84\n      jumpi\n      0x0100\n      dup1\n      dup4\n      sload\n      div\n      mul\n      dup4\n      mstore\n      swap2\n      0x20\n      add\n      swap2\n      jump(tag_83)\n    tag_84:\n      dup3\n      add\n      swap2\n      swap1\n      0x00\n      mstore\n      keccak256(0x00, 0x20)\n      swap1\n    tag_85:\n      dup2\n      sload\n      dup2\n      mstore\n      swap1\n      0x01\n      add\n      swap1\n      0x20\n      add\n      dup1\n      dup4\n      gt\n      tag_85\n      jumpi\n      dup3\n      swap1\n      sub\n      0x1f\n      and\n      dup3\n      add\n      swap2\n    tag_83:\n      pop\n      pop\n      pop\n      pop\n      pop\n      swap1\n      dup1\n      0x04\n      add\n      sload\n      swap1\n      dup1\n      0x05\n      add\n      0x00\n      swap1\n      sload\n      swap1\n      0x0100\n      exp\n      swap1\n      div\n      0xffffffffffffffffffffffffffffffffffffffff\n      and\n      swap1\n      dup1\n      0x05\n      add\n      0x14\n      swap1\n      sload\n      swap1\n      0x0100\n      exp\n      swap1\n      div\n      0xff\n      and\n      swap1\n      pop\n      dup8\n      jump\t// out\n        /* \"SmartContract.sol\":1235:1330  function addFarmer(address _farmer) public onlyOwner {... */\n    tag_39:\n        /* \"SmartContract.sol\":786:791  owner */\n      0x02\n      0x00\n      swap1\n      sload\n      swap1\n      0x0100\n      exp\n      swap1\n      div\n      0xffffffffffffffffffffffffffffffffffffffff\n      and\n        /* \"SmartContract.sol\":772:791  msg.sender == owner */\n      0xffffffffffffffffffffffffffffffffffffffff\n      and\n        /* \"SmartContract.sol\":772:782  msg.sender */\n      caller\n        /* \"SmartContract.sol\":772:791  msg.sender == owner */\n      0xffffffffffffffffffffffffffffffffffffffff\n      and\n      eq\n        /* \"SmartContract.sol\":764:814  require(msg.sender == owner, \"Not contract owner\") */\n      tag_87\n      jumpi\n      mload(0x40)\n      0x08c379a000000000000000000000000000000000000000000000000000000000\n      dup2\n      mstore\n      0x04\n      add\n      tag_88\n      swap1\n      tag_73\n      jump\t// in\n    tag_88:\n      mload(0x40)\n      dup1\n      swap2\n      sub\n      swap1\n      revert\n    tag_87:\n        /* \"SmartContract.sol\":1318:1322  true */\n      0x01\n        /* \"SmartContract.sol\":1299:1306  farmers */\n      0x03\n        /* \"SmartContract.sol\":1299:1315  farmers[_farmer] */\n      0x00\n        /* \"SmartContract.sol\":1307:1314  _farmer */\n      dup4\n        /* \"SmartContract.sol\":1299:1315  farmers[_farmer] */\n      0xffffffffffffffffffffffffffffffffffffffff\n      and\n      0xffffffffffffffffffffffffffffffffffffffff\n      and\n      dup2\n      mstore\n      0x20\n      add\n      swap1\n      dup2\n      mstore\n      0x20\n      add\n      0x00\n      keccak256\n      0x00\n        /* \"SmartContract.sol\":1299:1322  farmers[_farmer] = true */\n      0x0100\n      exp\n      dup2\n      sload\n      dup2\n      0xff\n      mul\n      not\n      and\n      swap1\n      dup4\n      iszero\n      iszero\n      mul\n      or\n      swap1\n      sstore\n      pop\n        /* \"SmartContract.sol\":1235:1330  function addFarmer(address _farmer) public onlyOwner {... */\n      pop\n      jump\t// out\n        /* \"SmartContract.sol\":604:624  address public owner */\n    tag_41:\n      0x02\n      0x00\n      swap1\n      sload\n      swap1\n      0x0100\n      exp\n      swap1\n      div\n      0xffffffffffffffffffffffffffffffffffffffff\n      and\n      dup2\n      jump\t// out\n        /* \"SmartContract.sol\":1558:2323  function registerProduct(... */\n    tag_47:\n        /* \"SmartContract.sol\":883:890  farmers */\n      0x03\n        /* \"SmartContract.sol\":883:902  farmers[msg.sender] */\n      0x00\n        /* \"SmartContract.sol\":891:901  msg.sender */\n      caller\n        /* \"SmartContract.sol\":883:902  farmers[msg.sender] */\n      0xffffffffffffffffffffffffffffffffffffffff\n      and\n      0xffffffffffffffffffffffffffffffffffffffff\n      and\n      dup2\n      mstore\n      0x20\n      add\n      swap1\n      dup2\n      mstore\n      0x20\n      add\n      0x00\n      keccak256\n      0x00\n      swap1\n      sload\n      swap1\n      0x0100\n      exp\n      swap1\n      div\n      0xff\n      and\n        /* \"SmartContract.sol\":875:928  require(farmers[msg.sender], \"Not authorized farmer\") */\n      tag_91\n      jumpi\n      mload(0x40)\n      0x08c379a000000000000000000000000000000000000000000000000000000000\n      dup2\n      mstore\n      0x04\n      add\n      tag_92\n      swap1\n      tag_93\n      jump\t// in\n    tag_92:\n      mload(0x40)\n      dup1\n      swap2\n      sub\n      swap1\n      revert\n    tag_91:\n        /* \"SmartContract.sol\":1782:1783  0 */\n      0x00\n        /* \"SmartContract.sol\":1748:1756  products */\n      0x00\n        /* \"SmartContract.sol\":1748:1768  products[_productId] */\n      0x00\n        /* \"SmartContract.sol\":1757:1767  _productId */\n      dup7\n        /* \"SmartContract.sol\":1748:1768  products[_productId] */\n      dup2\n      mstore\n      0x20\n      add\n      swap1\n      dup2\n      mstore\n      0x20\n      add\n      0x00\n      keccak256\n        /* \"SmartContract.sol\":1748:1778  products[_productId].productId */\n      0x00\n      add\n      sload\n        /* \"SmartContract.sol\":1748:1783  products[_productId].productId == 0 */\n      eq\n        /* \"SmartContract.sol\":1740:1810  require(products[_productId].productId == 0, \"Product already exists\") */\n      tag_95\n      jumpi\n      mload(0x40)\n      0x08c379a000000000000000000000000000000000000000000000000000000000\n      dup2\n      mstore\n      0x04\n      add\n      tag_96\n      swap1\n      tag_97\n      jump\t// in\n    tag_96:\n      mload(0x40)\n      dup1\n      swap2\n      sub\n      swap1\n      revert\n    tag_95:\n        /* \"SmartContract.sol\":1846:2111  Product({... */\n      mload(0x40)\n      dup1\n      0xe0\n      add\n      0x40\n      mstore\n      dup1\n        /* \"SmartContract.sol\":1880:1890  _productId */\n      dup6\n        /* \"SmartContract.sol\":1846:2111  Product({... */\n      dup2\n      mstore\n      0x20\n      add\n        /* \"SmartContract.sol\":1911:1916  _name */\n      dup5\n        /* \"SmartContract.sol\":1846:2111  Product({... */\n      dup2\n      mstore\n      0x20\n      add\n        /* \"SmartContract.sol\":1941:1950  _quantity */\n      dup4\n        /* \"SmartContract.sol\":1846:2111  Product({... */\n      dup2\n      mstore\n      0x20\n      add\n        /* \"SmartContract.sol\":1973:1980  _origin */\n      dup3\n        /* \"SmartContract.sol\":1846:2111  Product({... */\n      dup2\n      mstore\n      0x20\n      add\n        /* \"SmartContract.sol\":2008:2023  block.timestamp */\n      timestamp\n        /* \"SmartContract.sol\":1846:2111  Product({... */\n      dup2\n      mstore\n      0x20\n      add\n        /* \"SmartContract.sol\":2052:2062  msg.sender */\n      caller\n        /* \"SmartContract.sol\":1846:2111  Product({... */\n      0xffffffffffffffffffffffffffffffffffffffff\n      and\n      dup2\n      mstore\n      0x20\n      add\n        /* \"SmartContract.sol\":2085:2099  Status.Created */\n      0x00\n        /* \"SmartContract.sol\":1846:2111  Product({... */\n      0x02\n      dup2\n      gt\n      iszero\n      tag_98\n      jumpi\n      tag_99\n      tag_100\n      jump\t// in\n    tag_99:\n    tag_98:\n      dup2\n      mstore\n      pop\n        /* \"SmartContract.sol\":1823:1831  products */\n      0x00\n        /* \"SmartContract.sol\":1823:1843  products[_productId] */\n      0x00\n        /* \"SmartContract.sol\":1832:1842  _productId */\n      dup7\n        /* \"SmartContract.sol\":1823:1843  products[_productId] */\n      dup2\n      mstore\n      0x20\n      add\n      swap1\n      dup2\n      mstore\n      0x20\n      add\n      0x00\n      keccak256\n        /* \"SmartContract.sol\":1823:2111  products[_productId] = Product({... */\n      0x00\n      dup3\n      add\n      mload\n      dup2\n      0x00\n      add\n      sstore\n      0x20\n      dup3\n      add\n      mload\n      dup2\n      0x01\n      add\n      swap1\n      dup2\n      tag_101\n      swap2\n      swap1\n      tag_102\n      jump\t// in\n    tag_101:\n      pop\n      0x40\n      dup3\n      add\n      mload\n      dup2\n      0x02\n      add\n      sstore\n      0x60\n      dup3\n      add\n      mload\n      dup2\n      0x03\n      add\n      swap1\n      dup2\n      tag_103\n      swap2\n      swap1\n      tag_102\n      jump\t// in\n    tag_103:\n      pop\n      0x80\n      dup3\n      add\n      mload\n      dup2\n      0x04\n      add\n      sstore\n      0xa0\n      dup3\n      add\n      mload\n      dup2\n      0x05\n      add\n      exp(0x0100, 0x00)\n      dup2\n      sload\n      dup2\n      0xffffffffffffffffffffffffffffffffffffffff\n      mul\n      not\n      and\n      swap1\n      dup4\n      0xffffffffffffffffffffffffffffffffffffffff\n      and\n      mul\n      or\n      swap1\n      sstore\n      pop\n      0xc0\n      dup3\n      add\n      mload\n      dup2\n      0x05\n      add\n      exp(0x0100, 0x14)\n      dup2\n      sload\n      dup2\n      0xff\n      mul\n      not\n      and\n      swap1\n      dup4\n      0x02\n      dup2\n      gt\n      iszero\n      tag_104\n      jumpi\n      tag_105\n      tag_100\n      jump\t// in\n    tag_105:\n    tag_104:\n      mul\n      or\n      swap1\n      sstore\n      pop\n      swap1\n      pop\n      pop\n        /* \"SmartContract.sol\":2124:2138  productHistory */\n      0x01\n        /* \"SmartContract.sol\":2124:2150  productHistory[_productId] */\n      0x00\n        /* \"SmartContract.sol\":2139:2149  _productId */\n      dup6\n        /* \"SmartContract.sol\":2124:2150  productHistory[_productId] */\n      dup2\n      mstore\n      0x20\n      add\n      swap1\n      dup2\n      mstore\n      0x20\n      add\n      0x00\n      keccak256\n        /* \"SmartContract.sol\":2156:2314  History({... */\n      mload(0x40)\n      dup1\n      0x80\n      add\n      0x40\n      mstore\n      dup1\n        /* \"SmartContract.sol\":2193:2194  0 */\n      0x00\n        /* \"SmartContract.sol\":2156:2314  History({... */\n      0xffffffffffffffffffffffffffffffffffffffff\n      and\n      dup2\n      mstore\n      0x20\n      add\n        /* \"SmartContract.sol\":2214:2224  msg.sender */\n      caller\n        /* \"SmartContract.sol\":2156:2314  History({... */\n      0xffffffffffffffffffffffffffffffffffffffff\n      and\n      dup2\n      mstore\n      0x20\n      add\n        /* \"SmartContract.sol\":2250:2265  block.timestamp */\n      timestamp\n        /* \"SmartContract.sol\":2156:2314  History({... */\n      dup2\n      mstore\n      0x20\n      add\n        /* \"SmartContract.sol\":2288:2302  Status.Created */\n      0x00\n        /* \"SmartContract.sol\":2156:2314  History({... */\n      0x02\n      dup2\n      gt\n      iszero\n      tag_106\n      jumpi\n      tag_107\n      tag_100\n      jump\t// in\n    tag_107:\n    tag_106:\n      dup2\n      mstore\n      pop\n        /* \"SmartContract.sol\":2124:2315  productHistory[_productId].push(History({... */\n      swap1\n      dup1\n      0x01\n      dup2\n      sload\n      add\n      dup1\n      dup3\n      sstore\n      dup1\n      swap2\n      pop\n      pop\n      0x01\n      swap1\n      sub\n      swap1\n      0x00\n      mstore\n      keccak256(0x00, 0x20)\n      swap1\n      0x04\n      mul\n      add\n      0x00\n      swap1\n      swap2\n      swap1\n      swap2\n      swap1\n      swap2\n      pop\n      0x00\n      dup3\n      add\n      mload\n      dup2\n      0x00\n      add\n      exp(0x0100, 0x00)\n      dup2\n      sload\n      dup2\n      0xffffffffffffffffffffffffffffffffffffffff\n      mul\n      not\n      and\n      swap1\n      dup4\n      0xffffffffffffffffffffffffffffffffffffffff\n      and\n      mul\n      or\n      swap1\n      sstore\n      pop\n      0x20\n      dup3\n      add\n      mload\n      dup2\n      0x01\n      add\n      exp(0x0100, 0x00)\n      dup2\n      sload\n      dup2\n      0xffffffffffffffffffffffffffffffffffffffff\n      mul\n      not\n      and\n      swap1\n      dup4\n      0xffffffffffffffffffffffffffffffffffffffff\n      and\n      mul\n      or\n      swap1\n      sstore\n      pop\n      0x40\n      dup3\n      add\n      mload\n      dup2\n      0x02\n      add\n      sstore\n      0x60\n      dup3\n      add\n      mload\n      dup2\n      0x03\n      add\n      exp(0x0100, 0x00)\n      dup2\n      sload\n      dup2\n      0xff\n      mul\n      not\n      and\n      swap1\n      dup4\n      0x02\n      dup2\n      gt\n      iszero\n      tag_109\n      jumpi\n      tag_110\n      tag_100\n      jump\t// in\n    tag_110:\n    tag_109:\n      mul\n      or\n      swap1\n      sstore\n      pop\n      pop\n      pop\n        /* \"SmartContract.sol\":1558:2323  function registerProduct(... */\n      pop\n      pop\n      pop\n      pop\n      jump\t// out\n        /* \"SmartContract.sol\":3688:4221  function getProduct(uint256 _productId)... */\n    tag_50:\n        /* \"SmartContract.sol\":3790:3797  uint256 */\n      0x00\n        /* \"SmartContract.sol\":3812:3825  string memory */\n      0x60\n        /* \"SmartContract.sol\":3840:3847  uint256 */\n      0x00\n        /* \"SmartContract.sol\":3862:3875  string memory */\n      0x60\n        /* \"SmartContract.sol\":3890:3897  uint256 */\n      0x00\n        /* \"SmartContract.sol\":3912:3919  address */\n      0x00\n        /* \"SmartContract.sol\":3934:3940  Status */\n      0x00\n        /* \"SmartContract.sol\":3968:3984  Product memory p */\n      0x00\n        /* \"SmartContract.sol\":3987:3995  products */\n      0x00\n        /* \"SmartContract.sol\":3987:4007  products[_productId] */\n      0x00\n        /* \"SmartContract.sol\":3996:4006  _productId */\n      dup11\n        /* \"SmartContract.sol\":3987:4007  products[_productId] */\n      dup2\n      mstore\n      0x20\n      add\n      swap1\n      dup2\n      mstore\n      0x20\n      add\n      0x00\n      keccak256\n        /* \"SmartContract.sol\":3968:4007  Product memory p = products[_productId] */\n      mload(0x40)\n      dup1\n      0xe0\n      add\n      0x40\n      mstore\n      swap1\n      dup2\n      0x00\n      dup3\n      add\n      sload\n      dup2\n      mstore\n      0x20\n      add\n      0x01\n      dup3\n      add\n      dup1\n      sload\n      tag_112\n      swap1\n      tag_76\n      jump\t// in\n    tag_112:\n      dup1\n      0x1f\n      add\n      0x20\n      dup1\n      swap2\n      div\n      mul\n      0x20\n      add\n      mload(0x40)\n      swap1\n      dup2\n      add\n      0x40\n      mstore\n      dup1\n      swap3\n      swap2\n      swap1\n      dup2\n      dup2\n      mstore\n      0x20\n      add\n      dup3\n      dup1\n      sload\n      tag_113\n      swap1\n      tag_76\n      jump\t// in\n    tag_113:\n      dup1\n      iszero\n      tag_114\n      jumpi\n      dup1\n      0x1f\n      lt\n      tag_115\n      jumpi\n      0x0100\n      dup1\n      dup4\n      sload\n      div\n      mul\n      dup4\n      mstore\n      swap2\n      0x20\n      add\n      swap2\n      jump(tag_114)\n    tag_115:\n      dup3\n      add\n      swap2\n      swap1\n      0x00\n      mstore\n      keccak256(0x00, 0x20)\n      swap1\n    tag_116:\n      dup2\n      sload\n      dup2\n      mstore\n      swap1\n      0x01\n      add\n      swap1\n      0x20\n      add\n      dup1\n      dup4\n      gt\n      tag_116\n      jumpi\n      dup3\n      swap1\n      sub\n      0x1f\n      and\n      dup3\n      add\n      swap2\n    tag_114:\n      pop\n      pop\n      pop\n      pop\n      pop\n      dup2\n      mstore\n      0x20\n      add\n      0x02\n      dup3\n      add\n      sload\n      dup2\n      mstore\n      0x20\n      add\n      0x03\n      dup3\n      add\n      dup1\n      sload\n      tag_117\n      swap1\n      tag_76\n      jump\t// in\n    tag_117:\n      dup1\n      0x1f\n      add\n      0x20\n      dup1\n      swap2\n      div\n      mul\n      0x20\n      add\n      mload(0x40)\n      swap1\n      dup2\n      add\n      0x40\n      mstore\n      dup1\n      swap3\n      swap2\n      swap1\n      dup2\n      dup2\n      mstore\n      0x20\n      add\n      dup3\n      dup1\n      sload\n      tag_118\n      swap1\n      tag_76\n      jump\t// in\n    tag_118:\n      dup1\n      iszero\n      tag_119\n      jumpi\n      dup1\n      0x1f\n      lt\n      tag_120\n      jumpi\n      0x0100\n      dup1\n      dup4\n      sload\n      div\n      mul\n      dup4\n      mstore\n      swap2\n      0x20\n      add\n      swap2\n      jump(tag_119)\n    tag_120:\n      dup3\n      add\n      swap2\n      swap1\n      0x00\n      mstore\n      keccak256(0x00, 0x20)\n      swap1\n    tag_121:\n      dup2\n      sload\n      dup2\n      mstore\n      swap1\n      0x01\n      add\n      swap1\n      0x20\n      add\n      dup1\n      dup4\n      gt\n      tag_121\n      jumpi\n      dup3\n      swap1\n      sub\n      0x1f\n      and\n      dup3\n      add\n      swap2\n    tag_119:\n      pop\n      pop\n      pop\n      pop\n      pop\n      dup2\n      mstore\n      0x20\n      add\n      0x04\n      dup3\n      add\n      sload\n      dup2\n      mstore\n      0x20\n      add\n      0x05\n      dup3\n      add\n      0x00\n      swap1\n      sload\n      swap1\n      0x0100\n      exp\n      swap1\n      div\n      0xffffffffffffffffffffffffffffffffffffffff\n      and\n      0xffffffffffffffffffffffffffffffffffffffff\n      and\n      0xffffffffffffffffffffffffffffffffffffffff\n      and\n      dup2\n      mstore\n      0x20\n      add\n      0x05\n      dup3\n      add\n      0x14\n      swap1\n      sload\n      swap1\n      0x0100\n      exp\n      swap1\n      div\n      0xff\n      and\n      0x02\n      dup2\n      gt\n      iszero\n      tag_122\n      jumpi\n      tag_123\n      tag_100\n      jump\t// in\n    tag_123:\n    tag_122:\n      0x02\n      dup2\n      gt\n      iszero\n      tag_124\n      jumpi\n      tag_125\n      tag_100\n      jump\t// in\n    tag_125:\n    tag_124:\n      dup2\n      mstore\n      pop\n      pop\n      swap1\n      pop\n        /* \"SmartContract.sol\":4042:4043  p */\n      dup1\n        /* \"SmartContract.sol\":4042:4053  p.productId */\n      0x00\n      add\n      mload\n        /* \"SmartContract.sol\":4068:4069  p */\n      dup2\n        /* \"SmartContract.sol\":4068:4074  p.name */\n      0x20\n      add\n      mload\n        /* \"SmartContract.sol\":4089:4090  p */\n      dup3\n        /* \"SmartContract.sol\":4089:4099  p.quantity */\n      0x40\n      add\n      mload\n        /* \"SmartContract.sol\":4114:4115  p */\n      dup4\n        /* \"SmartContract.sol\":4114:4122  p.origin */\n      0x60\n      add\n      mload\n        /* \"SmartContract.sol\":4137:4138  p */\n      dup5\n        /* \"SmartContract.sol\":4137:4150  p.dateCreated */\n      0x80\n      add\n      mload\n        /* \"SmartContract.sol\":4165:4166  p */\n      dup6\n        /* \"SmartContract.sol\":4165:4179  p.currentOwner */\n      0xa0\n      add\n      mload\n        /* \"SmartContract.sol\":4194:4195  p */\n      dup7\n        /* \"SmartContract.sol\":4194:4202  p.status */\n      0xc0\n      add\n      mload\n        /* \"SmartContract.sol\":4020:4213  return (... */\n      swap8\n      pop\n      swap8\n      pop\n      swap8\n      pop\n      swap8\n      pop\n      swap8\n      pop\n      swap8\n      pop\n      swap8\n      pop\n      pop\n        /* \"SmartContract.sol\":3688:4221  function getProduct(uint256 _productId)... */\n      swap2\n      swap4\n      swap6\n      swap8\n      swap1\n      swap3\n      swap5\n      swap7\n      pop\n      jump\t// out\n        /* \"SmartContract.sol\":4229:4392  function getHistory(uint256 _productId)... */\n    tag_54:\n        /* \"SmartContract.sol\":4317:4333  History[] memory */\n      0x60\n        /* \"SmartContract.sol\":4358:4372  productHistory */\n      0x01\n        /* \"SmartContract.sol\":4358:4384  productHistory[_productId] */\n      0x00\n        /* \"SmartContract.sol\":4373:4383  _productId */\n      dup4\n        /* \"SmartContract.sol\":4358:4384  productHistory[_productId] */\n      dup2\n      mstore\n      0x20\n      add\n      swap1\n      dup2\n      mstore\n      0x20\n      add\n      0x00\n      keccak256\n        /* \"SmartContract.sol\":4351:4384  return productHistory[_productId] */\n      dup1\n      sload\n      dup1\n      0x20\n      mul\n      0x20\n      add\n      mload(0x40)\n      swap1\n      dup2\n      add\n      0x40\n      mstore\n      dup1\n      swap3\n      swap2\n      swap1\n      dup2\n      dup2\n      mstore\n      0x20\n      add\n      0x00\n      swap1\n    tag_127:\n      dup3\n      dup3\n      lt\n      iszero\n      tag_128\n      jumpi\n      dup4\n      dup3\n      swap1\n      0x00\n      mstore\n      keccak256(0x00, 0x20)\n      swap1\n      0x04\n      mul\n      add\n      mload(0x40)\n      dup1\n      0x80\n      add\n      0x40\n      mstore\n      swap1\n      dup2\n      0x00\n      dup3\n      add\n      0x00\n      swap1\n      sload\n      swap1\n      0x0100\n      exp\n      swap1\n      div\n      0xffffffffffffffffffffffffffffffffffffffff\n      and\n      0xffffffffffffffffffffffffffffffffffffffff\n      and\n      0xffffffffffffffffffffffffffffffffffffffff\n      and\n      dup2\n      mstore\n      0x20\n      add\n      0x01\n      dup3\n      add\n      0x00\n      swap1\n      sload\n      swap1\n      0x0100\n      exp\n      swap1\n      div\n      0xffffffffffffffffffffffffffffffffffffffff\n      and\n      0xffffffffffffffffffffffffffffffffffffffff\n      and\n      0xffffffffffffffffffffffffffffffffffffffff\n      and\n      dup2\n      mstore\n      0x20\n      add\n      0x02\n      dup3\n      add\n      sload\n      dup2\n      mstore\n      0x20\n      add\n      0x03\n      dup3\n      add\n      0x00\n      swap1\n      sload\n      swap1\n      0x0100\n      exp\n      swap1\n      div\n      0xff\n      and\n      0x02\n      dup2\n      gt\n      iszero\n      tag_130\n      jumpi\n      tag_131\n      tag_100\n      jump\t// in\n    tag_131:\n    tag_130:\n      0x02\n      dup2\n      gt\n      iszero\n      tag_132\n      jumpi\n      tag_133\n      tag_100\n      jump\t// in\n    tag_133:\n    tag_132:\n      dup2\n      mstore\n      pop\n      pop\n      dup2\n      mstore\n      0x20\n      add\n      swap1\n      0x01\n      add\n      swap1\n      jump(tag_127)\n    tag_128:\n      pop\n      pop\n      pop\n      pop\n      swap1\n      pop\n        /* \"SmartContract.sol\":4229:4392  function getHistory(uint256 _productId)... */\n      swap2\n      swap1\n      pop\n      jump\t// out\n        /* \"SmartContract.sol\":679:723  mapping(address => bool) public distributors */\n    tag_59:\n      mstore(0x20, 0x04)\n      dup1\n      0x00\n      mstore\n      keccak256(0x00, 0x40)\n      0x00\n      swap2\n      pop\n      sload\n      swap1\n      0x0100\n      exp\n      swap1\n      div\n      0xff\n      and\n      dup2\n      jump\t// out\n        /* \"SmartContract.sol\":2426:3125  function transferToDistributor(... */\n    tag_64:\n        /* \"SmartContract.sol\":883:890  farmers */\n      0x03\n        /* \"SmartContract.sol\":883:902  farmers[msg.sender] */\n      0x00\n        /* \"SmartContract.sol\":891:901  msg.sender */\n      caller\n        /* \"SmartContract.sol\":883:902  farmers[msg.sender] */\n      0xffffffffffffffffffffffffffffffffffffffff\n      and\n      0xffffffffffffffffffffffffffffffffffffffff\n      and\n      dup2\n      mstore\n      0x20\n      add\n      swap1\n      dup2\n      mstore\n      0x20\n      add\n      0x00\n      keccak256\n      0x00\n      swap1\n      sload\n      swap1\n      0x0100\n      exp\n      swap1\n      div\n      0xff\n      and\n        /* \"SmartContract.sol\":875:928  require(farmers[msg.sender], \"Not authorized farmer\") */\n      tag_135\n      jumpi\n      mload(0x40)\n      0x08c379a000000000000000000000000000000000000000000000000000000000\n      dup2\n      mstore\n      0x04\n      add\n      tag_136\n      swap1\n      tag_93\n      jump\t// in\n    tag_136:\n      mload(0x40)\n      dup1\n      swap2\n      sub\n      swap1\n      revert\n    tag_135:\n        /* \"SmartContract.sol\":2597:2598  0 */\n      0x00\n        /* \"SmartContract.sol\":2563:2571  products */\n      0x00\n        /* \"SmartContract.sol\":2563:2583  products[_productId] */\n      0x00\n        /* \"SmartContract.sol\":2572:2582  _productId */\n      dup5\n        /* \"SmartContract.sol\":2563:2583  products[_productId] */\n      dup2\n      mstore\n      0x20\n      add\n      swap1\n      dup2\n      mstore\n      0x20\n      add\n      0x00\n      keccak256\n        /* \"SmartContract.sol\":2563:2593  products[_productId].productId */\n      0x00\n      add\n      sload\n        /* \"SmartContract.sol\":2563:2598  products[_productId].productId != 0 */\n      sub\n        /* \"SmartContract.sol\":2555:2620  require(products[_productId].productId != 0, \"Product not found\") */\n      tag_138\n      jumpi\n      mload(0x40)\n      0x08c379a000000000000000000000000000000000000000000000000000000000\n      dup2\n      mstore\n      0x04\n      add\n      tag_139\n      swap1\n      tag_140\n      jump\t// in\n    tag_139:\n      mload(0x40)\n      dup1\n      swap2\n      sub\n      swap1\n      revert\n    tag_138:\n        /* \"SmartContract.sol\":2639:2651  distributors */\n      0x04\n        /* \"SmartContract.sol\":2639:2665  distributors[_distributor] */\n      0x00\n        /* \"SmartContract.sol\":2652:2664  _distributor */\n      dup3\n        /* \"SmartContract.sol\":2639:2665  distributors[_distributor] */\n      0xffffffffffffffffffffffffffffffffffffffff\n      and\n      0xffffffffffffffffffffffffffffffffffffffff\n      and\n      dup2\n      mstore\n      0x20\n      add\n      swap1\n      dup2\n      mstore\n      0x20\n      add\n      0x00\n      keccak256\n      0x00\n      swap1\n      sload\n      swap1\n      0x0100\n      exp\n      swap1\n      div\n      0xff\n      and\n        /* \"SmartContract.sol\":2631:2689  require(distributors[_distributor], \"Invalid distributor\") */\n      tag_141\n      jumpi\n      mload(0x40)\n      0x08c379a000000000000000000000000000000000000000000000000000000000\n      dup2\n      mstore\n      0x04\n      add\n      tag_142\n      swap1\n      tag_143\n      jump\t// in\n    tag_142:\n      mload(0x40)\n      dup1\n      swap2\n      sub\n      swap1\n      revert\n    tag_141:\n        /* \"SmartContract.sol\":2702:2725  Product storage product */\n      0x00\n        /* \"SmartContract.sol\":2728:2736  products */\n      0x00\n        /* \"SmartContract.sol\":2728:2748  products[_productId] */\n      0x00\n        /* \"SmartContract.sol\":2737:2747  _productId */\n      dup5\n        /* \"SmartContract.sol\":2728:2748  products[_productId] */\n      dup2\n      mstore\n      0x20\n      add\n      swap1\n      dup2\n      mstore\n      0x20\n      add\n      0x00\n      keccak256\n        /* \"SmartContract.sol\":2702:2748  Product storage product = products[_productId] */\n      swap1\n      pop\n        /* \"SmartContract.sol\":2793:2803  msg.sender */\n      caller\n        /* \"SmartContract.sol\":2769:2803  product.currentOwner == msg.sender */\n      0xffffffffffffffffffffffffffffffffffffffff\n      and\n        /* \"SmartContract.sol\":2769:2776  product */\n      dup2\n        /* \"SmartContract.sol\":2769:2789  product.currentOwner */\n      0x05\n      add\n      0x00\n      swap1\n      sload\n      swap1\n      0x0100\n      exp\n      swap1\n      div\n      0xffffffffffffffffffffffffffffffffffffffff\n      and\n        /* \"SmartContract.sol\":2769:2803  product.currentOwner == msg.sender */\n      0xffffffffffffffffffffffffffffffffffffffff\n      and\n      eq\n        /* \"SmartContract.sol\":2761:2817  require(product.currentOwner == msg.sender, \"Not owner\") */\n      tag_144\n      jumpi\n      mload(0x40)\n      0x08c379a000000000000000000000000000000000000000000000000000000000\n      dup2\n      mstore\n      0x04\n      add\n      tag_145\n      swap1\n      tag_146\n      jump\t// in\n    tag_145:\n      mload(0x40)\n      dup1\n      swap2\n      sub\n      swap1\n      revert\n    tag_144:\n        /* \"SmartContract.sol\":2853:2865  _distributor */\n      dup2\n        /* \"SmartContract.sol\":2830:2837  product */\n      dup2\n        /* \"SmartContract.sol\":2830:2850  product.currentOwner */\n      0x05\n      add\n      0x00\n        /* \"SmartContract.sol\":2830:2865  product.currentOwner = _distributor */\n      0x0100\n      exp\n      dup2\n      sload\n      dup2\n      0xffffffffffffffffffffffffffffffffffffffff\n      mul\n      not\n      and\n      swap1\n      dup4\n      0xffffffffffffffffffffffffffffffffffffffff\n      and\n      mul\n      or\n      swap1\n      sstore\n      pop\n        /* \"SmartContract.sol\":2893:2909  Status.InTransit */\n      0x01\n        /* \"SmartContract.sol\":2876:2883  product */\n      dup2\n        /* \"SmartContract.sol\":2876:2890  product.status */\n      0x05\n      add\n      0x14\n        /* \"SmartContract.sol\":2876:2909  product.status = Status.InTransit */\n      0x0100\n      exp\n      dup2\n      sload\n      dup2\n      0xff\n      mul\n      not\n      and\n      swap1\n      dup4\n      0x02\n      dup2\n      gt\n      iszero\n      tag_147\n      jumpi\n      tag_148\n      tag_100\n      jump\t// in\n    tag_148:\n    tag_147:\n      mul\n      or\n      swap1\n      sstore\n      pop\n        /* \"SmartContract.sol\":2922:2936  productHistory */\n      0x01\n        /* \"SmartContract.sol\":2922:2948  productHistory[_productId] */\n      0x00\n        /* \"SmartContract.sol\":2937:2947  _productId */\n      dup5\n        /* \"SmartContract.sol\":2922:2948  productHistory[_productId] */\n      dup2\n      mstore\n      0x20\n      add\n      swap1\n      dup2\n      mstore\n      0x20\n      add\n      0x00\n      keccak256\n        /* \"SmartContract.sol\":2954:3116  History({... */\n      mload(0x40)\n      dup1\n      0x80\n      add\n      0x40\n      mstore\n      dup1\n        /* \"SmartContract.sol\":2983:2993  msg.sender */\n      caller\n        /* \"SmartContract.sol\":2954:3116  History({... */\n      0xffffffffffffffffffffffffffffffffffffffff\n      and\n      dup2\n      mstore\n      0x20\n      add\n        /* \"SmartContract.sol\":3012:3024  _distributor */\n      dup5\n        /* \"SmartContract.sol\":2954:3116  History({... */\n      0xffffffffffffffffffffffffffffffffffffffff\n      and\n      dup2\n      mstore\n      0x20\n      add\n        /* \"SmartContract.sol\":3050:3065  block.timestamp */\n      timestamp\n        /* \"SmartContract.sol\":2954:3116  History({... */\n      dup2\n      mstore\n      0x20\n      add\n        /* \"SmartContract.sol\":3088:3104  Status.InTransit */\n      0x01\n        /* \"SmartContract.sol\":2954:3116  History({... */\n      0x02\n      dup2\n      gt\n      iszero\n      tag_149\n      jumpi\n      tag_150\n      tag_100\n      jump\t// in\n    tag_150:\n    tag_149:\n      dup2\n      mstore\n      pop\n        /* \"SmartContract.sol\":2922:3117  productHistory[_productId].push(History({... */\n      swap1\n      dup1\n      0x01\n      dup2\n      sload\n      add\n      dup1\n      dup3\n      sstore\n      dup1\n      swap2\n      pop\n      pop\n      0x01\n      swap1\n      sub\n      swap1\n      0x00\n      mstore\n      keccak256(0x00, 0x20)\n      swap1\n      0x04\n      mul\n      add\n      0x00\n      swap1\n      swap2\n      swap1\n      swap2\n      swap1\n      swap2\n      pop\n      0x00\n      dup3\n      add\n      mload\n      dup2\n      0x00\n      add\n      exp(0x0100, 0x00)\n      dup2\n      sload\n      dup2\n      0xffffffffffffffffffffffffffffffffffffffff\n      mul\n      not\n      and\n      swap1\n      dup4\n      0xffffffffffffffffffffffffffffffffffffffff\n      and\n      mul\n      or\n      swap1\n      sstore\n      pop\n      0x20\n      dup3\n      add\n      mload\n      dup2\n      0x01\n      add\n      exp(0x0100, 0x00)\n      dup2\n      sload\n      dup2\n      0xffffffffffffffffffffffffffffffffffffffff\n      mul\n      not\n      and\n      swap1\n      dup4\n      0xffffffffffffffffffffffffffffffffffffffff\n      and\n      mul\n      or\n      swap1\n      sstore\n      pop\n      0x40\n      dup3\n      add\n      mload\n      dup2\n      0x02\n      add\n      sstore\n      0x60\n      dup3\n      add\n      mload\n      dup2\n      0x03\n      add\n      exp(0x0100, 0x00)\n      dup2\n      sload\n      dup2\n      0xff\n      mul\n      not\n      and\n      swap1\n      dup4\n      0x02\n      dup2\n      gt\n      iszero\n      tag_152\n      jumpi\n      tag_153\n      tag_100\n      jump\t// in\n    tag_153:\n    tag_152:\n      mul\n      or\n      swap1\n      sstore\n      pop\n      pop\n      pop\n        /* \"SmartContract.sol\":2542:3125  {... */\n      pop\n        /* \"SmartContract.sol\":2426:3125  function transferToDistributor(... */\n      pop\n      pop\n      jump\t// out\n        /* \"SmartContract.sol\":3133:3589  function confirmDelivery(uint256 _productId) public onlyDistributor {... */\n    tag_67:\n        /* \"SmartContract.sol\":1002:1014  distributors */\n      0x04\n        /* \"SmartContract.sol\":1002:1026  distributors[msg.sender] */\n      0x00\n        /* \"SmartContract.sol\":1015:1025  msg.sender */\n      caller\n        /* \"SmartContract.sol\":1002:1026  distributors[msg.sender] */\n      0xffffffffffffffffffffffffffffffffffffffff\n      and\n      0xffffffffffffffffffffffffffffffffffffffff\n      and\n      dup2\n      mstore\n      0x20\n      add\n      swap1\n      dup2\n      mstore\n      0x20\n      add\n      0x00\n      keccak256\n      0x00\n      swap1\n      sload\n      swap1\n      0x0100\n      exp\n      swap1\n      div\n      0xff\n      and\n        /* \"SmartContract.sol\":994:1057  require(distributors[msg.sender], \"Not authorized distributor\") */\n      tag_155\n      jumpi\n      mload(0x40)\n      0x08c379a000000000000000000000000000000000000000000000000000000000\n      dup2\n      mstore\n      0x04\n      add\n      tag_156\n      swap1\n      tag_157\n      jump\t// in\n    tag_156:\n      mload(0x40)\n      dup1\n      swap2\n      sub\n      swap1\n      revert\n    tag_155:\n        /* \"SmartContract.sol\":3214:3237  Product storage product */\n      0x00\n        /* \"SmartContract.sol\":3240:3248  products */\n      0x00\n        /* \"SmartContract.sol\":3240:3260  products[_productId] */\n      0x00\n        /* \"SmartContract.sol\":3249:3259  _productId */\n      dup4\n        /* \"SmartContract.sol\":3240:3260  products[_productId] */\n      dup2\n      mstore\n      0x20\n      add\n      swap1\n      dup2\n      mstore\n      0x20\n      add\n      0x00\n      keccak256\n        /* \"SmartContract.sol\":3214:3260  Product storage product = products[_productId] */\n      swap1\n      pop\n        /* \"SmartContract.sol\":3305:3315  msg.sender */\n      caller\n        /* \"SmartContract.sol\":3281:3315  product.currentOwner == msg.sender */\n      0xffffffffffffffffffffffffffffffffffffffff\n      and\n        /* \"SmartContract.sol\":3281:3288  product */\n      dup2\n        /* \"SmartContract.sol\":3281:3301  product.currentOwner */\n      0x05\n      add\n      0x00\n      swap1\n      sload\n      swap1\n      0x0100\n      exp\n      swap1\n      div\n      0xffffffffffffffffffffffffffffffffffffffff\n      and\n        /* \"SmartContract.sol\":3281:3315  product.currentOwner == msg.sender */\n      0xffffffffffffffffffffffffffffffffffffffff\n      and\n      eq\n        /* \"SmartContract.sol\":3273:3329  require(product.currentOwner == msg.sender, \"Not owner\") */\n      tag_159\n      jumpi\n      mload(0x40)\n      0x08c379a000000000000000000000000000000000000000000000000000000000\n      dup2\n      mstore\n      0x04\n      add\n      tag_160\n      swap1\n      tag_146\n      jump\t// in\n    tag_160:\n      mload(0x40)\n      dup1\n      swap2\n      sub\n      swap1\n      revert\n    tag_159:\n        /* \"SmartContract.sol\":3359:3375  Status.Delivered */\n      0x02\n        /* \"SmartContract.sol\":3342:3349  product */\n      dup2\n        /* \"SmartContract.sol\":3342:3356  product.status */\n      0x05\n      add\n      0x14\n        /* \"SmartContract.sol\":3342:3375  product.status = Status.Delivered */\n      0x0100\n      exp\n      dup2\n      sload\n      dup2\n      0xff\n      mul\n      not\n      and\n      swap1\n      dup4\n      0x02\n      dup2\n      gt\n      iszero\n      tag_161\n      jumpi\n      tag_162\n      tag_100\n      jump\t// in\n    tag_162:\n    tag_161:\n      mul\n      or\n      swap1\n      sstore\n      pop\n        /* \"SmartContract.sol\":3388:3402  productHistory */\n      0x01\n        /* \"SmartContract.sol\":3388:3414  productHistory[_productId] */\n      0x00\n        /* \"SmartContract.sol\":3403:3413  _productId */\n      dup4\n        /* \"SmartContract.sol\":3388:3414  productHistory[_productId] */\n      dup2\n      mstore\n      0x20\n      add\n      swap1\n      dup2\n      mstore\n      0x20\n      add\n      0x00\n      keccak256\n        /* \"SmartContract.sol\":3420:3580  History({... */\n      mload(0x40)\n      dup1\n      0x80\n      add\n      0x40\n      mstore\n      dup1\n        /* \"SmartContract.sol\":3449:3459  msg.sender */\n      caller\n        /* \"SmartContract.sol\":3420:3580  History({... */\n      0xffffffffffffffffffffffffffffffffffffffff\n      and\n      dup2\n      mstore\n      0x20\n      add\n        /* \"SmartContract.sol\":3478:3488  msg.sender */\n      caller\n        /* \"SmartContract.sol\":3420:3580  History({... */\n      0xffffffffffffffffffffffffffffffffffffffff\n      and\n      dup2\n      mstore\n      0x20\n      add\n        /* \"SmartContract.sol\":3514:3529  block.timestamp */\n      timestamp\n        /* \"SmartContract.sol\":3420:3580  History({... */\n      dup2\n      mstore\n      0x20\n      add\n        /* \"SmartContract.sol\":3552:3568  Status.Delivered */\n      0x02\n        /* \"SmartContract.sol\":3420:3580  History({... */\n      dup1\n      dup2\n      gt\n      iszero\n      tag_163\n      jumpi\n      tag_164\n      tag_100\n      jump\t// in\n    tag_164:\n    tag_163:\n      dup2\n      mstore\n      pop\n        /* \"SmartContract.sol\":3388:3581  productHistory[_productId].push(History({... */\n      swap1\n      dup1\n      0x01\n      dup2\n      sload\n      add\n      dup1\n      dup3\n      sstore\n      dup1\n      swap2\n      pop\n      pop\n      0x01\n      swap1\n      sub\n      swap1\n      0x00\n      mstore\n      keccak256(0x00, 0x20)\n      swap1\n      0x04\n      mul\n      add\n      0x00\n      swap1\n      swap2\n      swap1\n      swap2\n      swap1\n      swap2\n      pop\n      0x00\n      dup3\n      add\n      mload\n      dup2\n      0x00\n      add\n      exp(0x0100, 0x00)\n      dup2\n      sload\n      dup2\n      0xffffffffffffffffffffffffffffffffffffffff\n      mul\n      not\n      and\n      swap1\n      dup4\n      0xffffffffffffffffffffffffffffffffffffffff\n      and\n      mul\n      or\n      swap1\n      sstore\n      pop\n      0x20\n      dup3\n      add\n      mload\n      dup2\n      0x01\n      add\n      exp(0x0100, 0x00)\n      dup2\n      sload\n      dup2\n      0xffffffffffffffffffffffffffffffffffffffff\n      mul\n      not\n      and\n      swap1\n      dup4\n      0xffffffffffffffffffffffffffffffffffffffff\n      and\n      mul\n      or\n      swap1\n      sstore\n      pop\n      0x40\n      dup3\n      add\n      mload\n      dup2\n      0x02\n      add\n      sstore\n      0x60\n      dup3\n      add\n      mload\n      dup2\n      0x03\n      add\n      exp(0x0100, 0x00)\n      dup2\n      sload\n      dup2\n      0xff\n      mul\n      not\n      and\n      swap1\n      dup4\n      0x02\n      dup2\n      gt\n      iszero\n      tag_166\n      jumpi\n      tag_167\n      tag_100\n      jump\t// in\n    tag_167:\n    tag_166:\n      mul\n      or\n      swap1\n      sstore\n      pop\n      pop\n      pop\n        /* \"SmartContract.sol\":3201:3589  {... */\n      pop\n        /* \"SmartContract.sol\":3133:3589  function confirmDelivery(uint256 _productId) public onlyDistributor {... */\n      pop\n      jump\t// out\n        /* \"#utility.yul\":7:82   */\n    tag_168:\n        /* \"#utility.yul\":40:46   */\n      0x00\n        /* \"#utility.yul\":73:75   */\n      0x40\n        /* \"#utility.yul\":67:76   */\n      mload\n        /* \"#utility.yul\":57:76   */\n      swap1\n      pop\n        /* \"#utility.yul\":7:82   */\n      swap1\n      jump\t// out\n        /* \"#utility.yul\":88:205   */\n    tag_169:\n        /* \"#utility.yul\":197:198   */\n      0x00\n        /* \"#utility.yul\":194:195   */\n      0x00\n        /* \"#utility.yul\":187:199   */\n      revert\n        /* \"#utility.yul\":211:328   */\n    tag_170:\n        /* \"#utility.yul\":320:321   */\n      0x00\n        /* \"#utility.yul\":317:318   */\n      0x00\n        /* \"#utility.yul\":310:322   */\n      revert\n        /* \"#utility.yul\":334:411   */\n    tag_171:\n        /* \"#utility.yul\":371:378   */\n      0x00\n        /* \"#utility.yul\":400:405   */\n      dup2\n        /* \"#utility.yul\":389:405   */\n      swap1\n      pop\n        /* \"#utility.yul\":334:411   */\n      swap2\n      swap1\n      pop\n      jump\t// out\n        /* \"#utility.yul\":417:539   */\n    tag_172:\n        /* \"#utility.yul\":490:514   */\n      tag_246\n        /* \"#utility.yul\":508:513   */\n      dup2\n        /* \"#utility.yul\":490:514   */\n      tag_171\n      jump\t// in\n    tag_246:\n        /* \"#utility.yul\":483:488   */\n      dup2\n        /* \"#utility.yul\":480:515   */\n      eq\n        /* \"#utility.yul\":470:533   */\n      tag_247\n      jumpi\n        /* \"#utility.yul\":529:530   */\n      0x00\n        /* \"#utility.yul\":526:527   */\n      0x00\n        /* \"#utility.yul\":519:531   */\n      revert\n        /* \"#utility.yul\":470:533   */\n    tag_247:\n        /* \"#utility.yul\":417:539   */\n      pop\n      jump\t// out\n        /* \"#utility.yul\":545:684   */\n    tag_173:\n        /* \"#utility.yul\":591:596   */\n      0x00\n        /* \"#utility.yul\":629:635   */\n      dup2\n        /* \"#utility.yul\":616:636   */\n      calldataload\n        /* \"#utility.yul\":607:636   */\n      swap1\n      pop\n        /* \"#utility.yul\":645:678   */\n      tag_249\n        /* \"#utility.yul\":672:677   */\n      dup2\n        /* \"#utility.yul\":645:678   */\n      tag_172\n      jump\t// in\n    tag_249:\n        /* \"#utility.yul\":545:684   */\n      swap3\n      swap2\n      pop\n      pop\n      jump\t// out\n        /* \"#utility.yul\":690:1164   */\n    tag_18:\n        /* \"#utility.yul\":758:764   */\n      0x00\n        /* \"#utility.yul\":766:772   */\n      0x00\n        /* \"#utility.yul\":815:817   */\n      0x40\n        /* \"#utility.yul\":803:812   */\n      dup4\n        /* \"#utility.yul\":794:801   */\n      dup6\n        /* \"#utility.yul\":790:813   */\n      sub\n        /* \"#utility.yul\":786:818   */\n      slt\n        /* \"#utility.yul\":783:902   */\n      iszero\n      tag_251\n      jumpi\n        /* \"#utility.yul\":821:900   */\n      tag_252\n      tag_169\n      jump\t// in\n    tag_252:\n        /* \"#utility.yul\":783:902   */\n    tag_251:\n        /* \"#utility.yul\":941:942   */\n      0x00\n        /* \"#utility.yul\":966:1019   */\n      tag_253\n        /* \"#utility.yul\":1011:1018   */\n      dup6\n        /* \"#utility.yul\":1002:1008   */\n      dup3\n        /* \"#utility.yul\":991:1000   */\n      dup7\n        /* \"#utility.yul\":987:1009   */\n      add\n        /* \"#utility.yul\":966:1019   */\n      tag_173\n      jump\t// in\n    tag_253:\n        /* \"#utility.yul\":956:1019   */\n      swap3\n      pop\n        /* \"#utility.yul\":912:1029   */\n      pop\n        /* \"#utility.yul\":1068:1070   */\n      0x20\n        /* \"#utility.yul\":1094:1147   */\n      tag_254\n        /* \"#utility.yul\":1139:1146   */\n      dup6\n        /* \"#utility.yul\":1130:1136   */\n      dup3\n        /* \"#utility.yul\":1119:1128   */\n      dup7\n        /* \"#utility.yul\":1115:1137   */\n      add\n        /* \"#utility.yul\":1094:1147   */\n      tag_173\n      jump\t// in\n    tag_254:\n        /* \"#utility.yul\":1084:1147   */\n      swap2\n      pop\n        /* \"#utility.yul\":1039:1157   */\n      pop\n        /* \"#utility.yul\":690:1164   */\n      swap3\n      pop\n      swap3\n      swap1\n      pop\n      jump\t// out\n        /* \"#utility.yul\":1170:1296   */\n    tag_174:\n        /* \"#utility.yul\":1207:1214   */\n      0x00\n        /* \"#utility.yul\":1247:1289   */\n      0xffffffffffffffffffffffffffffffffffffffff\n        /* \"#utility.yul\":1240:1245   */\n      dup3\n        /* \"#utility.yul\":1236:1290   */\n      and\n        /* \"#utility.yul\":1225:1290   */\n      swap1\n      pop\n        /* \"#utility.yul\":1170:1296   */\n      swap2\n      swap1\n      pop\n      jump\t// out\n        /* \"#utility.yul\":1302:1398   */\n    tag_175:\n        /* \"#utility.yul\":1339:1346   */\n      0x00\n        /* \"#utility.yul\":1368:1392   */\n      tag_257\n        /* \"#utility.yul\":1386:1391   */\n      dup3\n        /* \"#utility.yul\":1368:1392   */\n      tag_174\n      jump\t// in\n    tag_257:\n        /* \"#utility.yul\":1357:1392   */\n      swap1\n      pop\n        /* \"#utility.yul\":1302:1398   */\n      swap2\n      swap1\n      pop\n      jump\t// out\n        /* \"#utility.yul\":1404:1522   */\n    tag_176:\n        /* \"#utility.yul\":1491:1515   */\n      tag_259\n        /* \"#utility.yul\":1509:1514   */\n      dup2\n        /* \"#utility.yul\":1491:1515   */\n      tag_175\n      jump\t// in\n    tag_259:\n        /* \"#utility.yul\":1486:1489   */\n      dup3\n        /* \"#utility.yul\":1479:1516   */\n      mstore\n        /* \"#utility.yul\":1404:1522   */\n      pop\n      pop\n      jump\t// out\n        /* \"#utility.yul\":1528:1646   */\n    tag_177:\n        /* \"#utility.yul\":1615:1639   */\n      tag_261\n        /* \"#utility.yul\":1633:1638   */\n      dup2\n        /* \"#utility.yul\":1615:1639   */\n      tag_171\n      jump\t// in\n    tag_261:\n        /* \"#utility.yul\":1610:1613   */\n      dup3\n        /* \"#utility.yul\":1603:1640   */\n      mstore\n        /* \"#utility.yul\":1528:1646   */\n      pop\n      pop\n      jump\t// out\n        /* \"#utility.yul\":1652:1832   */\n    tag_100:\n        /* \"#utility.yul\":1700:1777   */\n      0x4e487b7100000000000000000000000000000000000000000000000000000000\n        /* \"#utility.yul\":1697:1698   */\n      0x00\n        /* \"#utility.yul\":1690:1778   */\n      mstore\n        /* \"#utility.yul\":1797:1801   */\n      0x21\n        /* \"#utility.yul\":1794:1795   */\n      0x04\n        /* \"#utility.yul\":1787:1802   */\n      mstore\n        /* \"#utility.yul\":1821:1825   */\n      0x24\n        /* \"#utility.yul\":1818:1819   */\n      0x00\n        /* \"#utility.yul\":1811:1826   */\n      revert\n        /* \"#utility.yul\":1838:1951   */\n    tag_178:\n        /* \"#utility.yul\":1919:1920   */\n      0x03\n        /* \"#utility.yul\":1912:1917   */\n      dup2\n        /* \"#utility.yul\":1909:1921   */\n      lt\n        /* \"#utility.yul\":1899:1945   */\n      tag_264\n      jumpi\n        /* \"#utility.yul\":1925:1943   */\n      tag_265\n      tag_100\n      jump\t// in\n    tag_265:\n        /* \"#utility.yul\":1899:1945   */\n    tag_264:\n        /* \"#utility.yul\":1838:1951   */\n      pop\n      jump\t// out\n        /* \"#utility.yul\":1957:2084   */\n    tag_179:\n        /* \"#utility.yul\":2002:2009   */\n      0x00\n        /* \"#utility.yul\":2031:2036   */\n      dup2\n        /* \"#utility.yul\":2020:2036   */\n      swap1\n      pop\n        /* \"#utility.yul\":2037:2078   */\n      tag_267\n        /* \"#utility.yul\":2072:2077   */\n      dup3\n        /* \"#utility.yul\":2037:2078   */\n      tag_178\n      jump\t// in\n    tag_267:\n        /* \"#utility.yul\":1957:2084   */\n      swap2\n      swap1\n      pop\n      jump\t// out\n        /* \"#utility.yul\":2090:2217   */\n    tag_180:\n        /* \"#utility.yul\":2146:2155   */\n      0x00\n        /* \"#utility.yul\":2179:2211   */\n      tag_269\n        /* \"#utility.yul\":2205:2210   */\n      dup3\n        /* \"#utility.yul\":2179:2211   */\n      tag_179\n      jump\t// in\n    tag_269:\n        /* \"#utility.yul\":2166:2211   */\n      swap1\n      pop\n        /* \"#utility.yul\":2090:2217   */\n      swap2\n      swap1\n      pop\n      jump\t// out\n        /* \"#utility.yul\":2223:2366   */\n    tag_181:\n        /* \"#utility.yul\":2316:2359   */\n      tag_271\n        /* \"#utility.yul\":2353:2358   */\n      dup2\n        /* \"#utility.yul\":2316:2359   */\n      tag_180\n      jump\t// in\n    tag_271:\n        /* \"#utility.yul\":2311:2314   */\n      dup3\n        /* \"#utility.yul\":2304:2360   */\n      mstore\n        /* \"#utility.yul\":2223:2366   */\n      pop\n      pop\n      jump\t// out\n        /* \"#utility.yul\":2372:2937   */\n    tag_21:\n        /* \"#utility.yul\":2555:2559   */\n      0x00\n        /* \"#utility.yul\":2593:2596   */\n      0x80\n        /* \"#utility.yul\":2582:2591   */\n      dup3\n        /* \"#utility.yul\":2578:2597   */\n      add\n        /* \"#utility.yul\":2570:2597   */\n      swap1\n      pop\n        /* \"#utility.yul\":2607:2678   */\n      tag_273\n        /* \"#utility.yul\":2675:2676   */\n      0x00\n        /* \"#utility.yul\":2664:2673   */\n      dup4\n        /* \"#utility.yul\":2660:2677   */\n      add\n        /* \"#utility.yul\":2651:2657   */\n      dup8\n        /* \"#utility.yul\":2607:2678   */\n      tag_176\n      jump\t// in\n    tag_273:\n        /* \"#utility.yul\":2688:2760   */\n      tag_274\n        /* \"#utility.yul\":2756:2758   */\n      0x20\n        /* \"#utility.yul\":2745:2754   */\n      dup4\n        /* \"#utility.yul\":2741:2759   */\n      add\n        /* \"#utility.yul\":2732:2738   */\n      dup7\n        /* \"#utility.yul\":2688:2760   */\n      tag_176\n      jump\t// in\n    tag_274:\n        /* \"#utility.yul\":2770:2842   */\n      tag_275\n        /* \"#utility.yul\":2838:2840   */\n      0x40\n        /* \"#utility.yul\":2827:2836   */\n      dup4\n        /* \"#utility.yul\":2823:2841   */\n      add\n        /* \"#utility.yul\":2814:2820   */\n      dup6\n        /* \"#utility.yul\":2770:2842   */\n      tag_177\n      jump\t// in\n    tag_275:\n        /* \"#utility.yul\":2852:2930   */\n      tag_276\n        /* \"#utility.yul\":2926:2928   */\n      0x60\n        /* \"#utility.yul\":2915:2924   */\n      dup4\n        /* \"#utility.yul\":2911:2929   */\n      add\n        /* \"#utility.yul\":2902:2908   */\n      dup5\n        /* \"#utility.yul\":2852:2930   */\n      tag_181\n      jump\t// in\n    tag_276:\n        /* \"#utility.yul\":2372:2937   */\n      swap6\n      swap5\n      pop\n      pop\n      pop\n      pop\n      pop\n      jump\t// out\n        /* \"#utility.yul\":2943:3065   */\n    tag_182:\n        /* \"#utility.yul\":3016:3040   */\n      tag_278\n        /* \"#utility.yul\":3034:3039   */\n      dup2\n        /* \"#utility.yul\":3016:3040   */\n      tag_175\n      jump\t// in\n    tag_278:\n        /* \"#utility.yul\":3009:3014   */\n      dup2\n        /* \"#utility.yul\":3006:3041   */\n      eq\n        /* \"#utility.yul\":2996:3059   */\n      tag_279\n      jumpi\n        /* \"#utility.yul\":3055:3056   */\n      0x00\n        /* \"#utility.yul\":3052:3053   */\n      0x00\n        /* \"#utility.yul\":3045:3057   */\n      revert\n        /* \"#utility.yul\":2996:3059   */\n    tag_279:\n        /* \"#utility.yul\":2943:3065   */\n      pop\n      jump\t// out\n        /* \"#utility.yul\":3071:3210   */\n    tag_183:\n        /* \"#utility.yul\":3117:3122   */\n      0x00\n        /* \"#utility.yul\":3155:3161   */\n      dup2\n        /* \"#utility.yul\":3142:3162   */\n      calldataload\n        /* \"#utility.yul\":3133:3162   */\n      swap1\n      pop\n        /* \"#utility.yul\":3171:3204   */\n      tag_281\n        /* \"#utility.yul\":3198:3203   */\n      dup2\n        /* \"#utility.yul\":3171:3204   */\n      tag_182\n      jump\t// in\n    tag_281:\n        /* \"#utility.yul\":3071:3210   */\n      swap3\n      swap2\n      pop\n      pop\n      jump\t// out\n        /* \"#utility.yul\":3216:3545   */\n    tag_24:\n        /* \"#utility.yul\":3275:3281   */\n      0x00\n        /* \"#utility.yul\":3324:3326   */\n      0x20\n        /* \"#utility.yul\":3312:3321   */\n      dup3\n        /* \"#utility.yul\":3303:3310   */\n      dup5\n        /* \"#utility.yul\":3299:3322   */\n      sub\n        /* \"#utility.yul\":3295:3327   */\n      slt\n        /* \"#utility.yul\":3292:3411   */\n      iszero\n      tag_283\n      jumpi\n        /* \"#utility.yul\":3330:3409   */\n      tag_284\n      tag_169\n      jump\t// in\n    tag_284:\n        /* \"#utility.yul\":3292:3411   */\n    tag_283:\n        /* \"#utility.yul\":3450:3451   */\n      0x00\n        /* \"#utility.yul\":3475:3528   */\n      tag_285\n        /* \"#utility.yul\":3520:3527   */\n      dup5\n        /* \"#utility.yul\":3511:3517   */\n      dup3\n        /* \"#utility.yul\":3500:3509   */\n      dup6\n        /* \"#utility.yul\":3496:3518   */\n      add\n        /* \"#utility.yul\":3475:3528   */\n      tag_183\n      jump\t// in\n    tag_285:\n        /* \"#utility.yul\":3465:3528   */\n      swap2\n      pop\n        /* \"#utility.yul\":3421:3538   */\n      pop\n        /* \"#utility.yul\":3216:3545   */\n      swap3\n      swap2\n      pop\n      pop\n      jump\t// out\n        /* \"#utility.yul\":3551:3641   */\n    tag_184:\n        /* \"#utility.yul\":3585:3592   */\n      0x00\n        /* \"#utility.yul\":3628:3633   */\n      dup2\n        /* \"#utility.yul\":3621:3634   */\n      iszero\n        /* \"#utility.yul\":3614:3635   */\n      iszero\n        /* \"#utility.yul\":3603:3635   */\n      swap1\n      pop\n        /* \"#utility.yul\":3551:3641   */\n      swap2\n      swap1\n      pop\n      jump\t// out\n        /* \"#utility.yul\":3647:3756   */\n    tag_185:\n        /* \"#utility.yul\":3728:3749   */\n      tag_288\n        /* \"#utility.yul\":3743:3748   */\n      dup2\n        /* \"#utility.yul\":3728:3749   */\n      tag_184\n      jump\t// in\n    tag_288:\n        /* \"#utility.yul\":3723:3726   */\n      dup3\n        /* \"#utility.yul\":3716:3750   */\n      mstore\n        /* \"#utility.yul\":3647:3756   */\n      pop\n      pop\n      jump\t// out\n        /* \"#utility.yul\":3762:3972   */\n    tag_27:\n        /* \"#utility.yul\":3849:3853   */\n      0x00\n        /* \"#utility.yul\":3887:3889   */\n      0x20\n        /* \"#utility.yul\":3876:3885   */\n      dup3\n        /* \"#utility.yul\":3872:3890   */\n      add\n        /* \"#utility.yul\":3864:3890   */\n      swap1\n      pop\n        /* \"#utility.yul\":3900:3965   */\n      tag_290\n        /* \"#utility.yul\":3962:3963   */\n      0x00\n        /* \"#utility.yul\":3951:3960   */\n      dup4\n        /* \"#utility.yul\":3947:3964   */\n      add\n        /* \"#utility.yul\":3938:3944   */\n      dup5\n        /* \"#utility.yul\":3900:3965   */\n      tag_185\n      jump\t// in\n    tag_290:\n        /* \"#utility.yul\":3762:3972   */\n      swap3\n      swap2\n      pop\n      pop\n      jump\t// out\n        /* \"#utility.yul\":3978:4307   */\n    tag_33:\n        /* \"#utility.yul\":4037:4043   */\n      0x00\n        /* \"#utility.yul\":4086:4088   */\n      0x20\n        /* \"#utility.yul\":4074:4083   */\n      dup3\n        /* \"#utility.yul\":4065:4072   */\n      dup5\n        /* \"#utility.yul\":4061:4084   */\n      sub\n        /* \"#utility.yul\":4057:4089   */\n      slt\n        /* \"#utility.yul\":4054:4173   */\n      iszero\n      tag_292\n      jumpi\n        /* \"#utility.yul\":4092:4171   */\n      tag_293\n      tag_169\n      jump\t// in\n    tag_293:\n        /* \"#utility.yul\":4054:4173   */\n    tag_292:\n        /* \"#utility.yul\":4212:4213   */\n      0x00\n        /* \"#utility.yul\":4237:4290   */\n      tag_294\n        /* \"#utility.yul\":4282:4289   */\n      dup5\n        /* \"#utility.yul\":4273:4279   */\n      dup3\n        /* \"#utility.yul\":4262:4271   */\n      dup6\n        /* \"#utility.yul\":4258:4280   */\n      add\n        /* \"#utility.yul\":4237:4290   */\n      tag_173\n      jump\t// in\n    tag_294:\n        /* \"#utility.yul\":4227:4290   */\n      swap2\n      pop\n        /* \"#utility.yul\":4183:4300   */\n      pop\n        /* \"#utility.yul\":3978:4307   */\n      swap3\n      swap2\n      pop\n      pop\n      jump\t// out\n        /* \"#utility.yul\":4313:4412   */\n    tag_186:\n        /* \"#utility.yul\":4365:4371   */\n      0x00\n        /* \"#utility.yul\":4399:4404   */\n      dup2\n        /* \"#utility.yul\":4393:4405   */\n      mload\n        /* \"#utility.yul\":4383:4405   */\n      swap1\n      pop\n        /* \"#utility.yul\":4313:4412   */\n      swap2\n      swap1\n      pop\n      jump\t// out\n        /* \"#utility.yul\":4418:4587   */\n    tag_187:\n        /* \"#utility.yul\":4502:4513   */\n      0x00\n        /* \"#utility.yul\":4536:4542   */\n      dup3\n        /* \"#utility.yul\":4531:4534   */\n      dup3\n        /* \"#utility.yul\":4524:4543   */\n      mstore\n        /* \"#utility.yul\":4576:4580   */\n      0x20\n        /* \"#utility.yul\":4571:4574   */\n      dup3\n        /* \"#utility.yul\":4567:4581   */\n      add\n        /* \"#utility.yul\":4552:4581   */\n      swap1\n      pop\n        /* \"#utility.yul\":4418:4587   */\n      swap3\n      swap2\n      pop\n      pop\n      jump\t// out\n        /* \"#utility.yul\":4593:4732   */\n    tag_188:\n        /* \"#utility.yul\":4682:4688   */\n      dup3\n        /* \"#utility.yul\":4677:4680   */\n      dup2\n        /* \"#utility.yul\":4672:4675   */\n      dup4\n        /* \"#utility.yul\":4666:4689   */\n      mcopy\n        /* \"#utility.yul\":4723:4724   */\n      0x00\n        /* \"#utility.yul\":4714:4720   */\n      dup4\n        /* \"#utility.yul\":4709:4712   */\n      dup4\n        /* \"#utility.yul\":4705:4721   */\n      add\n        /* \"#utility.yul\":4698:4725   */\n      mstore\n        /* \"#utility.yul\":4593:4732   */\n      pop\n      pop\n      pop\n      jump\t// out\n        /* \"#utility.yul\":4738:4840   */\n    tag_189:\n        /* \"#utility.yul\":4779:4785   */\n      0x00\n        /* \"#utility.yul\":4830:4832   */\n      0x1f\n        /* \"#utility.yul\":4826:4833   */\n      not\n        /* \"#utility.yul\":4821:4823   */\n      0x1f\n        /* \"#utility.yul\":4814:4819   */\n      dup4\n        /* \"#utility.yul\":4810:4824   */\n      add\n        /* \"#utility.yul\":4806:4834   */\n      and\n        /* \"#utility.yul\":4796:4834   */\n      swap1\n      pop\n        /* \"#utility.yul\":4738:4840   */\n      swap2\n      swap1\n      pop\n      jump\t// out\n        /* \"#utility.yul\":4846:5223   */\n    tag_190:\n        /* \"#utility.yul\":4934:4937   */\n      0x00\n        /* \"#utility.yul\":4962:5001   */\n      tag_300\n        /* \"#utility.yul\":4995:5000   */\n      dup3\n        /* \"#utility.yul\":4962:5001   */\n      tag_186\n      jump\t// in\n    tag_300:\n        /* \"#utility.yul\":5017:5088   */\n      tag_301\n        /* \"#utility.yul\":5081:5087   */\n      dup2\n        /* \"#utility.yul\":5076:5079   */\n      dup6\n        /* \"#utility.yul\":5017:5088   */\n      tag_187\n      jump\t// in\n    tag_301:\n        /* \"#utility.yul\":5010:5088   */\n      swap4\n      pop\n        /* \"#utility.yul\":5097:5162   */\n      tag_302\n        /* \"#utility.yul\":5155:5161   */\n      dup2\n        /* \"#utility.yul\":5150:5153   */\n      dup6\n        /* \"#utility.yul\":5143:5147   */\n      0x20\n        /* \"#utility.yul\":5136:5141   */\n      dup7\n        /* \"#utility.yul\":5132:5148   */\n      add\n        /* \"#utility.yul\":5097:5162   */\n      tag_188\n      jump\t// in\n    tag_302:\n        /* \"#utility.yul\":5187:5216   */\n      tag_303\n        /* \"#utility.yul\":5209:5215   */\n      dup2\n        /* \"#utility.yul\":5187:5216   */\n      tag_189\n      jump\t// in\n    tag_303:\n        /* \"#utility.yul\":5182:5185   */\n      dup5\n        /* \"#utility.yul\":5178:5217   */\n      add\n        /* \"#utility.yul\":5171:5217   */\n      swap2\n      pop\n        /* \"#utility.yul\":4938:5223   */\n      pop\n        /* \"#utility.yul\":4846:5223   */\n      swap3\n      swap2\n      pop\n      pop\n      jump\t// out\n        /* \"#utility.yul\":5229:6309   */\n    tag_36:\n        /* \"#utility.yul\":5536:5540   */\n      0x00\n        /* \"#utility.yul\":5574:5577   */\n      0xe0\n        /* \"#utility.yul\":5563:5572   */\n      dup3\n        /* \"#utility.yul\":5559:5578   */\n      add\n        /* \"#utility.yul\":5551:5578   */\n      swap1\n      pop\n        /* \"#utility.yul\":5588:5659   */\n      tag_305\n        /* \"#utility.yul\":5656:5657   */\n      0x00\n        /* \"#utility.yul\":5645:5654   */\n      dup4\n        /* \"#utility.yul\":5641:5658   */\n      add\n        /* \"#utility.yul\":5632:5638   */\n      dup11\n        /* \"#utility.yul\":5588:5659   */\n      tag_177\n      jump\t// in\n    tag_305:\n        /* \"#utility.yul\":5706:5715   */\n      dup2\n        /* \"#utility.yul\":5700:5704   */\n      dup2\n        /* \"#utility.yul\":5696:5716   */\n      sub\n        /* \"#utility.yul\":5691:5693   */\n      0x20\n        /* \"#utility.yul\":5680:5689   */\n      dup4\n        /* \"#utility.yul\":5676:5694   */\n      add\n        /* \"#utility.yul\":5669:5717   */\n      mstore\n        /* \"#utility.yul\":5734:5812   */\n      tag_306\n        /* \"#utility.yul\":5807:5811   */\n      dup2\n        /* \"#utility.yul\":5798:5804   */\n      dup10\n        /* \"#utility.yul\":5734:5812   */\n      tag_190\n      jump\t// in\n    tag_306:\n        /* \"#utility.yul\":5726:5812   */\n      swap1\n      pop\n        /* \"#utility.yul\":5822:5894   */\n      tag_307\n        /* \"#utility.yul\":5890:5892   */\n      0x40\n        /* \"#utility.yul\":5879:5888   */\n      dup4\n        /* \"#utility.yul\":5875:5893   */\n      add\n        /* \"#utility.yul\":5866:5872   */\n      dup9\n        /* \"#utility.yul\":5822:5894   */\n      tag_177\n      jump\t// in\n    tag_307:\n        /* \"#utility.yul\":5941:5950   */\n      dup2\n        /* \"#utility.yul\":5935:5939   */\n      dup2\n        /* \"#utility.yul\":5931:5951   */\n      sub\n        /* \"#utility.yul\":5926:5928   */\n      0x60\n        /* \"#utility.yul\":5915:5924   */\n      dup4\n        /* \"#utility.yul\":5911:5929   */\n      add\n        /* \"#utility.yul\":5904:5952   */\n      mstore\n        /* \"#utility.yul\":5969:6047   */\n      tag_308\n        /* \"#utility.yul\":6042:6046   */\n      dup2\n        /* \"#utility.yul\":6033:6039   */\n      dup8\n        /* \"#utility.yul\":5969:6047   */\n      tag_190\n      jump\t// in\n    tag_308:\n        /* \"#utility.yul\":5961:6047   */\n      swap1\n      pop\n        /* \"#utility.yul\":6057:6130   */\n      tag_309\n        /* \"#utility.yul\":6125:6128   */\n      0x80\n        /* \"#utility.yul\":6114:6123   */\n      dup4\n        /* \"#utility.yul\":6110:6129   */\n      add\n        /* \"#utility.yul\":6101:6107   */\n      dup7\n        /* \"#utility.yul\":6057:6130   */\n      tag_177\n      jump\t// in\n    tag_309:\n        /* \"#utility.yul\":6140:6213   */\n      tag_310\n        /* \"#utility.yul\":6208:6211   */\n      0xa0\n        /* \"#utility.yul\":6197:6206   */\n      dup4\n        /* \"#utility.yul\":6193:6212   */\n      add\n        /* \"#utility.yul\":6184:6190   */\n      dup6\n        /* \"#utility.yul\":6140:6213   */\n      tag_176\n      jump\t// in\n    tag_310:\n        /* \"#utility.yul\":6223:6302   */\n      tag_311\n        /* \"#utility.yul\":6297:6300   */\n      0xc0\n        /* \"#utility.yul\":6286:6295   */\n      dup4\n        /* \"#utility.yul\":6282:6301   */\n      add\n        /* \"#utility.yul\":6273:6279   */\n      dup5\n        /* \"#utility.yul\":6223:6302   */\n      tag_181\n      jump\t// in\n    tag_311:\n        /* \"#utility.yul\":5229:6309   */\n      swap9\n      swap8\n      pop\n      pop\n      pop\n      pop\n      pop\n      pop\n      pop\n      pop\n      jump\t// out\n        /* \"#utility.yul\":6315:6537   */\n    tag_43:\n        /* \"#utility.yul\":6408:6412   */\n      0x00\n        /* \"#utility.yul\":6446:6448   */\n      0x20\n        /* \"#utility.yul\":6435:6444   */\n      dup3\n        /* \"#utility.yul\":6431:6449   */\n      add\n        /* \"#utility.yul\":6423:6449   */\n      swap1\n      pop\n        /* \"#utility.yul\":6459:6530   */\n      tag_313\n        /* \"#utility.yul\":6527:6528   */\n      0x00\n        /* \"#utility.yul\":6516:6525   */\n      dup4\n        /* \"#utility.yul\":6512:6529   */\n      add\n        /* \"#utility.yul\":6503:6509   */\n      dup5\n        /* \"#utility.yul\":6459:6530   */\n      tag_176\n      jump\t// in\n    tag_313:\n        /* \"#utility.yul\":6315:6537   */\n      swap3\n      swap2\n      pop\n      pop\n      jump\t// out\n        /* \"#utility.yul\":6543:6660   */\n    tag_191:\n        /* \"#utility.yul\":6652:6653   */\n      0x00\n        /* \"#utility.yul\":6649:6650   */\n      0x00\n        /* \"#utility.yul\":6642:6654   */\n      revert\n        /* \"#utility.yul\":6666:6783   */\n    tag_192:\n        /* \"#utility.yul\":6775:6776   */\n      0x00\n        /* \"#utility.yul\":6772:6773   */\n      0x00\n        /* \"#utility.yul\":6765:6777   */\n      revert\n        /* \"#utility.yul\":6789:6969   */\n    tag_193:\n        /* \"#utility.yul\":6837:6914   */\n      0x4e487b7100000000000000000000000000000000000000000000000000000000\n        /* \"#utility.yul\":6834:6835   */\n      0x00\n        /* \"#utility.yul\":6827:6915   */\n      mstore\n        /* \"#utility.yul\":6934:6938   */\n      0x41\n        /* \"#utility.yul\":6931:6932   */\n      0x04\n        /* \"#utility.yul\":6924:6939   */\n      mstore\n        /* \"#utility.yul\":6958:6962   */\n      0x24\n        /* \"#utility.yul\":6955:6956   */\n      0x00\n        /* \"#utility.yul\":6948:6963   */\n      revert\n        /* \"#utility.yul\":6975:7256   */\n    tag_194:\n        /* \"#utility.yul\":7058:7085   */\n      tag_318\n        /* \"#utility.yul\":7080:7084   */\n      dup3\n        /* \"#utility.yul\":7058:7085   */\n      tag_189\n      jump\t// in\n    tag_318:\n        /* \"#utility.yul\":7050:7056   */\n      dup2\n        /* \"#utility.yul\":7046:7086   */\n      add\n        /* \"#utility.yul\":7188:7194   */\n      dup2\n        /* \"#utility.yul\":7176:7186   */\n      dup2\n        /* \"#utility.yul\":7173:7195   */\n      lt\n        /* \"#utility.yul\":7152:7170   */\n      0xffffffffffffffff\n        /* \"#utility.yul\":7140:7150   */\n      dup3\n        /* \"#utility.yul\":7137:7171   */\n      gt\n        /* \"#utility.yul\":7134:7196   */\n      or\n        /* \"#utility.yul\":7131:7219   */\n      iszero\n      tag_319\n      jumpi\n        /* \"#utility.yul\":7199:7217   */\n      tag_320\n      tag_193\n      jump\t// in\n    tag_320:\n        /* \"#utility.yul\":7131:7219   */\n    tag_319:\n        /* \"#utility.yul\":7239:7249   */\n      dup1\n        /* \"#utility.yul\":7235:7237   */\n      0x40\n        /* \"#utility.yul\":7228:7250   */\n      mstore\n        /* \"#utility.yul\":7018:7256   */\n      pop\n        /* \"#utility.yul\":6975:7256   */\n      pop\n      pop\n      jump\t// out\n        /* \"#utility.yul\":7262:7391   */\n    tag_195:\n        /* \"#utility.yul\":7296:7302   */\n      0x00\n        /* \"#utility.yul\":7323:7343   */\n      tag_322\n      tag_168\n      jump\t// in\n    tag_322:\n        /* \"#utility.yul\":7313:7343   */\n      swap1\n      pop\n        /* \"#utility.yul\":7352:7385   */\n      tag_323\n        /* \"#utility.yul\":7380:7384   */\n      dup3\n        /* \"#utility.yul\":7372:7378   */\n      dup3\n        /* \"#utility.yul\":7352:7385   */\n      tag_194\n      jump\t// in\n    tag_323:\n        /* \"#utility.yul\":7262:7391   */\n      swap2\n      swap1\n      pop\n      jump\t// out\n        /* \"#utility.yul\":7397:7705   */\n    tag_196:\n        /* \"#utility.yul\":7459:7463   */\n      0x00\n        /* \"#utility.yul\":7549:7567   */\n      0xffffffffffffffff\n        /* \"#utility.yul\":7541:7547   */\n      dup3\n        /* \"#utility.yul\":7538:7568   */\n      gt\n        /* \"#utility.yul\":7535:7591   */\n      iszero\n      tag_325\n      jumpi\n        /* \"#utility.yul\":7571:7589   */\n      tag_326\n      tag_193\n      jump\t// in\n    tag_326:\n        /* \"#utility.yul\":7535:7591   */\n    tag_325:\n        /* \"#utility.yul\":7609:7638   */\n      tag_327\n        /* \"#utility.yul\":7631:7637   */\n      dup3\n        /* \"#utility.yul\":7609:7638   */\n      tag_189\n      jump\t// in\n    tag_327:\n        /* \"#utility.yul\":7601:7638   */\n      swap1\n      pop\n        /* \"#utility.yul\":7693:7697   */\n      0x20\n        /* \"#utility.yul\":7687:7691   */\n      dup2\n        /* \"#utility.yul\":7683:7698   */\n      add\n        /* \"#utility.yul\":7675:7698   */\n      swap1\n      pop\n        /* \"#utility.yul\":7397:7705   */\n      swap2\n      swap1\n      pop\n      jump\t// out\n        /* \"#utility.yul\":7711:7859   */\n    tag_197:\n        /* \"#utility.yul\":7809:7815   */\n      dup3\n        /* \"#utility.yul\":7804:7807   */\n      dup2\n        /* \"#utility.yul\":7799:7802   */\n      dup4\n        /* \"#utility.yul\":7786:7816   */\n      calldatacopy\n        /* \"#utility.yul\":7850:7851   */\n      0x00\n        /* \"#utility.yul\":7841:7847   */\n      dup4\n        /* \"#utility.yul\":7836:7839   */\n      dup4\n        /* \"#utility.yul\":7832:7848   */\n      add\n        /* \"#utility.yul\":7825:7852   */\n      mstore\n        /* \"#utility.yul\":7711:7859   */\n      pop\n      pop\n      pop\n      jump\t// out\n        /* \"#utility.yul\":7865:8290   */\n    tag_198:\n        /* \"#utility.yul\":7943:7948   */\n      0x00\n        /* \"#utility.yul\":7968:8034   */\n      tag_330\n        /* \"#utility.yul\":7984:8033   */\n      tag_331\n        /* \"#utility.yul\":8026:8032   */\n      dup5\n        /* \"#utility.yul\":7984:8033   */\n      tag_196\n      jump\t// in\n    tag_331:\n        /* \"#utility.yul\":7968:8034   */\n      tag_195\n      jump\t// in\n    tag_330:\n        /* \"#utility.yul\":7959:8034   */\n      swap1\n      pop\n        /* \"#utility.yul\":8057:8063   */\n      dup3\n        /* \"#utility.yul\":8050:8055   */\n      dup2\n        /* \"#utility.yul\":8043:8064   */\n      mstore\n        /* \"#utility.yul\":8095:8099   */\n      0x20\n        /* \"#utility.yul\":8088:8093   */\n      dup2\n        /* \"#utility.yul\":8084:8100   */\n      add\n        /* \"#utility.yul\":8133:8136   */\n      dup5\n        /* \"#utility.yul\":8124:8130   */\n      dup5\n        /* \"#utility.yul\":8119:8122   */\n      dup5\n        /* \"#utility.yul\":8115:8131   */\n      add\n        /* \"#utility.yul\":8112:8137   */\n      gt\n        /* \"#utility.yul\":8109:8221   */\n      iszero\n      tag_332\n      jumpi\n        /* \"#utility.yul\":8140:8219   */\n      tag_333\n      tag_192\n      jump\t// in\n    tag_333:\n        /* \"#utility.yul\":8109:8221   */\n    tag_332:\n        /* \"#utility.yul\":8230:8284   */\n      tag_334\n        /* \"#utility.yul\":8277:8283   */\n      dup5\n        /* \"#utility.yul\":8272:8275   */\n      dup3\n        /* \"#utility.yul\":8267:8270   */\n      dup6\n        /* \"#utility.yul\":8230:8284   */\n      tag_197\n      jump\t// in\n    tag_334:\n        /* \"#utility.yul\":7949:8290   */\n      pop\n        /* \"#utility.yul\":7865:8290   */\n      swap4\n      swap3\n      pop\n      pop\n      pop\n      jump\t// out\n        /* \"#utility.yul\":8310:8650   */\n    tag_199:\n        /* \"#utility.yul\":8366:8371   */\n      0x00\n        /* \"#utility.yul\":8415:8418   */\n      dup3\n        /* \"#utility.yul\":8408:8412   */\n      0x1f\n        /* \"#utility.yul\":8400:8406   */\n      dup4\n        /* \"#utility.yul\":8396:8413   */\n      add\n        /* \"#utility.yul\":8392:8419   */\n      slt\n        /* \"#utility.yul\":8382:8504   */\n      tag_336\n      jumpi\n        /* \"#utility.yul\":8423:8502   */\n      tag_337\n      tag_191\n      jump\t// in\n    tag_337:\n        /* \"#utility.yul\":8382:8504   */\n    tag_336:\n        /* \"#utility.yul\":8540:8546   */\n      dup2\n        /* \"#utility.yul\":8527:8547   */\n      calldataload\n        /* \"#utility.yul\":8565:8644   */\n      tag_338\n        /* \"#utility.yul\":8640:8643   */\n      dup5\n        /* \"#utility.yul\":8632:8638   */\n      dup3\n        /* \"#utility.yul\":8625:8629   */\n      0x20\n        /* \"#utility.yul\":8617:8623   */\n      dup7\n        /* \"#utility.yul\":8613:8630   */\n      add\n        /* \"#utility.yul\":8565:8644   */\n      tag_198\n      jump\t// in\n    tag_338:\n        /* \"#utility.yul\":8556:8644   */\n      swap2\n      pop\n        /* \"#utility.yul\":8372:8650   */\n      pop\n        /* \"#utility.yul\":8310:8650   */\n      swap3\n      swap2\n      pop\n      pop\n      jump\t// out\n        /* \"#utility.yul\":8656:9781   */\n    tag_46:\n        /* \"#utility.yul\":8762:8768   */\n      0x00\n        /* \"#utility.yul\":8770:8776   */\n      0x00\n        /* \"#utility.yul\":8778:8784   */\n      0x00\n        /* \"#utility.yul\":8786:8792   */\n      0x00\n        /* \"#utility.yul\":8835:8838   */\n      0x80\n        /* \"#utility.yul\":8823:8832   */\n      dup6\n        /* \"#utility.yul\":8814:8821   */\n      dup8\n        /* \"#utility.yul\":8810:8833   */\n      sub\n        /* \"#utility.yul\":8806:8839   */\n      slt\n        /* \"#utility.yul\":8803:8923   */\n      iszero\n      tag_340\n      jumpi\n        /* \"#utility.yul\":8842:8921   */\n      tag_341\n      tag_169\n      jump\t// in\n    tag_341:\n        /* \"#utility.yul\":8803:8923   */\n    tag_340:\n        /* \"#utility.yul\":8962:8963   */\n      0x00\n        /* \"#utility.yul\":8987:9040   */\n      tag_342\n        /* \"#utility.yul\":9032:9039   */\n      dup8\n        /* \"#utility.yul\":9023:9029   */\n      dup3\n        /* \"#utility.yul\":9012:9021   */\n      dup9\n        /* \"#utility.yul\":9008:9030   */\n      add\n        /* \"#utility.yul\":8987:9040   */\n      tag_173\n      jump\t// in\n    tag_342:\n        /* \"#utility.yul\":8977:9040   */\n      swap5\n      pop\n        /* \"#utility.yul\":8933:9050   */\n      pop\n        /* \"#utility.yul\":9117:9119   */\n      0x20\n        /* \"#utility.yul\":9106:9115   */\n      dup6\n        /* \"#utility.yul\":9102:9120   */\n      add\n        /* \"#utility.yul\":9089:9121   */\n      calldataload\n        /* \"#utility.yul\":9148:9166   */\n      0xffffffffffffffff\n        /* \"#utility.yul\":9140:9146   */\n      dup2\n        /* \"#utility.yul\":9137:9167   */\n      gt\n        /* \"#utility.yul\":9134:9251   */\n      iszero\n      tag_343\n      jumpi\n        /* \"#utility.yul\":9170:9249   */\n      tag_344\n      tag_170\n      jump\t// in\n    tag_344:\n        /* \"#utility.yul\":9134:9251   */\n    tag_343:\n        /* \"#utility.yul\":9275:9338   */\n      tag_345\n        /* \"#utility.yul\":9330:9337   */\n      dup8\n        /* \"#utility.yul\":9321:9327   */\n      dup3\n        /* \"#utility.yul\":9310:9319   */\n      dup9\n        /* \"#utility.yul\":9306:9328   */\n      add\n        /* \"#utility.yul\":9275:9338   */\n      tag_199\n      jump\t// in\n    tag_345:\n        /* \"#utility.yul\":9265:9338   */\n      swap4\n      pop\n        /* \"#utility.yul\":9060:9348   */\n      pop\n        /* \"#utility.yul\":9387:9389   */\n      0x40\n        /* \"#utility.yul\":9413:9466   */\n      tag_346\n        /* \"#utility.yul\":9458:9465   */\n      dup8\n        /* \"#utility.yul\":9449:9455   */\n      dup3\n        /* \"#utility.yul\":9438:9447   */\n      dup9\n        /* \"#utility.yul\":9434:9456   */\n      add\n        /* \"#utility.yul\":9413:9466   */\n      tag_173\n      jump\t// in\n    tag_346:\n        /* \"#utility.yul\":9403:9466   */\n      swap3\n      pop\n        /* \"#utility.yul\":9358:9476   */\n      pop\n        /* \"#utility.yul\":9543:9545   */\n      0x60\n        /* \"#utility.yul\":9532:9541   */\n      dup6\n        /* \"#utility.yul\":9528:9546   */\n      add\n        /* \"#utility.yul\":9515:9547   */\n      calldataload\n        /* \"#utility.yul\":9574:9592   */\n      0xffffffffffffffff\n        /* \"#utility.yul\":9566:9572   */\n      dup2\n        /* \"#utility.yul\":9563:9593   */\n      gt\n        /* \"#utility.yul\":9560:9677   */\n      iszero\n      tag_347\n      jumpi\n        /* \"#utility.yul\":9596:9675   */\n      tag_348\n      tag_170\n      jump\t// in\n    tag_348:\n        /* \"#utility.yul\":9560:9677   */\n    tag_347:\n        /* \"#utility.yul\":9701:9764   */\n      tag_349\n        /* \"#utility.yul\":9756:9763   */\n      dup8\n        /* \"#utility.yul\":9747:9753   */\n      dup3\n        /* \"#utility.yul\":9736:9745   */\n      dup9\n        /* \"#utility.yul\":9732:9754   */\n      add\n        /* \"#utility.yul\":9701:9764   */\n      tag_199\n      jump\t// in\n    tag_349:\n        /* \"#utility.yul\":9691:9764   */\n      swap2\n      pop\n        /* \"#utility.yul\":9486:9774   */\n      pop\n        /* \"#utility.yul\":8656:9781   */\n      swap3\n      swap6\n      swap2\n      swap5\n      pop\n      swap3\n      pop\n      jump\t// out\n        /* \"#utility.yul\":9787:9924   */\n    tag_200:\n        /* \"#utility.yul\":9877:9883   */\n      0x00\n        /* \"#utility.yul\":9911:9916   */\n      dup2\n        /* \"#utility.yul\":9905:9917   */\n      mload\n        /* \"#utility.yul\":9895:9917   */\n      swap1\n      pop\n        /* \"#utility.yul\":9787:9924   */\n      swap2\n      swap1\n      pop\n      jump\t// out\n        /* \"#utility.yul\":9930:10137   */\n    tag_201:\n        /* \"#utility.yul\":10052:10063   */\n      0x00\n        /* \"#utility.yul\":10086:10092   */\n      dup3\n        /* \"#utility.yul\":10081:10084   */\n      dup3\n        /* \"#utility.yul\":10074:10093   */\n      mstore\n        /* \"#utility.yul\":10126:10130   */\n      0x20\n        /* \"#utility.yul\":10121:10124   */\n      dup3\n        /* \"#utility.yul\":10117:10131   */\n      add\n        /* \"#utility.yul\":10102:10131   */\n      swap1\n      pop\n        /* \"#utility.yul\":9930:10137   */\n      swap3\n      swap2\n      pop\n      pop\n      jump\t// out\n        /* \"#utility.yul\":10143:10298   */\n    tag_202:\n        /* \"#utility.yul\":10233:10237   */\n      0x00\n        /* \"#utility.yul\":10256:10259   */\n      dup2\n        /* \"#utility.yul\":10248:10259   */\n      swap1\n      pop\n        /* \"#utility.yul\":10286:10290   */\n      0x20\n        /* \"#utility.yul\":10281:10284   */\n      dup3\n        /* \"#utility.yul\":10277:10291   */\n      add\n        /* \"#utility.yul\":10269:10291   */\n      swap1\n      pop\n        /* \"#utility.yul\":10143:10298   */\n      swap2\n      swap1\n      pop\n      jump\t// out\n        /* \"#utility.yul\":10304:10412   */\n    tag_203:\n        /* \"#utility.yul\":10381:10405   */\n      tag_354\n        /* \"#utility.yul\":10399:10404   */\n      dup2\n        /* \"#utility.yul\":10381:10405   */\n      tag_175\n      jump\t// in\n    tag_354:\n        /* \"#utility.yul\":10376:10379   */\n      dup3\n        /* \"#utility.yul\":10369:10406   */\n      mstore\n        /* \"#utility.yul\":10304:10412   */\n      pop\n      pop\n      jump\t// out\n        /* \"#utility.yul\":10418:10526   */\n    tag_204:\n        /* \"#utility.yul\":10495:10519   */\n      tag_356\n        /* \"#utility.yul\":10513:10518   */\n      dup2\n        /* \"#utility.yul\":10495:10519   */\n      tag_171\n      jump\t// in\n    tag_356:\n        /* \"#utility.yul\":10490:10493   */\n      dup3\n        /* \"#utility.yul\":10483:10520   */\n      mstore\n        /* \"#utility.yul\":10418:10526   */\n      pop\n      pop\n      jump\t// out\n        /* \"#utility.yul\":10532:10665   */\n    tag_205:\n        /* \"#utility.yul\":10615:10658   */\n      tag_358\n        /* \"#utility.yul\":10652:10657   */\n      dup2\n        /* \"#utility.yul\":10615:10658   */\n      tag_180\n      jump\t// in\n    tag_358:\n        /* \"#utility.yul\":10610:10613   */\n      dup3\n        /* \"#utility.yul\":10603:10659   */\n      mstore\n        /* \"#utility.yul\":10532:10665   */\n      pop\n      pop\n      jump\t// out\n        /* \"#utility.yul\":10749:11601   */\n    tag_206:\n        /* \"#utility.yul\":10882:10886   */\n      0x80\n        /* \"#utility.yul\":10877:10880   */\n      dup3\n        /* \"#utility.yul\":10873:10887   */\n      add\n        /* \"#utility.yul\":10969:10973   */\n      0x00\n        /* \"#utility.yul\":10962:10967   */\n      dup3\n        /* \"#utility.yul\":10958:10974   */\n      add\n        /* \"#utility.yul\":10952:10975   */\n      mload\n        /* \"#utility.yul\":10988:11051   */\n      tag_360\n        /* \"#utility.yul\":11045:11049   */\n      0x00\n        /* \"#utility.yul\":11040:11043   */\n      dup6\n        /* \"#utility.yul\":11036:11050   */\n      add\n        /* \"#utility.yul\":11022:11034   */\n      dup3\n        /* \"#utility.yul\":10988:11051   */\n      tag_203\n      jump\t// in\n    tag_360:\n        /* \"#utility.yul\":10897:11061   */\n      pop\n        /* \"#utility.yul\":11141:11145   */\n      0x20\n        /* \"#utility.yul\":11134:11139   */\n      dup3\n        /* \"#utility.yul\":11130:11146   */\n      add\n        /* \"#utility.yul\":11124:11147   */\n      mload\n        /* \"#utility.yul\":11160:11223   */\n      tag_361\n        /* \"#utility.yul\":11217:11221   */\n      0x20\n        /* \"#utility.yul\":11212:11215   */\n      dup6\n        /* \"#utility.yul\":11208:11222   */\n      add\n        /* \"#utility.yul\":11194:11206   */\n      dup3\n        /* \"#utility.yul\":11160:11223   */\n      tag_203\n      jump\t// in\n    tag_361:\n        /* \"#utility.yul\":11071:11233   */\n      pop\n        /* \"#utility.yul\":11320:11324   */\n      0x40\n        /* \"#utility.yul\":11313:11318   */\n      dup3\n        /* \"#utility.yul\":11309:11325   */\n      add\n        /* \"#utility.yul\":11303:11326   */\n      mload\n        /* \"#utility.yul\":11339:11402   */\n      tag_362\n        /* \"#utility.yul\":11396:11400   */\n      0x40\n        /* \"#utility.yul\":11391:11394   */\n      dup6\n        /* \"#utility.yul\":11387:11401   */\n      add\n        /* \"#utility.yul\":11373:11385   */\n      dup3\n        /* \"#utility.yul\":11339:11402   */\n      tag_204\n      jump\t// in\n    tag_362:\n        /* \"#utility.yul\":11243:11412   */\n      pop\n        /* \"#utility.yul\":11496:11500   */\n      0x60\n        /* \"#utility.yul\":11489:11494   */\n      dup3\n        /* \"#utility.yul\":11485:11501   */\n      add\n        /* \"#utility.yul\":11479:11502   */\n      mload\n        /* \"#utility.yul\":11515:11584   */\n      tag_363\n        /* \"#utility.yul\":11578:11582   */\n      0x60\n        /* \"#utility.yul\":11573:11576   */\n      dup6\n        /* \"#utility.yul\":11569:11583   */\n      add\n        /* \"#utility.yul\":11555:11567   */\n      dup3\n        /* \"#utility.yul\":11515:11584   */\n      tag_205\n      jump\t// in\n    tag_363:\n        /* \"#utility.yul\":11422:11594   */\n      pop\n        /* \"#utility.yul\":10851:11601   */\n      pop\n        /* \"#utility.yul\":10749:11601   */\n      pop\n      pop\n      jump\t// out\n        /* \"#utility.yul\":11607:11878   */\n    tag_207:\n        /* \"#utility.yul\":11722:11732   */\n      0x00\n        /* \"#utility.yul\":11743:11835   */\n      tag_365\n        /* \"#utility.yul\":11831:11834   */\n      dup4\n        /* \"#utility.yul\":11823:11829   */\n      dup4\n        /* \"#utility.yul\":11743:11835   */\n      tag_206\n      jump\t// in\n    tag_365:\n        /* \"#utility.yul\":11867:11871   */\n      0x80\n        /* \"#utility.yul\":11862:11865   */\n      dup4\n        /* \"#utility.yul\":11858:11872   */\n      add\n        /* \"#utility.yul\":11844:11872   */\n      swap1\n      pop\n        /* \"#utility.yul\":11607:11878   */\n      swap3\n      swap2\n      pop\n      pop\n      jump\t// out\n        /* \"#utility.yul\":11884:12020   */\n    tag_208:\n        /* \"#utility.yul\":11977:11981   */\n      0x00\n        /* \"#utility.yul\":12009:12013   */\n      0x20\n        /* \"#utility.yul\":12004:12007   */\n      dup3\n        /* \"#utility.yul\":12000:12014   */\n      add\n        /* \"#utility.yul\":11992:12014   */\n      swap1\n      pop\n        /* \"#utility.yul\":11884:12020   */\n      swap2\n      swap1\n      pop\n      jump\t// out\n        /* \"#utility.yul\":12108:13024   */\n    tag_209:\n        /* \"#utility.yul\":12273:12276   */\n      0x00\n        /* \"#utility.yul\":12302:12379   */\n      tag_368\n        /* \"#utility.yul\":12373:12378   */\n      dup3\n        /* \"#utility.yul\":12302:12379   */\n      tag_200\n      jump\t// in\n    tag_368:\n        /* \"#utility.yul\":12395:12504   */\n      tag_369\n        /* \"#utility.yul\":12497:12503   */\n      dup2\n        /* \"#utility.yul\":12492:12495   */\n      dup6\n        /* \"#utility.yul\":12395:12504   */\n      tag_201\n      jump\t// in\n    tag_369:\n        /* \"#utility.yul\":12388:12504   */\n      swap4\n      pop\n        /* \"#utility.yul\":12528:12607   */\n      tag_370\n        /* \"#utility.yul\":12601:12606   */\n      dup4\n        /* \"#utility.yul\":12528:12607   */\n      tag_202\n      jump\t// in\n    tag_370:\n        /* \"#utility.yul\":12630:12637   */\n      dup1\n        /* \"#utility.yul\":12661:12662   */\n      0x00\n        /* \"#utility.yul\":12646:12999   */\n    tag_371:\n        /* \"#utility.yul\":12671:12677   */\n      dup4\n        /* \"#utility.yul\":12668:12669   */\n      dup2\n        /* \"#utility.yul\":12665:12678   */\n      lt\n        /* \"#utility.yul\":12646:12999   */\n      iszero\n      tag_373\n      jumpi\n        /* \"#utility.yul\":12747:12753   */\n      dup2\n        /* \"#utility.yul\":12741:12754   */\n      mload\n        /* \"#utility.yul\":12774:12883   */\n      tag_374\n        /* \"#utility.yul\":12879:12882   */\n      dup9\n        /* \"#utility.yul\":12864:12877   */\n      dup3\n        /* \"#utility.yul\":12774:12883   */\n      tag_207\n      jump\t// in\n    tag_374:\n        /* \"#utility.yul\":12767:12883   */\n      swap8\n      pop\n        /* \"#utility.yul\":12906:12989   */\n      tag_375\n        /* \"#utility.yul\":12982:12988   */\n      dup4\n        /* \"#utility.yul\":12906:12989   */\n      tag_208\n      jump\t// in\n    tag_375:\n        /* \"#utility.yul\":12896:12989   */\n      swap3\n      pop\n        /* \"#utility.yul\":12706:12999   */\n      pop\n        /* \"#utility.yul\":12693:12694   */\n      0x01\n        /* \"#utility.yul\":12690:12691   */\n      dup2\n        /* \"#utility.yul\":12686:12695   */\n      add\n        /* \"#utility.yul\":12681:12695   */\n      swap1\n      pop\n        /* \"#utility.yul\":12646:12999   */\n      jump(tag_371)\n    tag_373:\n        /* \"#utility.yul\":12650:12664   */\n      pop\n        /* \"#utility.yul\":13015:13018   */\n      dup6\n        /* \"#utility.yul\":13008:13018   */\n      swap4\n      pop\n        /* \"#utility.yul\":12278:13024   */\n      pop\n      pop\n      pop\n        /* \"#utility.yul\":12108:13024   */\n      swap3\n      swap2\n      pop\n      pop\n      jump\t// out\n        /* \"#utility.yul\":13030:13495   */\n    tag_56:\n        /* \"#utility.yul\":13219:13223   */\n      0x00\n        /* \"#utility.yul\":13257:13259   */\n      0x20\n        /* \"#utility.yul\":13246:13255   */\n      dup3\n        /* \"#utility.yul\":13242:13260   */\n      add\n        /* \"#utility.yul\":13234:13260   */\n      swap1\n      pop\n        /* \"#utility.yul\":13306:13315   */\n      dup2\n        /* \"#utility.yul\":13300:13304   */\n      dup2\n        /* \"#utility.yul\":13296:13316   */\n      sub\n        /* \"#utility.yul\":13292:13293   */\n      0x00\n        /* \"#utility.yul\":13281:13290   */\n      dup4\n        /* \"#utility.yul\":13277:13294   */\n      add\n        /* \"#utility.yul\":13270:13317   */\n      mstore\n        /* \"#utility.yul\":13334:13488   */\n      tag_377\n        /* \"#utility.yul\":13483:13487   */\n      dup2\n        /* \"#utility.yul\":13474:13480   */\n      dup5\n        /* \"#utility.yul\":13334:13488   */\n      tag_209\n      jump\t// in\n    tag_377:\n        /* \"#utility.yul\":13326:13488   */\n      swap1\n      pop\n        /* \"#utility.yul\":13030:13495   */\n      swap3\n      swap2\n      pop\n      pop\n      jump\t// out\n        /* \"#utility.yul\":13501:13975   */\n    tag_63:\n        /* \"#utility.yul\":13569:13575   */\n      0x00\n        /* \"#utility.yul\":13577:13583   */\n      0x00\n        /* \"#utility.yul\":13626:13628   */\n      0x40\n        /* \"#utility.yul\":13614:13623   */\n      dup4\n        /* \"#utility.yul\":13605:13612   */\n      dup6\n        /* \"#utility.yul\":13601:13624   */\n      sub\n        /* \"#utility.yul\":13597:13629   */\n      slt\n        /* \"#utility.yul\":13594:13713   */\n      iszero\n      tag_379\n      jumpi\n        /* \"#utility.yul\":13632:13711   */\n      tag_380\n      tag_169\n      jump\t// in\n    tag_380:\n        /* \"#utility.yul\":13594:13713   */\n    tag_379:\n        /* \"#utility.yul\":13752:13753   */\n      0x00\n        /* \"#utility.yul\":13777:13830   */\n      tag_381\n        /* \"#utility.yul\":13822:13829   */\n      dup6\n        /* \"#utility.yul\":13813:13819   */\n      dup3\n        /* \"#utility.yul\":13802:13811   */\n      dup7\n        /* \"#utility.yul\":13798:13820   */\n      add\n        /* \"#utility.yul\":13777:13830   */\n      tag_173\n      jump\t// in\n    tag_381:\n        /* \"#utility.yul\":13767:13830   */\n      swap3\n      pop\n        /* \"#utility.yul\":13723:13840   */\n      pop\n        /* \"#utility.yul\":13879:13881   */\n      0x20\n        /* \"#utility.yul\":13905:13958   */\n      tag_382\n        /* \"#utility.yul\":13950:13957   */\n      dup6\n        /* \"#utility.yul\":13941:13947   */\n      dup3\n        /* \"#utility.yul\":13930:13939   */\n      dup7\n        /* \"#utility.yul\":13926:13948   */\n      add\n        /* \"#utility.yul\":13905:13958   */\n      tag_183\n      jump\t// in\n    tag_382:\n        /* \"#utility.yul\":13895:13958   */\n      swap2\n      pop\n        /* \"#utility.yul\":13850:13968   */\n      pop\n        /* \"#utility.yul\":13501:13975   */\n      swap3\n      pop\n      swap3\n      swap1\n      pop\n      jump\t// out\n        /* \"#utility.yul\":13981:14149   */\n    tag_210:\n        /* \"#utility.yul\":14121:14141   */\n      0x4e6f7420636f6e7472616374206f776e65720000000000000000000000000000\n        /* \"#utility.yul\":14117:14118   */\n      0x00\n        /* \"#utility.yul\":14109:14115   */\n      dup3\n        /* \"#utility.yul\":14105:14119   */\n      add\n        /* \"#utility.yul\":14098:14142   */\n      mstore\n        /* \"#utility.yul\":13981:14149   */\n      pop\n      jump\t// out\n        /* \"#utility.yul\":14155:14521   */\n    tag_211:\n        /* \"#utility.yul\":14297:14300   */\n      0x00\n        /* \"#utility.yul\":14318:14385   */\n      tag_385\n        /* \"#utility.yul\":14382:14384   */\n      0x12\n        /* \"#utility.yul\":14377:14380   */\n      dup4\n        /* \"#utility.yul\":14318:14385   */\n      tag_187\n      jump\t// in\n    tag_385:\n        /* \"#utility.yul\":14311:14385   */\n      swap2\n      pop\n        /* \"#utility.yul\":14394:14487   */\n      tag_386\n        /* \"#utility.yul\":14483:14486   */\n      dup3\n        /* \"#utility.yul\":14394:14487   */\n      tag_210\n      jump\t// in\n    tag_386:\n        /* \"#utility.yul\":14512:14514   */\n      0x20\n        /* \"#utility.yul\":14507:14510   */\n      dup3\n        /* \"#utility.yul\":14503:14515   */\n      add\n        /* \"#utility.yul\":14496:14515   */\n      swap1\n      pop\n        /* \"#utility.yul\":14155:14521   */\n      swap2\n      swap1\n      pop\n      jump\t// out\n        /* \"#utility.yul\":14527:14946   */\n    tag_73:\n        /* \"#utility.yul\":14693:14697   */\n      0x00\n        /* \"#utility.yul\":14731:14733   */\n      0x20\n        /* \"#utility.yul\":14720:14729   */\n      dup3\n        /* \"#utility.yul\":14716:14734   */\n      add\n        /* \"#utility.yul\":14708:14734   */\n      swap1\n      pop\n        /* \"#utility.yul\":14780:14789   */\n      dup2\n        /* \"#utility.yul\":14774:14778   */\n      dup2\n        /* \"#utility.yul\":14770:14790   */\n      sub\n        /* \"#utility.yul\":14766:14767   */\n      0x00\n        /* \"#utility.yul\":14755:14764   */\n      dup4\n        /* \"#utility.yul\":14751:14768   */\n      add\n        /* \"#utility.yul\":14744:14791   */\n      mstore\n        /* \"#utility.yul\":14808:14939   */\n      tag_388\n        /* \"#utility.yul\":14934:14938   */\n      dup2\n        /* \"#utility.yul\":14808:14939   */\n      tag_211\n      jump\t// in\n    tag_388:\n        /* \"#utility.yul\":14800:14939   */\n      swap1\n      pop\n        /* \"#utility.yul\":14527:14946   */\n      swap2\n      swap1\n      pop\n      jump\t// out\n        /* \"#utility.yul\":14952:15132   */\n    tag_212:\n        /* \"#utility.yul\":15000:15077   */\n      0x4e487b7100000000000000000000000000000000000000000000000000000000\n        /* \"#utility.yul\":14997:14998   */\n      0x00\n        /* \"#utility.yul\":14990:15078   */\n      mstore\n        /* \"#utility.yul\":15097:15101   */\n      0x22\n        /* \"#utility.yul\":15094:15095   */\n      0x04\n        /* \"#utility.yul\":15087:15102   */\n      mstore\n        /* \"#utility.yul\":15121:15125   */\n      0x24\n        /* \"#utility.yul\":15118:15119   */\n      0x00\n        /* \"#utility.yul\":15111:15126   */\n      revert\n        /* \"#utility.yul\":15138:15458   */\n    tag_76:\n        /* \"#utility.yul\":15182:15188   */\n      0x00\n        /* \"#utility.yul\":15219:15220   */\n      0x02\n        /* \"#utility.yul\":15213:15217   */\n      dup3\n        /* \"#utility.yul\":15209:15221   */\n      div\n        /* \"#utility.yul\":15199:15221   */\n      swap1\n      pop\n        /* \"#utility.yul\":15266:15267   */\n      0x01\n        /* \"#utility.yul\":15260:15264   */\n      dup3\n        /* \"#utility.yul\":15256:15268   */\n      and\n        /* \"#utility.yul\":15287:15305   */\n      dup1\n        /* \"#utility.yul\":15277:15358   */\n      tag_391\n      jumpi\n        /* \"#utility.yul\":15343:15347   */\n      0x7f\n        /* \"#utility.yul\":15335:15341   */\n      dup3\n        /* \"#utility.yul\":15331:15348   */\n      and\n        /* \"#utility.yul\":15321:15348   */\n      swap2\n      pop\n        /* \"#utility.yul\":15277:15358   */\n    tag_391:\n        /* \"#utility.yul\":15405:15407   */\n      0x20\n        /* \"#utility.yul\":15397:15403   */\n      dup3\n        /* \"#utility.yul\":15394:15408   */\n      lt\n        /* \"#utility.yul\":15374:15392   */\n      dup2\n        /* \"#utility.yul\":15371:15409   */\n      sub\n        /* \"#utility.yul\":15368:15452   */\n      tag_392\n      jumpi\n        /* \"#utility.yul\":15424:15442   */\n      tag_393\n      tag_212\n      jump\t// in\n    tag_393:\n        /* \"#utility.yul\":15368:15452   */\n    tag_392:\n        /* \"#utility.yul\":15189:15458   */\n      pop\n        /* \"#utility.yul\":15138:15458   */\n      swap2\n      swap1\n      pop\n      jump\t// out\n        /* \"#utility.yul\":15464:15635   */\n    tag_213:\n        /* \"#utility.yul\":15604:15627   */\n      0x4e6f7420617574686f72697a6564206661726d65720000000000000000000000\n        /* \"#utility.yul\":15600:15601   */\n      0x00\n        /* \"#utility.yul\":15592:15598   */\n      dup3\n        /* \"#utility.yul\":15588:15602   */\n      add\n        /* \"#utility.yul\":15581:15628   */\n      mstore\n        /* \"#utility.yul\":15464:15635   */\n      pop\n      jump\t// out\n        /* \"#utility.yul\":15641:16007   */\n    tag_214:\n        /* \"#utility.yul\":15783:15786   */\n      0x00\n        /* \"#utility.yul\":15804:15871   */\n      tag_396\n        /* \"#utility.yul\":15868:15870   */\n      0x15\n        /* \"#utility.yul\":15863:15866   */\n      dup4\n        /* \"#utility.yul\":15804:15871   */\n      tag_187\n      jump\t// in\n    tag_396:\n        /* \"#utility.yul\":15797:15871   */\n      swap2\n      pop\n        /* \"#utility.yul\":15880:15973   */\n      tag_397\n        /* \"#utility.yul\":15969:15972   */\n      dup3\n        /* \"#utility.yul\":15880:15973   */\n      tag_213\n      jump\t// in\n    tag_397:\n        /* \"#utility.yul\":15998:16000   */\n      0x20\n        /* \"#utility.yul\":15993:15996   */\n      dup3\n        /* \"#utility.yul\":15989:16001   */\n      add\n        /* \"#utility.yul\":15982:16001   */\n      swap1\n      pop\n        /* \"#utility.yul\":15641:16007   */\n      swap2\n      swap1\n      pop\n      jump\t// out\n        /* \"#utility.yul\":16013:16432   */\n    tag_93:\n        /* \"#utility.yul\":16179:16183   */\n      0x00\n        /* \"#utility.yul\":16217:16219   */\n      0x20\n        /* \"#utility.yul\":16206:16215   */\n      dup3\n        /* \"#utility.yul\":16202:16220   */\n      add\n        /* \"#utility.yul\":16194:16220   */\n      swap1\n      pop\n        /* \"#utility.yul\":16266:16275   */\n      dup2\n        /* \"#utility.yul\":16260:16264   */\n      dup2\n        /* \"#utility.yul\":16256:16276   */\n      sub\n        /* \"#utility.yul\":16252:16253   */\n      0x00\n        /* \"#utility.yul\":16241:16250   */\n      dup4\n        /* \"#utility.yul\":16237:16254   */\n      add\n        /* \"#utility.yul\":16230:16277   */\n      mstore\n        /* \"#utility.yul\":16294:16425   */\n      tag_399\n        /* \"#utility.yul\":16420:16424   */\n      dup2\n        /* \"#utility.yul\":16294:16425   */\n      tag_214\n      jump\t// in\n    tag_399:\n        /* \"#utility.yul\":16286:16425   */\n      swap1\n      pop\n        /* \"#utility.yul\":16013:16432   */\n      swap2\n      swap1\n      pop\n      jump\t// out\n        /* \"#utility.yul\":16438:16610   */\n    tag_215:\n        /* \"#utility.yul\":16578:16602   */\n      0x50726f6475637420616c72656164792065786973747300000000000000000000\n        /* \"#utility.yul\":16574:16575   */\n      0x00\n        /* \"#utility.yul\":16566:16572   */\n      dup3\n        /* \"#utility.yul\":16562:16576   */\n      add\n        /* \"#utility.yul\":16555:16603   */\n      mstore\n        /* \"#utility.yul\":16438:16610   */\n      pop\n      jump\t// out\n        /* \"#utility.yul\":16616:16982   */\n    tag_216:\n        /* \"#utility.yul\":16758:16761   */\n      0x00\n        /* \"#utility.yul\":16779:16846   */\n      tag_402\n        /* \"#utility.yul\":16843:16845   */\n      0x16\n        /* \"#utility.yul\":16838:16841   */\n      dup4\n        /* \"#utility.yul\":16779:16846   */\n      tag_187\n      jump\t// in\n    tag_402:\n        /* \"#utility.yul\":16772:16846   */\n      swap2\n      pop\n        /* \"#utility.yul\":16855:16948   */\n      tag_403\n        /* \"#utility.yul\":16944:16947   */\n      dup3\n        /* \"#utility.yul\":16855:16948   */\n      tag_215\n      jump\t// in\n    tag_403:\n        /* \"#utility.yul\":16973:16975   */\n      0x20\n        /* \"#utility.yul\":16968:16971   */\n      dup3\n        /* \"#utility.yul\":16964:16976   */\n      add\n        /* \"#utility.yul\":16957:16976   */\n      swap1\n      pop\n        /* \"#utility.yul\":16616:16982   */\n      swap2\n      swap1\n      pop\n      jump\t// out\n        /* \"#utility.yul\":16988:17407   */\n    tag_97:\n        /* \"#utility.yul\":17154:17158   */\n      0x00\n        /* \"#utility.yul\":17192:17194   */\n      0x20\n        /* \"#utility.yul\":17181:17190   */\n      dup3\n        /* \"#utility.yul\":17177:17195   */\n      add\n        /* \"#utility.yul\":17169:17195   */\n      swap1\n      pop\n        /* \"#utility.yul\":17241:17250   */\n      dup2\n        /* \"#utility.yul\":17235:17239   */\n      dup2\n        /* \"#utility.yul\":17231:17251   */\n      sub\n        /* \"#utility.yul\":17227:17228   */\n      0x00\n        /* \"#utility.yul\":17216:17225   */\n      dup4\n        /* \"#utility.yul\":17212:17229   */\n      add\n        /* \"#utility.yul\":17205:17252   */\n      mstore\n        /* \"#utility.yul\":17269:17400   */\n      tag_405\n        /* \"#utility.yul\":17395:17399   */\n      dup2\n        /* \"#utility.yul\":17269:17400   */\n      tag_216\n      jump\t// in\n    tag_405:\n        /* \"#utility.yul\":17261:17400   */\n      swap1\n      pop\n        /* \"#utility.yul\":16988:17407   */\n      swap2\n      swap1\n      pop\n      jump\t// out\n        /* \"#utility.yul\":17413:17554   */\n    tag_217:\n        /* \"#utility.yul\":17462:17466   */\n      0x00\n        /* \"#utility.yul\":17485:17488   */\n      dup2\n        /* \"#utility.yul\":17477:17488   */\n      swap1\n      pop\n        /* \"#utility.yul\":17508:17511   */\n      dup2\n        /* \"#utility.yul\":17505:17506   */\n      0x00\n        /* \"#utility.yul\":17498:17512   */\n      mstore\n        /* \"#utility.yul\":17542:17546   */\n      0x20\n        /* \"#utility.yul\":17539:17540   */\n      0x00\n        /* \"#utility.yul\":17529:17547   */\n      keccak256\n        /* \"#utility.yul\":17521:17547   */\n      swap1\n      pop\n        /* \"#utility.yul\":17413:17554   */\n      swap2\n      swap1\n      pop\n      jump\t// out\n        /* \"#utility.yul\":17560:17653   */\n    tag_218:\n        /* \"#utility.yul\":17597:17603   */\n      0x00\n        /* \"#utility.yul\":17644:17646   */\n      0x20\n        /* \"#utility.yul\":17639:17641   */\n      0x1f\n        /* \"#utility.yul\":17632:17637   */\n      dup4\n        /* \"#utility.yul\":17628:17642   */\n      add\n        /* \"#utility.yul\":17624:17647   */\n      div\n        /* \"#utility.yul\":17614:17647   */\n      swap1\n      pop\n        /* \"#utility.yul\":17560:17653   */\n      swap2\n      swap1\n      pop\n      jump\t// out\n        /* \"#utility.yul\":17659:17766   */\n    tag_219:\n        /* \"#utility.yul\":17703:17711   */\n      0x00\n        /* \"#utility.yul\":17753:17758   */\n      dup3\n        /* \"#utility.yul\":17747:17751   */\n      dup3\n        /* \"#utility.yul\":17743:17759   */\n      shl\n        /* \"#utility.yul\":17722:17759   */\n      swap1\n      pop\n        /* \"#utility.yul\":17659:17766   */\n      swap3\n      swap2\n      pop\n      pop\n      jump\t// out\n        /* \"#utility.yul\":17772:18165   */\n    tag_220:\n        /* \"#utility.yul\":17841:17847   */\n      0x00\n        /* \"#utility.yul\":17891:17892   */\n      0x08\n        /* \"#utility.yul\":17879:17889   */\n      dup4\n        /* \"#utility.yul\":17875:17893   */\n      mul\n        /* \"#utility.yul\":17914:18011   */\n      tag_410\n        /* \"#utility.yul\":17944:18010   */\n      0xffffffffffffffffffffffffffffffffffffffffffffffffffffffffffffffff\n        /* \"#utility.yul\":17933:17942   */\n      dup3\n        /* \"#utility.yul\":17914:18011   */\n      tag_219\n      jump\t// in\n    tag_410:\n        /* \"#utility.yul\":18032:18071   */\n      tag_411\n        /* \"#utility.yul\":18062:18070   */\n      dup7\n        /* \"#utility.yul\":18051:18060   */\n      dup4\n        /* \"#utility.yul\":18032:18071   */\n      tag_219\n      jump\t// in\n    tag_411:\n        /* \"#utility.yul\":18020:18071   */\n      swap6\n      pop\n        /* \"#utility.yul\":18104:18108   */\n      dup1\n        /* \"#utility.yul\":18100:18109   */\n      not\n        /* \"#utility.yul\":18093:18098   */\n      dup5\n        /* \"#utility.yul\":18089:18110   */\n      and\n        /* \"#utility.yul\":18080:18110   */\n      swap4\n      pop\n        /* \"#utility.yul\":18153:18157   */\n      dup1\n        /* \"#utility.yul\":18143:18151   */\n      dup7\n        /* \"#utility.yul\":18139:18158   */\n      and\n        /* \"#utility.yul\":18132:18137   */\n      dup5\n        /* \"#utility.yul\":18129:18159   */\n      or\n        /* \"#utility.yul\":18119:18159   */\n      swap3\n      pop\n        /* \"#utility.yul\":17848:18165   */\n      pop\n      pop\n        /* \"#utility.yul\":17772:18165   */\n      swap4\n      swap3\n      pop\n      pop\n      pop\n      jump\t// out\n        /* \"#utility.yul\":18171:18231   */\n    tag_221:\n        /* \"#utility.yul\":18199:18202   */\n      0x00\n        /* \"#utility.yul\":18220:18225   */\n      dup2\n        /* \"#utility.yul\":18213:18225   */\n      swap1\n      pop\n        /* \"#utility.yul\":18171:18231   */\n      swap2\n      swap1\n      pop\n      jump\t// out\n        /* \"#utility.yul\":18237:18379   */\n    tag_222:\n        /* \"#utility.yul\":18287:18296   */\n      0x00\n        /* \"#utility.yul\":18320:18373   */\n      tag_414\n        /* \"#utility.yul\":18338:18372   */\n      tag_415\n        /* \"#utility.yul\":18347:18371   */\n      tag_416\n        /* \"#utility.yul\":18365:18370   */\n      dup5\n        /* \"#utility.yul\":18347:18371   */\n      tag_171\n      jump\t// in\n    tag_416:\n        /* \"#utility.yul\":18338:18372   */\n      tag_221\n      jump\t// in\n    tag_415:\n        /* \"#utility.yul\":18320:18373   */\n      tag_171\n      jump\t// in\n    tag_414:\n        /* \"#utility.yul\":18307:18373   */\n      swap1\n      pop\n        /* \"#utility.yul\":18237:18379   */\n      swap2\n      swap1\n      pop\n      jump\t// out\n        /* \"#utility.yul\":18385:18460   */\n    tag_223:\n        /* \"#utility.yul\":18428:18431   */\n      0x00\n        /* \"#utility.yul\":18449:18454   */\n      dup2\n        /* \"#utility.yul\":18442:18454   */\n      swap1\n      pop\n        /* \"#utility.yul\":18385:18460   */\n      swap2\n      swap1\n      pop\n      jump\t// out\n        /* \"#utility.yul\":18466:18735   */\n    tag_224:\n        /* \"#utility.yul\":18576:18615   */\n      tag_419\n        /* \"#utility.yul\":18607:18614   */\n      dup4\n        /* \"#utility.yul\":18576:18615   */\n      tag_222\n      jump\t// in\n    tag_419:\n        /* \"#utility.yul\":18637:18728   */\n      tag_420\n        /* \"#utility.yul\":18686:18727   */\n      tag_421\n        /* \"#utility.yul\":18710:18726   */\n      dup3\n        /* \"#utility.yul\":18686:18727   */\n      tag_223\n      jump\t// in\n    tag_421:\n        /* \"#utility.yul\":18678:18684   */\n      dup5\n        /* \"#utility.yul\":18671:18675   */\n      dup5\n        /* \"#utility.yul\":18665:18676   */\n      sload\n        /* \"#utility.yul\":18637:18728   */\n      tag_220\n      jump\t// in\n    tag_420:\n        /* \"#utility.yul\":18631:18635   */\n      dup3\n        /* \"#utility.yul\":18624:18729   */\n      sstore\n        /* \"#utility.yul\":18542:18735   */\n      pop\n        /* \"#utility.yul\":18466:18735   */\n      pop\n      pop\n      pop\n      jump\t// out\n        /* \"#utility.yul\":18741:18814   */\n    tag_225:\n        /* \"#utility.yul\":18786:18789   */\n      0x00\n        /* \"#utility.yul\":18807:18808   */\n      0x00\n        /* \"#utility.yul\":18800:18808   */\n      swap1\n      pop\n        /* \"#utility.yul\":18741:18814   */\n      swap1\n      jump\t// out\n        /* \"#utility.yul\":18820:19009   */\n    tag_226:\n        /* \"#utility.yul\":18897:18929   */\n      tag_424\n      tag_225\n      jump\t// in\n    tag_424:\n        /* \"#utility.yul\":18938:19003   */\n      tag_425\n        /* \"#utility.yul\":18996:19002   */\n      dup2\n        /* \"#utility.yul\":18988:18994   */\n      dup5\n        /* \"#utility.yul\":18982:18986   */\n      dup5\n        /* \"#utility.yul\":18938:19003   */\n      tag_224\n      jump\t// in\n    tag_425:\n        /* \"#utility.yul\":18873:19009   */\n      pop\n        /* \"#utility.yul\":18820:19009   */\n      pop\n      pop\n      jump\t// out\n        /* \"#utility.yul\":19015:19201   */\n    tag_227:\n        /* \"#utility.yul\":19075:19195   */\n    tag_427:\n        /* \"#utility.yul\":19092:19095   */\n      dup2\n        /* \"#utility.yul\":19085:19090   */\n      dup2\n        /* \"#utility.yul\":19082:19096   */\n      lt\n        /* \"#utility.yul\":19075:19195   */\n      iszero\n      tag_429\n      jumpi\n        /* \"#utility.yul\":19146:19185   */\n      tag_430\n        /* \"#utility.yul\":19183:19184   */\n      0x00\n        /* \"#utility.yul\":19176:19181   */\n      dup3\n        /* \"#utility.yul\":19146:19185   */\n      tag_226\n      jump\t// in\n    tag_430:\n        /* \"#utility.yul\":19119:19120   */\n      0x01\n        /* \"#utility.yul\":19112:19117   */\n      dup2\n        /* \"#utility.yul\":19108:19121   */\n      add\n        /* \"#utility.yul\":19099:19121   */\n      swap1\n      pop\n        /* \"#utility.yul\":19075:19195   */\n      jump(tag_427)\n    tag_429:\n        /* \"#utility.yul\":19015:19201   */\n      pop\n      pop\n      jump\t// out\n        /* \"#utility.yul\":19207:19750   */\n    tag_228:\n        /* \"#utility.yul\":19308:19310   */\n      0x1f\n        /* \"#utility.yul\":19303:19306   */\n      dup3\n        /* \"#utility.yul\":19300:19311   */\n      gt\n        /* \"#utility.yul\":19297:19743   */\n      iszero\n      tag_432\n      jumpi\n        /* \"#utility.yul\":19342:19380   */\n      tag_433\n        /* \"#utility.yul\":19374:19379   */\n      dup2\n        /* \"#utility.yul\":19342:19380   */\n      tag_217\n      jump\t// in\n    tag_433:\n        /* \"#utility.yul\":19426:19455   */\n      tag_434\n        /* \"#utility.yul\":19444:19454   */\n      dup5\n        /* \"#utility.yul\":19426:19455   */\n      tag_218\n      jump\t// in\n    tag_434:\n        /* \"#utility.yul\":19416:19424   */\n      dup2\n        /* \"#utility.yul\":19412:19456   */\n      add\n        /* \"#utility.yul\":19609:19611   */\n      0x20\n        /* \"#utility.yul\":19597:19607   */\n      dup6\n        /* \"#utility.yul\":19594:19612   */\n      lt\n        /* \"#utility.yul\":19591:19640   */\n      iszero\n      tag_435\n      jumpi\n        /* \"#utility.yul\":19630:19638   */\n      dup2\n        /* \"#utility.yul\":19615:19638   */\n      swap1\n      pop\n        /* \"#utility.yul\":19591:19640   */\n    tag_435:\n        /* \"#utility.yul\":19653:19733   */\n      tag_436\n        /* \"#utility.yul\":19709:19731   */\n      tag_437\n        /* \"#utility.yul\":19727:19730   */\n      dup6\n        /* \"#utility.yul\":19709:19731   */\n      tag_218\n      jump\t// in\n    tag_437:\n        /* \"#utility.yul\":19699:19707   */\n      dup4\n        /* \"#utility.yul\":19695:19732   */\n      add\n        /* \"#utility.yul\":19682:19693   */\n      dup3\n        /* \"#utility.yul\":19653:19733   */\n      tag_227\n      jump\t// in\n    tag_436:\n        /* \"#utility.yul\":19312:19743   */\n      pop\n      pop\n        /* \"#utility.yul\":19297:19743   */\n    tag_432:\n        /* \"#utility.yul\":19207:19750   */\n      pop\n      pop\n      pop\n      jump\t// out\n        /* \"#utility.yul\":19756:19873   */\n    tag_229:\n        /* \"#utility.yul\":19810:19818   */\n      0x00\n        /* \"#utility.yul\":19860:19865   */\n      dup3\n        /* \"#utility.yul\":19854:19858   */\n      dup3\n        /* \"#utility.yul\":19850:19866   */\n      shr\n        /* \"#utility.yul\":19829:19866   */\n      swap1\n      pop\n        /* \"#utility.yul\":19756:19873   */\n      swap3\n      swap2\n      pop\n      pop\n      jump\t// out\n        /* \"#utility.yul\":19879:20048   */\n    tag_230:\n        /* \"#utility.yul\":19923:19929   */\n      0x00\n        /* \"#utility.yul\":19956:20007   */\n      tag_440\n        /* \"#utility.yul\":20004:20005   */\n      0x00\n        /* \"#utility.yul\":20000:20006   */\n      not\n        /* \"#utility.yul\":19992:19997   */\n      dup5\n        /* \"#utility.yul\":19989:19990   */\n      0x08\n        /* \"#utility.yul\":19985:19998   */\n      mul\n        /* \"#utility.yul\":19956:20007   */\n      tag_229\n      jump\t// in\n    tag_440:\n        /* \"#utility.yul\":19952:20008   */\n      not\n        /* \"#utility.yul\":20037:20041   */\n      dup1\n        /* \"#utility.yul\":20031:20035   */\n      dup4\n        /* \"#utility.yul\":20027:20042   */\n      and\n        /* \"#utility.yul\":20017:20042   */\n      swap2\n      pop\n        /* \"#utility.yul\":19930:20048   */\n      pop\n        /* \"#utility.yul\":19879:20048   */\n      swap3\n      swap2\n      pop\n      pop\n      jump\t// out\n        /* \"#utility.yul\":20053:20348   */\n    tag_231:\n        /* \"#utility.yul\":20129:20133   */\n      0x00\n        /* \"#utility.yul\":20275:20304   */\n      tag_442\n        /* \"#utility.yul\":20300:20303   */\n      dup4\n        /* \"#utility.yul\":20294:20298   */\n      dup4\n        /* \"#utility.yul\":20275:20304   */\n      tag_230\n      jump\t// in\n    tag_442:\n        /* \"#utility.yul\":20267:20304   */\n      swap2\n      pop\n        /* \"#utility.yul\":20337:20340   */\n      dup3\n        /* \"#utility.yul\":20334:20335   */\n      0x02\n        /* \"#utility.yul\":20330:20341   */\n      mul\n        /* \"#utility.yul\":20324:20328   */\n      dup3\n        /* \"#utility.yul\":20321:20342   */\n      or\n        /* \"#utility.yul\":20313:20342   */\n      swap1\n      pop\n        /* \"#utility.yul\":20053:20348   */\n      swap3\n      swap2\n      pop\n      pop\n      jump\t// out\n        /* \"#utility.yul\":20353:21748   */\n    tag_102:\n        /* \"#utility.yul\":20470:20507   */\n      tag_444\n        /* \"#utility.yul\":20503:20506   */\n      dup3\n        /* \"#utility.yul\":20470:20507   */\n      tag_186\n      jump\t// in\n    tag_444:\n        /* \"#utility.yul\":20572:20590   */\n      0xffffffffffffffff\n        /* \"#utility.yul\":20564:20570   */\n      dup2\n        /* \"#utility.yul\":20561:20591   */\n      gt\n        /* \"#utility.yul\":20558:20614   */\n      iszero\n      tag_445\n      jumpi\n        /* \"#utility.yul\":20594:20612   */\n      tag_446\n      tag_193\n      jump\t// in\n    tag_446:\n        /* \"#utility.yul\":20558:20614   */\n    tag_445:\n        /* \"#utility.yul\":20638:20676   */\n      tag_447\n        /* \"#utility.yul\":20670:20674   */\n      dup3\n        /* \"#utility.yul\":20664:20675   */\n      sload\n        /* \"#utility.yul\":20638:20676   */\n      tag_76\n      jump\t// in\n    tag_447:\n        /* \"#utility.yul\":20723:20790   */\n      tag_448\n        /* \"#utility.yul\":20783:20789   */\n      dup3\n        /* \"#utility.yul\":20775:20781   */\n      dup3\n        /* \"#utility.yul\":20769:20773   */\n      dup6\n        /* \"#utility.yul\":20723:20790   */\n      tag_228\n      jump\t// in\n    tag_448:\n        /* \"#utility.yul\":20817:20818   */\n      0x00\n        /* \"#utility.yul\":20841:20845   */\n      0x20\n        /* \"#utility.yul\":20828:20845   */\n      swap1\n      pop\n        /* \"#utility.yul\":20873:20875   */\n      0x1f\n        /* \"#utility.yul\":20865:20871   */\n      dup4\n        /* \"#utility.yul\":20862:20876   */\n      gt\n        /* \"#utility.yul\":20890:20891   */\n      0x01\n        /* \"#utility.yul\":20885:21503   */\n      dup2\n      eq\n      tag_450\n      jumpi\n        /* \"#utility.yul\":21547:21548   */\n      0x00\n        /* \"#utility.yul\":21564:21570   */\n      dup5\n        /* \"#utility.yul\":21561:21638   */\n      iszero\n      tag_451\n      jumpi\n        /* \"#utility.yul\":21613:21622   */\n      dup3\n        /* \"#utility.yul\":21608:21611   */\n      dup8\n        /* \"#utility.yul\":21604:21623   */\n      add\n        /* \"#utility.yul\":21598:21624   */\n      mload\n        /* \"#utility.yul\":21589:21624   */\n      swap1\n      pop\n        /* \"#utility.yul\":21561:21638   */\n    tag_451:\n        /* \"#utility.yul\":21664:21731   */\n      tag_452\n        /* \"#utility.yul\":21724:21730   */\n      dup6\n        /* \"#utility.yul\":21717:21722   */\n      dup3\n        /* \"#utility.yul\":21664:21731   */\n      tag_231\n      jump\t// in\n    tag_452:\n        /* \"#utility.yul\":21658:21662   */\n      dup7\n        /* \"#utility.yul\":21651:21732   */\n      sstore\n        /* \"#utility.yul\":21520:21742   */\n      pop\n        /* \"#utility.yul\":20855:21742   */\n      jump(tag_449)\n        /* \"#utility.yul\":20885:21503   */\n    tag_450:\n        /* \"#utility.yul\":20937:20941   */\n      0x1f\n        /* \"#utility.yul\":20933:20942   */\n      not\n        /* \"#utility.yul\":20925:20931   */\n      dup5\n        /* \"#utility.yul\":20921:20943   */\n      and\n        /* \"#utility.yul\":20971:21008   */\n      tag_453\n        /* \"#utility.yul\":21003:21007   */\n      dup7\n        /* \"#utility.yul\":20971:21008   */\n      tag_217\n      jump\t// in\n    tag_453:\n        /* \"#utility.yul\":21030:21031   */\n      0x00\n        /* \"#utility.yul\":21044:21252   */\n    tag_454:\n        /* \"#utility.yul\":21058:21065   */\n      dup3\n        /* \"#utility.yul\":21055:21056   */\n      dup2\n        /* \"#utility.yul\":21052:21066   */\n      lt\n        /* \"#utility.yul\":21044:21252   */\n      iszero\n      tag_456\n      jumpi\n        /* \"#utility.yul\":21137:21146   */\n      dup5\n        /* \"#utility.yul\":21132:21135   */\n      dup10\n        /* \"#utility.yul\":21128:21147   */\n      add\n        /* \"#utility.yul\":21122:21148   */\n      mload\n        /* \"#utility.yul\":21114:21120   */\n      dup3\n        /* \"#utility.yul\":21107:21149   */\n      sstore\n        /* \"#utility.yul\":21188:21189   */\n      0x01\n        /* \"#utility.yul\":21180:21186   */\n      dup3\n        /* \"#utility.yul\":21176:21190   */\n      add\n        /* \"#utility.yul\":21166:21190   */\n      swap2\n      pop\n        /* \"#utility.yul\":21235:21237   */\n      0x20\n        /* \"#utility.yul\":21224:21233   */\n      dup6\n        /* \"#utility.yul\":21220:21238   */\n      add\n        /* \"#utility.yul\":21207:21238   */\n      swap5\n      pop\n        /* \"#utility.yul\":21081:21085   */\n      0x20\n        /* \"#utility.yul\":21078:21079   */\n      dup2\n        /* \"#utility.yul\":21074:21086   */\n      add\n        /* \"#utility.yul\":21069:21086   */\n      swap1\n      pop\n        /* \"#utility.yul\":21044:21252   */\n      jump(tag_454)\n    tag_456:\n        /* \"#utility.yul\":21280:21286   */\n      dup7\n        /* \"#utility.yul\":21271:21278   */\n      dup4\n        /* \"#utility.yul\":21268:21287   */\n      lt\n        /* \"#utility.yul\":21265:21444   */\n      iszero\n      tag_457\n      jumpi\n        /* \"#utility.yul\":21338:21347   */\n      dup5\n        /* \"#utility.yul\":21333:21336   */\n      dup10\n        /* \"#utility.yul\":21329:21348   */\n      add\n        /* \"#utility.yul\":21323:21349   */\n      mload\n        /* \"#utility.yul\":21381:21429   */\n      tag_458\n        /* \"#utility.yul\":21423:21427   */\n      0x1f\n        /* \"#utility.yul\":21415:21421   */\n      dup10\n        /* \"#utility.yul\":21411:21428   */\n      and\n        /* \"#utility.yul\":21400:21409   */\n      dup3\n        /* \"#utility.yul\":21381:21429   */\n      tag_230\n      jump\t// in\n    tag_458:\n        /* \"#utility.yul\":21373:21379   */\n      dup4\n        /* \"#utility.yul\":21366:21430   */\n      sstore\n        /* \"#utility.yul\":21288:21444   */\n      pop\n        /* \"#utility.yul\":21265:21444   */\n    tag_457:\n        /* \"#utility.yul\":21490:21491   */\n      0x01\n        /* \"#utility.yul\":21486:21487   */\n      0x02\n        /* \"#utility.yul\":21478:21484   */\n      dup9\n        /* \"#utility.yul\":21474:21488   */\n      mul\n        /* \"#utility.yul\":21470:21492   */\n      add\n        /* \"#utility.yul\":21464:21468   */\n      dup9\n        /* \"#utility.yul\":21457:21493   */\n      sstore\n        /* \"#utility.yul\":20892:21503   */\n      pop\n      pop\n      pop\n        /* \"#utility.yul\":20855:21742   */\n    tag_449:\n      pop\n        /* \"#utility.yul\":20445:21748   */\n      pop\n      pop\n      pop\n        /* \"#utility.yul\":20353:21748   */\n      pop\n      pop\n      jump\t// out\n        /* \"#utility.yul\":21754:21921   */\n    tag_232:\n        /* \"#utility.yul\":21894:21913   */\n      0x50726f64756374206e6f7420666f756e64000000000000000000000000000000\n        /* \"#utility.yul\":21890:21891   */\n      0x00\n        /* \"#utility.yul\":21882:21888   */\n      dup3\n        /* \"#utility.yul\":21878:21892   */\n      add\n        /* \"#utility.yul\":21871:21914   */\n      mstore\n        /* \"#utility.yul\":21754:21921   */\n      pop\n      jump\t// out\n        /* \"#utility.yul\":21927:22293   */\n    tag_233:\n        /* \"#utility.yul\":22069:22072   */\n      0x00\n        /* \"#utility.yul\":22090:22157   */\n      tag_461\n        /* \"#utility.yul\":22154:22156   */\n      0x11\n        /* \"#utility.yul\":22149:22152   */\n      dup4\n        /* \"#utility.yul\":22090:22157   */\n      tag_187\n      jump\t// in\n    tag_461:\n        /* \"#utility.yul\":22083:22157   */\n      swap2\n      pop\n        /* \"#utility.yul\":22166:22259   */\n      tag_462\n        /* \"#utility.yul\":22255:22258   */\n      dup3\n        /* \"#utility.yul\":22166:22259   */\n      tag_232\n      jump\t// in\n    tag_462:\n        /* \"#utility.yul\":22284:22286   */\n      0x20\n        /* \"#utility.yul\":22279:22282   */\n      dup3\n        /* \"#utility.yul\":22275:22287   */\n      add\n        /* \"#utility.yul\":22268:22287   */\n      swap1\n      pop\n        /* \"#utility.yul\":21927:22293   */\n      swap2\n      swap1\n      pop\n      jump\t// out\n        /* \"#utility.yul\":22299:22718   */\n    tag_140:\n        /* \"#utility.yul\":22465:22469   */\n      0x00\n        /* \"#utility.yul\":22503:22505   */\n      0x20\n        /* \"#utility.yul\":22492:22501   */\n      dup3\n        /* \"#utility.yul\":22488:22506   */\n      add\n        /* \"#utility.yul\":22480:22506   */\n      swap1\n      pop\n        /* \"#utility.yul\":22552:22561   */\n      dup2\n        /* \"#utility.yul\":22546:22550   */\n      dup2\n        /* \"#utility.yul\":22542:22562   */\n      sub\n        /* \"#utility.yul\":22538:22539   */\n      0x00\n        /* \"#utility.yul\":22527:22536   */\n      dup4\n        /* \"#utility.yul\":22523:22540   */\n      add\n        /* \"#utility.yul\":22516:22563   */\n      mstore\n        /* \"#utility.yul\":22580:22711   */\n      tag_464\n        /* \"#utility.yul\":22706:22710   */\n      dup2\n        /* \"#utility.yul\":22580:22711   */\n      tag_233\n      jump\t// in\n    tag_464:\n        /* \"#utility.yul\":22572:22711   */\n      swap1\n      pop\n        /* \"#utility.yul\":22299:22718   */\n      swap2\n      swap1\n      pop\n      jump\t// out\n        /* \"#utility.yul\":22724:22893   */\n    tag_234:\n        /* \"#utility.yul\":22864:22885   */\n      0x496e76616c6964206469737472696275746f7200000000000000000000000000\n        /* \"#utility.yul\":22860:22861   */\n      0x00\n        /* \"#utility.yul\":22852:22858   */\n      dup3\n        /* \"#utility.yul\":22848:22862   */\n      add\n        /* \"#utility.yul\":22841:22886   */\n      mstore\n        /* \"#utility.yul\":22724:22893   */\n      pop\n      jump\t// out\n        /* \"#utility.yul\":22899:23265   */\n    tag_235:\n        /* \"#utility.yul\":23041:23044   */\n      0x00\n        /* \"#utility.yul\":23062:23129   */\n      tag_467\n        /* \"#utility.yul\":23126:23128   */\n      0x13\n        /* \"#utility.yul\":23121:23124   */\n      dup4\n        /* \"#utility.yul\":23062:23129   */\n      tag_187\n      jump\t// in\n    tag_467:\n        /* \"#utility.yul\":23055:23129   */\n      swap2\n      pop\n        /* \"#utility.yul\":23138:23231   */\n      tag_468\n        /* \"#utility.yul\":23227:23230   */\n      dup3\n        /* \"#utility.yul\":23138:23231   */\n      tag_234\n      jump\t// in\n    tag_468:\n        /* \"#utility.yul\":23256:23258   */\n      0x20\n        /* \"#utility.yul\":23251:23254   */\n      dup3\n        /* \"#utility.yul\":23247:23259   */\n      add\n        /* \"#utility.yul\":23240:23259   */\n      swap1\n      pop\n        /* \"#utility.yul\":22899:23265   */\n      swap2\n      swap1\n      pop\n      jump\t// out\n        /* \"#utility.yul\":23271:23690   */\n    tag_143:\n        /* \"#utility.yul\":23437:23441   */\n      0x00\n        /* \"#utility.yul\":23475:23477   */\n      0x20\n        /* \"#utility.yul\":23464:23473   */\n      dup3\n        /* \"#utility.yul\":23460:23478   */\n      add\n        /* \"#utility.yul\":23452:23478   */\n      swap1\n      pop\n        /* \"#utility.yul\":23524:23533   */\n      dup2\n        /* \"#utility.yul\":23518:23522   */\n      dup2\n        /* \"#utility.yul\":23514:23534   */\n      sub\n        /* \"#utility.yul\":23510:23511   */\n      0x00\n        /* \"#utility.yul\":23499:23508   */\n      dup4\n        /* \"#utility.yul\":23495:23512   */\n      add\n        /* \"#utility.yul\":23488:23535   */\n      mstore\n        /* \"#utility.yul\":23552:23683   */\n      tag_470\n        /* \"#utility.yul\":23678:23682   */\n      dup2\n        /* \"#utility.yul\":23552:23683   */\n      tag_235\n      jump\t// in\n    tag_470:\n        /* \"#utility.yul\":23544:23683   */\n      swap1\n      pop\n        /* \"#utility.yul\":23271:23690   */\n      swap2\n      swap1\n      pop\n      jump\t// out\n        /* \"#utility.yul\":23696:23855   */\n    tag_236:\n        /* \"#utility.yul\":23836:23847   */\n      0x4e6f74206f776e65720000000000000000000000000000000000000000000000\n        /* \"#utility.yul\":23832:23833   */\n      0x00\n        /* \"#utility.yul\":23824:23830   */\n      dup3\n        /* \"#utility.yul\":23820:23834   */\n      add\n        /* \"#utility.yul\":23813:23848   */\n      mstore\n        /* \"#utility.yul\":23696:23855   */\n      pop\n      jump\t// out\n        /* \"#utility.yul\":23861:24226   */\n    tag_237:\n        /* \"#utility.yul\":24003:24006   */\n      0x00\n        /* \"#utility.yul\":24024:24090   */\n      tag_473\n        /* \"#utility.yul\":24088:24089   */\n      0x09\n        /* \"#utility.yul\":24083:24086   */\n      dup4\n        /* \"#utility.yul\":24024:24090   */\n      tag_187\n      jump\t// in\n    tag_473:\n        /* \"#utility.yul\":24017:24090   */\n      swap2\n      pop\n        /* \"#utility.yul\":24099:24192   */\n      tag_474\n        /* \"#utility.yul\":24188:24191   */\n      dup3\n        /* \"#utility.yul\":24099:24192   */\n      tag_236\n      jump\t// in\n    tag_474:\n        /* \"#utility.yul\":24217:24219   */\n      0x20\n        /* \"#utility.yul\":24212:24215   */\n      dup3\n        /* \"#utility.yul\":24208:24220   */\n      add\n        /* \"#utility.yul\":24201:24220   */\n      swap1\n      pop\n        /* \"#utility.yul\":23861:24226   */\n      swap2\n      swap1\n      pop\n      jump\t// out\n        /* \"#utility.yul\":24232:24651   */\n    tag_146:\n        /* \"#utility.yul\":24398:24402   */\n      0x00\n        /* \"#utility.yul\":24436:24438   */\n      0x20\n        /* \"#utility.yul\":24425:24434   */\n      dup3\n        /* \"#utility.yul\":24421:24439   */\n      add\n        /* \"#utility.yul\":24413:24439   */\n      swap1\n      pop\n        /* \"#utility.yul\":24485:24494   */\n      dup2\n        /* \"#utility.yul\":24479:24483   */\n      dup2\n        /* \"#utility.yul\":24475:24495   */\n      sub\n        /* \"#utility.yul\":24471:24472   */\n      0x00\n        /* \"#utility.yul\":24460:24469   */\n      dup4\n        /* \"#utility.yul\":24456:24473   */\n      add\n        /* \"#utility.yul\":24449:24496   */\n      mstore\n        /* \"#utility.yul\":24513:24644   */\n      tag_476\n        /* \"#utility.yul\":24639:24643   */\n      dup2\n        /* \"#utility.yul\":24513:24644   */\n      tag_237\n      jump\t// in\n    tag_476:\n        /* \"#utility.yul\":24505:24644   */\n      swap1\n      pop\n        /* \"#utility.yul\":24232:24651   */\n      swap2\n      swap1\n      pop\n      jump\t// out\n        /* \"#utility.yul\":24657:24833   */\n    tag_238:\n        /* \"#utility.yul\":24797:24825   */\n      0x4e6f7420617574686f72697a6564206469737472696275746f72000000000000\n        /* \"#utility.yul\":24793:24794   */\n      0x00\n        /* \"#utility.yul\":24785:24791   */\n      dup3\n        /* \"#utility.yul\":24781:24795   */\n      add\n        /* \"#utility.yul\":24774:24826   */\n      mstore\n        /* \"#utility.yul\":24657:24833   */\n      pop\n      jump\t// out\n        /* \"#utility.yul\":24839:25205   */\n    tag_239:\n        /* \"#utility.yul\":24981:24984   */\n      0x00\n        /* \"#utility.yul\":25002:25069   */\n      tag_479\n        /* \"#utility.yul\":25066:25068   */\n      0x1a\n        /* \"#utility.yul\":25061:25064   */\n      dup4\n        /* \"#utility.yul\":25002:25069   */\n      tag_187\n      jump\t// in\n    tag_479:\n        /* \"#utility.yul\":24995:25069   */\n      swap2\n      pop\n        /* \"#utility.yul\":25078:25171   */\n      tag_480\n        /* \"#utility.yul\":25167:25170   */\n      dup3\n        /* \"#utility.yul\":25078:25171   */\n      tag_238\n      jump\t// in\n    tag_480:\n        /* \"#utility.yul\":25196:25198   */\n      0x20\n        /* \"#utility.yul\":25191:25194   */\n      dup3\n        /* \"#utility.yul\":25187:25199   */\n      add\n        /* \"#utility.yul\":25180:25199   */\n      swap1\n      pop\n        /* \"#utility.yul\":24839:25205   */\n      swap2\n      swap1\n      pop\n      jump\t// out\n        /* \"#utility.yul\":25211:25630   */\n    tag_157:\n        /* \"#utility.yul\":25377:25381   */\n      0x00\n        /* \"#utility.yul\":25415:25417   */\n      0x20\n        /* \"#utility.yul\":25404:25413   */\n      dup3\n        /* \"#utility.yul\":25400:25418   */\n      add\n        /* \"#utility.yul\":25392:25418   */\n      swap1\n      pop\n        /* \"#utility.yul\":25464:25473   */\n      dup2\n        /* \"#utility.yul\":25458:25462   */\n      dup2\n        /* \"#utility.yul\":25454:25474   */\n      sub\n        /* \"#utility.yul\":25450:25451   */\n      0x00\n        /* \"#utility.yul\":25439:25448   */\n      dup4\n        /* \"#utility.yul\":25435:25452   */\n      add\n        /* \"#utility.yul\":25428:25475   */\n      mstore\n        /* \"#utility.yul\":25492:25623   */\n      tag_482\n        /* \"#utility.yul\":25618:25622   */\n      dup2\n        /* \"#utility.yul\":25492:25623   */\n      tag_239\n      jump\t// in\n    tag_482:\n        /* \"#utility.yul\":25484:25623   */\n      swap1\n      pop\n        /* \"#utility.yul\":25211:25630   */\n      swap2\n      swap1\n      pop\n      jump\t// out\n\n    auxdata: 0xa26469706673582212208ec79d18d3e2b27898d1c22961a0dfbe864027657798ca10d4084b90bdf534f364736f6c634300081f0033\n}\n",
				"bytecode": {
					"linkReferences": {},
					"object": "6080604052348015600e575f5ffd5b503360025f6101000a81548173ffffffffffffffffffffffffffffffffffffffff021916908373ffffffffffffffffffffffffffffffffffffffff1602179055506120ad8061005c5f395ff3fe608060405234801561000f575f5ffd5b50600436106100b2575f3560e01c8063a9ec9d071161006f578063a9ec9d07146101a5578063b9db15b4146101c1578063c8691b2a146101f7578063cc64278414610227578063e229f2cb14610257578063fd84cb9714610273576100b2565b80633a7d2376146100b6578063401b2168146100e95780637250e224146101195780637acc0b201461013557806380c3f96d1461016b5780638da5cb5b14610187575b5f5ffd5b6100d060048036038101906100cb919061148c565b61028f565b6040516100e0949392919061158b565b60405180910390f35b61010360048036038101906100fe91906115f8565b61031f565b604051610110919061163d565b60405180910390f35b610133600480360381019061012e91906115f8565b61033c565b005b61014f600480360381019061014a9190611656565b610423565b60405161016297969594939291906116f1565b60405180910390f35b610185600480360381019061018091906115f8565b610598565b005b61018f61067f565b60405161019c919061176c565b60405180910390f35b6101bf60048036038101906101ba91906118b1565b6106a4565b005b6101db60048036038101906101d69190611656565b610a0e565b6040516101ee97969594939291906116f1565b60405180910390f35b610211600480360381019061020c9190611656565b610c3e565b60405161021e9190611a75565b60405180910390f35b610241600480360381019061023c91906115f8565b610d98565b60405161024e919061163d565b60405180910390f35b610271600480360381019061026c9190611a95565b610db5565b005b61028d60048036038101906102889190611656565b61118f565b005b6001602052815f5260405f2081815481106102a8575f80fd5b905f5260205f2090600402015f9150915050805f015f9054906101000a900473ffffffffffffffffffffffffffffffffffffffff1690806001015f9054906101000a900473ffffffffffffffffffffffffffffffffffffffff1690806002015490806003015f9054906101000a900460ff16905084565b6003602052805f5260405f205f915054906101000a900460ff1681565b60025f9054906101000a900473ffffffffffffffffffffffffffffffffffffffff1673ffffffffffffffffffffffffffffffffffffffff163373ffffffffffffffffffffffffffffffffffffffff16146103cb576040517f08c379a00000000000000000000000000000000000000000000000000000000081526004016103c290611b1d565b60405180910390fd5b600160045f8373ffffffffffffffffffffffffffffffffffffffff1673ffffffffffffffffffffffffffffffffffffffff1681526020019081526020015f205f6101000a81548160ff02191690831515021790555050565b5f602052805f5260405f205f91509050805f01549080600101805461044790611b68565b80601f016020809104026020016040519081016040528092919081815260200182805461047390611b68565b80156104be5780601f10610495576101008083540402835291602001916104be565b820191905f5260205f20905b8154815290600101906020018083116104a157829003601f168201915b5050505050908060020154908060030180546104d990611b68565b80601f016020809104026020016040519081016040528092919081815260200182805461050590611b68565b80156105505780601f1061052757610100808354040283529160200191610550565b820191905f5260205f20905b81548152906001019060200180831161053357829003601f168201915b505050505090806004015490806005015f9054906101000a900473ffffffffffffffffffffffffffffffffffffffff16908060050160149054906101000a900460ff16905087565b60025f9054906101000a900473ffffffffffffffffffffffffffffffffffffffff1673ffffffffffffffffffffffffffffffffffffffff163373ffffffffffffffffffffffffffffffffffffffff1614610627576040517f08c379a000000000000000000000000000000000000000000000000000000000815260040161061e90611b1d565b60405180910390fd5b600160035f8373ffffffffffffffffffffffffffffffffffffffff1673ffffffffffffffffffffffffffffffffffffffff1681526020019081526020015f205f6101000a81548160ff02191690831515021790555050565b60025f9054906101000a900473ffffffffffffffffffffffffffffffffffffffff1681565b60035f3373ffffffffffffffffffffffffffffffffffffffff1673ffffffffffffffffffffffffffffffffffffffff1681526020019081526020015f205f9054906101000a900460ff1661072d576040517f08c379a000000000000000000000000000000000000000000000000000000000815260040161072490611be2565b60405180910390fd5b5f5f5f8681526020019081526020015f205f015414610781576040517f08c379a000000000000000000000000000000000000000000000000000000000815260040161077890611c4a565b60405180910390fd5b6040518060e001604052808581526020018481526020018381526020018281526020014281526020013373ffffffffffffffffffffffffffffffffffffffff1681526020015f60028111156107d9576107d8611518565b5b8152505f5f8681526020019081526020015f205f820151815f015560208201518160010190816108099190611e08565b506040820151816002015560608201518160030190816108299190611e08565b506080820151816004015560a0820151816005015f6101000a81548173ffffffffffffffffffffffffffffffffffffffff021916908373ffffffffffffffffffffffffffffffffffffffff16021790555060c08201518160050160146101000a81548160ff021916908360028111156108a5576108a4611518565b5b021790555090505060015f8581526020019081526020015f2060405180608001604052805f73ffffffffffffffffffffffffffffffffffffffff1681526020013373ffffffffffffffffffffffffffffffffffffffff1681526020014281526020015f600281111561091a57610919611518565b5b815250908060018154018082558091505060019003905f5260205f2090600402015f909190919091505f820151815f015f6101000a81548173ffffffffffffffffffffffffffffffffffffffff021916908373ffffffffffffffffffffffffffffffffffffffff1602179055506020820151816001015f6101000a81548173ffffffffffffffffffffffffffffffffffffffff021916908373ffffffffffffffffffffffffffffffffffffffff160217905550604082015181600201556060820151816003015f6101000a81548160ff02191690836002811115610a0157610a00611518565b5b0217905550505050505050565b5f60605f60605f5f5f5f5f5f8a81526020019081526020015f206040518060e00160405290815f8201548152602001600182018054610a4c90611b68565b80601f0160208091040260200160405190810160405280929190818152602001828054610a7890611b68565b8015610ac35780601f10610a9a57610100808354040283529160200191610ac3565b820191905f5260205f20905b815481529060010190602001808311610aa657829003601f168201915b5050505050815260200160028201548152602001600382018054610ae690611b68565b80601f0160208091040260200160405190810160405280929190818152602001828054610b1290611b68565b8015610b5d5780601f10610b3457610100808354040283529160200191610b5d565b820191905f5260205f20905b815481529060010190602001808311610b4057829003601f168201915b5050505050815260200160048201548152602001600582015f9054906101000a900473ffffffffffffffffffffffffffffffffffffffff1673ffffffffffffffffffffffffffffffffffffffff1673ffffffffffffffffffffffffffffffffffffffff1681526020016005820160149054906101000a900460ff166002811115610bea57610be9611518565b5b6002811115610bfc57610bfb611518565b5b815250509050805f015181602001518260400151836060015184608001518560a001518660c00151975097509750975097509750975050919395979092949650565b606060015f8381526020019081526020015f20805480602002602001604051908101604052809291908181526020015f905b82821015610d8d578382905f5260205f2090600402016040518060800160405290815f82015f9054906101000a900473ffffffffffffffffffffffffffffffffffffffff1673ffffffffffffffffffffffffffffffffffffffff1673ffffffffffffffffffffffffffffffffffffffff168152602001600182015f9054906101000a900473ffffffffffffffffffffffffffffffffffffffff1673ffffffffffffffffffffffffffffffffffffffff1673ffffffffffffffffffffffffffffffffffffffff16815260200160028201548152602001600382015f9054906101000a900460ff166002811115610d6857610d67611518565b5b6002811115610d7a57610d79611518565b5b8152505081526020019060010190610c70565b505050509050919050565b6004602052805f5260405f205f915054906101000a900460ff1681565b60035f3373ffffffffffffffffffffffffffffffffffffffff1673ffffffffffffffffffffffffffffffffffffffff1681526020019081526020015f205f9054906101000a900460ff16610e3e576040517f08c379a0000000000000000000000000000000000000000000000000000000008152600401610e3590611be2565b60405180910390fd5b5f5f5f8481526020019081526020015f205f015403610e92576040517f08c379a0000000000000000000000000000000000000000000000000000000008152600401610e8990611f21565b60405180910390fd5b60045f8273ffffffffffffffffffffffffffffffffffffffff1673ffffffffffffffffffffffffffffffffffffffff1681526020019081526020015f205f9054906101000a900460ff16610f1b576040517f08c379a0000000000000000000000000000000000000000000000000000000008152600401610f1290611f89565b60405180910390fd5b5f5f5f8481526020019081526020015f2090503373ffffffffffffffffffffffffffffffffffffffff16816005015f9054906101000a900473ffffffffffffffffffffffffffffffffffffffff1673ffffffffffffffffffffffffffffffffffffffff1614610fbf576040517f08c379a0000000000000000000000000000000000000000000000000000000008152600401610fb690611ff1565b60405180910390fd5b81816005015f6101000a81548173ffffffffffffffffffffffffffffffffffffffff021916908373ffffffffffffffffffffffffffffffffffffffff16021790555060018160050160146101000a81548160ff0219169083600281111561102957611028611518565b5b021790555060015f8481526020019081526020015f2060405180608001604052803373ffffffffffffffffffffffffffffffffffffffff1681526020018473ffffffffffffffffffffffffffffffffffffffff1681526020014281526020016001600281111561109c5761109b611518565b5b815250908060018154018082558091505060019003905f5260205f2090600402015f909190919091505f820151815f015f6101000a81548173ffffffffffffffffffffffffffffffffffffffff021916908373ffffffffffffffffffffffffffffffffffffffff1602179055506020820151816001015f6101000a81548173ffffffffffffffffffffffffffffffffffffffff021916908373ffffffffffffffffffffffffffffffffffffffff160217905550604082015181600201556060820151816003015f6101000a81548160ff0219169083600281111561118357611182611518565b5b02179055505050505050565b60045f3373ffffffffffffffffffffffffffffffffffffffff1673ffffffffffffffffffffffffffffffffffffffff1681526020019081526020015f205f9054906101000a900460ff16611218576040517f08c379a000000000000000000000000000000000000000000000000000000000815260040161120f90612059565b60405180910390fd5b5f5f5f8381526020019081526020015f2090503373ffffffffffffffffffffffffffffffffffffffff16816005015f9054906101000a900473ffffffffffffffffffffffffffffffffffffffff1673ffffffffffffffffffffffffffffffffffffffff16146112bc576040517f08c379a00000000000000000000000000000000000000000000000000000000081526004016112b390611ff1565b60405180910390fd5b60028160050160146101000a81548160ff021916908360028111156112e4576112e3611518565b5b021790555060015f8381526020019081526020015f2060405180608001604052803373ffffffffffffffffffffffffffffffffffffffff1681526020013373ffffffffffffffffffffffffffffffffffffffff16815260200142815260200160028081111561135657611355611518565b5b815250908060018154018082558091505060019003905f5260205f2090600402015f909190919091505f820151815f015f6101000a81548173ffffffffffffffffffffffffffffffffffffffff021916908373ffffffffffffffffffffffffffffffffffffffff1602179055506020820151816001015f6101000a81548173ffffffffffffffffffffffffffffffffffffffff021916908373ffffffffffffffffffffffffffffffffffffffff160217905550604082015181600201556060820151816003015f6101000a81548160ff0219169083600281111561143d5761143c611518565b5b021790555050505050565b5f604051905090565b5f5ffd5b5f5ffd5b5f819050919050565b61146b81611459565b8114611475575f5ffd5b50565b5f8135905061148681611462565b92915050565b5f5f604083850312156114a2576114a1611451565b5b5f6114af85828601611478565b92505060206114c085828601611478565b9150509250929050565b5f73ffffffffffffffffffffffffffffffffffffffff82169050919050565b5f6114f3826114ca565b9050919050565b611503816114e9565b82525050565b61151281611459565b82525050565b7f4e487b71000000000000000000000000000000000000000000000000000000005f52602160045260245ffd5b6003811061155657611555611518565b5b50565b5f81905061156682611545565b919050565b5f61157582611559565b9050919050565b6115858161156b565b82525050565b5f60808201905061159e5f8301876114fa565b6115ab60208301866114fa565b6115b86040830185611509565b6115c5606083018461157c565b95945050505050565b6115d7816114e9565b81146115e1575f5ffd5b50565b5f813590506115f2816115ce565b92915050565b5f6020828403121561160d5761160c611451565b5b5f61161a848285016115e4565b91505092915050565b5f8115159050919050565b61163781611623565b82525050565b5f6020820190506116505f83018461162e565b92915050565b5f6020828403121561166b5761166a611451565b5b5f61167884828501611478565b91505092915050565b5f81519050919050565b5f82825260208201905092915050565b8281835e5f83830152505050565b5f601f19601f8301169050919050565b5f6116c382611681565b6116cd818561168b565b93506116dd81856020860161169b565b6116e6816116a9565b840191505092915050565b5f60e0820190506117045f83018a611509565b818103602083015261171681896116b9565b90506117256040830188611509565b818103606083015261173781876116b9565b90506117466080830186611509565b61175360a08301856114fa565b61176060c083018461157c565b98975050505050505050565b5f60208201905061177f5f8301846114fa565b92915050565b5f5ffd5b5f5ffd5b7f4e487b71000000000000000000000000000000000000000000000000000000005f52604160045260245ffd5b6117c3826116a9565b810181811067ffffffffffffffff821117156117e2576117e161178d565b5b80604052505050565b5f6117f4611448565b905061180082826117ba565b919050565b5f67ffffffffffffffff82111561181f5761181e61178d565b5b611828826116a9565b9050602081019050919050565b828183375f83830152505050565b5f61185561185084611805565b6117eb565b90508281526020810184848401111561187157611870611789565b5b61187c848285611835565b509392505050565b5f82601f83011261189857611897611785565b5b81356118a8848260208601611843565b91505092915050565b5f5f5f5f608085870312156118c9576118c8611451565b5b5f6118d687828801611478565b945050602085013567ffffffffffffffff8111156118f7576118f6611455565b5b61190387828801611884565b935050604061191487828801611478565b925050606085013567ffffffffffffffff81111561193557611934611455565b5b61194187828801611884565b91505092959194509250565b5f81519050919050565b5f82825260208201905092915050565b5f819050602082019050919050565b61197f816114e9565b82525050565b61198e81611459565b82525050565b61199d8161156b565b82525050565b608082015f8201516119b75f850182611976565b5060208201516119ca6020850182611976565b5060408201516119dd6040850182611985565b5060608201516119f06060850182611994565b50505050565b5f611a0183836119a3565b60808301905092915050565b5f602082019050919050565b5f611a238261194d565b611a2d8185611957565b9350611a3883611967565b805f5b83811015611a68578151611a4f88826119f6565b9750611a5a83611a0d565b925050600181019050611a3b565b5085935050505092915050565b5f6020820190508181035f830152611a8d8184611a19565b905092915050565b5f5f60408385031215611aab57611aaa611451565b5b5f611ab885828601611478565b9250506020611ac9858286016115e4565b9150509250929050565b7f4e6f7420636f6e7472616374206f776e657200000000000000000000000000005f82015250565b5f611b0760128361168b565b9150611b1282611ad3565b602082019050919050565b5f6020820190508181035f830152611b3481611afb565b9050919050565b7f4e487b71000000000000000000000000000000000000000000000000000000005f52602260045260245ffd5b5f6002820490506001821680611b7f57607f821691505b602082108103611b9257611b91611b3b565b5b50919050565b7f4e6f7420617574686f72697a6564206661726d657200000000000000000000005f82015250565b5f611bcc60158361168b565b9150611bd782611b98565b602082019050919050565b5f6020820190508181035f830152611bf981611bc0565b9050919050565b7f50726f6475637420616c726561647920657869737473000000000000000000005f82015250565b5f611c3460168361168b565b9150611c3f82611c00565b602082019050919050565b5f6020820190508181035f830152611c6181611c28565b9050919050565b5f819050815f5260205f209050919050565b5f6020601f8301049050919050565b5f82821b905092915050565b5f60088302611cc47fffffffffffffffffffffffffffffffffffffffffffffffffffffffffffffffff82611c89565b611cce8683611c89565b95508019841693508086168417925050509392505050565b5f819050919050565b5f611d09611d04611cff84611459565b611ce6565b611459565b9050919050565b5f819050919050565b611d2283611cef565b611d36611d2e82611d10565b848454611c95565b825550505050565b5f5f905090565b611d4d611d3e565b611d58818484611d19565b505050565b5b81811015611d7b57611d705f82611d45565b600181019050611d5e565b5050565b601f821115611dc057611d9181611c68565b611d9a84611c7a565b81016020851015611da9578190505b611dbd611db585611c7a565b830182611d5d565b50505b505050565b5f82821c905092915050565b5f611de05f1984600802611dc5565b1980831691505092915050565b5f611df88383611dd1565b9150826002028217905092915050565b611e1182611681565b67ffffffffffffffff811115611e2a57611e2961178d565b5b611e348254611b68565b611e3f828285611d7f565b5f60209050601f831160018114611e70575f8415611e5e578287015190505b611e688582611ded565b865550611ecf565b601f198416611e7e86611c68565b5f5b82811015611ea557848901518255600182019150602085019450602081019050611e80565b86831015611ec25784890151611ebe601f891682611dd1565b8355505b6001600288020188555050505b505050505050565b7f50726f64756374206e6f7420666f756e640000000000000000000000000000005f82015250565b5f611f0b60118361168b565b9150611f1682611ed7565b602082019050919050565b5f6020820190508181035f830152611f3881611eff565b9050919050565b7f496e76616c6964206469737472696275746f72000000000000000000000000005f82015250565b5f611f7360138361168b565b9150611f7e82611f3f565b602082019050919050565b5f6020820190508181035f830152611fa081611f67565b9050919050565b7f4e6f74206f776e657200000000000000000000000000000000000000000000005f82015250565b5f611fdb60098361168b565b9150611fe682611fa7565b602082019050919050565b5f6020820190508181035f83015261200881611fcf565b9050919050565b7f4e6f7420617574686f72697a6564206469737472696275746f720000000000005f82015250565b5f612043601a8361168b565b915061204e8261200f565b602082019050919050565b5f6020820190508181035f83015261207081612037565b905091905056fea26469706673582212208ec79d18d3e2b27898d1c22961a0dfbe864027657798ca10d4084b90bdf534f364736f6c634300081f0033",
					"opcodes": "PUSH1 0x80 PUSH1 0x40 MSTORE CALLVALUE DUP1 ISZERO PUSH1 0xE JUMPI PUSH0 PUSH0 REVERT JUMPDEST POP CALLER PUSH1 0x2 PUSH0 PUSH2 0x100 EXP DUP2 SLOAD DUP2 PUSH20 0xFFFFFFFFFFFFFFFFFFFFFFFFFFFFFFFFFFFFFFFF MUL NOT AND SWAP1 DUP4 PUSH20 0xFFFFFFFFFFFFFFFFFFFFFFFFFFFFFFFFFFFFFFFF AND MUL OR SWAP1 SSTORE POP PUSH2 0x20AD DUP1 PUSH2 0x5C PUSH0 CODECOPY PUSH0 RETURN INVALID PUSH1 0x80 PUSH1 0x40 MSTORE CALLVALUE DUP1 ISZERO PUSH2 0xF JUMPI PUSH0 PUSH0 REVERT JUMPDEST POP PUSH1 0x4 CALLDATASIZE LT PUSH2 0xB2 JUMPI PUSH0 CALLDATALOAD PUSH1 0xE0 SHR DUP1 PUSH4 0xA9EC9D07 GT PUSH2 0x6F JUMPI DUP1 PUSH4 0xA9EC9D07 EQ PUSH2 0x1A5 JUMPI DUP1 PUSH4 0xB9DB15B4 EQ PUSH2 0x1C1 JUMPI DUP1 PUSH4 0xC8691B2A EQ PUSH2 0x1F7 JUMPI DUP1 PUSH4 0xCC642784 EQ PUSH2 0x227 JUMPI DUP1 PUSH4 0xE229F2CB EQ PUSH2 0x257 JUMPI DUP1 PUSH4 0xFD84CB97 EQ PUSH2 0x273 JUMPI PUSH2 0xB2 JUMP JUMPDEST DUP1 PUSH4 0x3A7D2376 EQ PUSH2 0xB6 JUMPI DUP1 PUSH4 0x401B2168 EQ PUSH2 0xE9 JUMPI DUP1 PUSH4 0x7250E224 EQ PUSH2 0x119 JUMPI DUP1 PUSH4 0x7ACC0B20 EQ PUSH2 0x135 JUMPI DUP1 PUSH4 0x80C3F96D EQ PUSH2 0x16B JUMPI DUP1 PUSH4 0x8DA5CB5B EQ PUSH2 0x187 JUMPI JUMPDEST PUSH0 PUSH0 REVERT JUMPDEST PUSH2 0xD0 PUSH1 0x4 DUP1 CALLDATASIZE SUB DUP2 ADD SWAP1 PUSH2 0xCB SWAP2 SWAP1 PUSH2 0x148C JUMP JUMPDEST PUSH2 0x28F JUMP JUMPDEST PUSH1 0x40 MLOAD PUSH2 0xE0 SWAP5 SWAP4 SWAP3 SWAP2 SWAP1 PUSH2 0x158B JUMP JUMPDEST PUSH1 0x40 MLOAD DUP1 SWAP2 SUB SWAP1 RETURN JUMPDEST PUSH2 0x103 PUSH1 0x4 DUP1 CALLDATASIZE SUB DUP2 ADD SWAP1 PUSH2 0xFE SWAP2 SWAP1 PUSH2 0x15F8 JUMP JUMPDEST PUSH2 0x31F JUMP JUMPDEST PUSH1 0x40 MLOAD PUSH2 0x110 SWAP2 SWAP1 PUSH2 0x163D JUMP JUMPDEST PUSH1 0x40 MLOAD DUP1 SWAP2 SUB SWAP1 RETURN JUMPDEST PUSH2 0x133 PUSH1 0x4 DUP1 CALLDATASIZE SUB DUP2 ADD SWAP1 PUSH2 0x12E SWAP2 SWAP1 PUSH2 0x15F8 JUMP JUMPDEST PUSH2 0x33C JUMP JUMPDEST STOP JUMPDEST PUSH2 0x14F PUSH1 0x4 DUP1 CALLDATASIZE SUB DUP2 ADD SWAP1 PUSH2 0x14A SWAP2 SWAP1 PUSH2 0x1656 JUMP JUMPDEST PUSH2 0x423 JUMP JUMPDEST PUSH1 0x40 MLOAD PUSH2 0x162 SWAP8 SWAP7 SWAP6 SWAP5 SWAP4 SWAP3 SWAP2 SWAP1 PUSH2 0x16F1 JUMP JUMPDEST PUSH1 0x40 MLOAD DUP1 SWAP2 SUB SWAP1 RETURN JUMPDEST PUSH2 0x185 PUSH1 0x4 DUP1 CALLDATASIZE SUB DUP2 ADD SWAP1 PUSH2 0x180 SWAP2 SWAP1 PUSH2 0x15F8 JUMP JUMPDEST PUSH2 0x598 JUMP JUMPDEST STOP JUMPDEST PUSH2 0x18F PUSH2 0x67F JUMP JUMPDEST PUSH1 0x40 MLOAD PUSH2 0x19C SWAP2 SWAP1 PUSH2 0x176C JUMP JUMPDEST PUSH1 0x40 MLOAD DUP1 SWAP2 SUB SWAP1 RETURN JUMPDEST PUSH2 0x1BF PUSH1 0x4 DUP1 CALLDATASIZE SUB DUP2 ADD SWAP1 PUSH2 0x1BA SWAP2 SWAP1 PUSH2 0x18B1 JUMP JUMPDEST PUSH2 0x6A4 JUMP JUMPDEST STOP JUMPDEST PUSH2 0x1DB PUSH1 0x4 DUP1 CALLDATASIZE SUB DUP2 ADD SWAP1 PUSH2 0x1D6 SWAP2 SWAP1 PUSH2 0x1656 JUMP JUMPDEST PUSH2 0xA0E JUMP JUMPDEST PUSH1 0x40 MLOAD PUSH2 0x1EE SWAP8 SWAP7 SWAP6 SWAP5 SWAP4 SWAP3 SWAP2 SWAP1 PUSH2 0x16F1 JUMP JUMPDEST PUSH1 0x40 MLOAD DUP1 SWAP2 SUB SWAP1 RETURN JUMPDEST PUSH2 0x211 PUSH1 0x4 DUP1 CALLDATASIZE SUB DUP2 ADD SWAP1 PUSH2 0x20C SWAP2 SWAP1 PUSH2 0x1656 JUMP JUMPDEST PUSH2 0xC3E JUMP JUMPDEST PUSH1 0x40 MLOAD PUSH2 0x21E SWAP2 SWAP1 PUSH2 0x1A75 JUMP JUMPDEST PUSH1 0x40 MLOAD DUP1 SWAP2 SUB SWAP1 RETURN JUMPDEST PUSH2 0x241 PUSH1 0x4 DUP1 CALLDATASIZE SUB DUP2 ADD SWAP1 PUSH2 0x23C SWAP2 SWAP1 PUSH2 0x15F8 JUMP JUMPDEST PUSH2 0xD98 JUMP JUMPDEST PUSH1 0x40 MLOAD PUSH2 0x24E SWAP2 SWAP1 PUSH2 0x163D JUMP JUMPDEST PUSH1 0x40 MLOAD DUP1 SWAP2 SUB SWAP1 RETURN JUMPDEST PUSH2 0x271 PUSH1 0x4 DUP1 CALLDATASIZE SUB DUP2 ADD SWAP1 PUSH2 0x26C SWAP2 SWAP1 PUSH2 0x1A95 JUMP JUMPDEST PUSH2 0xDB5 JUMP JUMPDEST STOP JUMPDEST PUSH2 0x28D PUSH1 0x4 DUP1 CALLDATASIZE SUB DUP2 ADD SWAP1 PUSH2 0x288 SWAP2 SWAP1 PUSH2 0x1656 JUMP JUMPDEST PUSH2 0x118F JUMP JUMPDEST STOP JUMPDEST PUSH1 0x1 PUSH1 0x20 MSTORE DUP2 PUSH0 MSTORE PUSH1 0x40 PUSH0 KECCAK256 DUP2 DUP2 SLOAD DUP2 LT PUSH2 0x2A8 JUMPI PUSH0 DUP1 REVERT JUMPDEST SWAP1 PUSH0 MSTORE PUSH1 0x20 PUSH0 KECCAK256 SWAP1 PUSH1 0x4 MUL ADD PUSH0 SWAP2 POP SWAP2 POP POP DUP1 PUSH0 ADD PUSH0 SWAP1 SLOAD SWAP1 PUSH2 0x100 EXP SWAP1 DIV PUSH20 0xFFFFFFFFFFFFFFFFFFFFFFFFFFFFFFFFFFFFFFFF AND SWAP1 DUP1 PUSH1 0x1 ADD PUSH0 SWAP1 SLOAD SWAP1 PUSH2 0x100 EXP SWAP1 DIV PUSH20 0xFFFFFFFFFFFFFFFFFFFFFFFFFFFFFFFFFFFFFFFF AND SWAP1 DUP1 PUSH1 0x2 ADD SLOAD SWAP1 DUP1 PUSH1 0x3 ADD PUSH0 SWAP1 SLOAD SWAP1 PUSH2 0x100 EXP SWAP1 DIV PUSH1 0xFF AND SWAP1 POP DUP5 JUMP JUMPDEST PUSH1 0x3 PUSH1 0x20 MSTORE DUP1 PUSH0 MSTORE PUSH1 0x40 PUSH0 KECCAK256 PUSH0 SWAP2 POP SLOAD SWAP1 PUSH2 0x100 EXP SWAP1 DIV PUSH1 0xFF AND DUP2 JUMP JUMPDEST PUSH1 0x2 PUSH0 SWAP1 SLOAD SWAP1 PUSH2 0x100 EXP SWAP1 DIV PUSH20 0xFFFFFFFFFFFFFFFFFFFFFFFFFFFFFFFFFFFFFFFF AND PUSH20 0xFFFFFFFFFFFFFFFFFFFFFFFFFFFFFFFFFFFFFFFF AND CALLER PUSH20 0xFFFFFFFFFFFFFFFFFFFFFFFFFFFFFFFFFFFFFFFF AND EQ PUSH2 0x3CB JUMPI PUSH1 0x40 MLOAD PUSH32 0x8C379A000000000000000000000000000000000000000000000000000000000 DUP2 MSTORE PUSH1 0x4 ADD PUSH2 0x3C2 SWAP1 PUSH2 0x1B1D JUMP JUMPDEST PUSH1 0x40 MLOAD DUP1 SWAP2 SUB SWAP1 REVERT JUMPDEST PUSH1 0x1 PUSH1 0x4 PUSH0 DUP4 PUSH20 0xFFFFFFFFFFFFFFFFFFFFFFFFFFFFFFFFFFFFFFFF AND PUSH20 0xFFFFFFFFFFFFFFFFFFFFFFFFFFFFFFFFFFFFFFFF AND DUP2 MSTORE PUSH1 0x20 ADD SWAP1 DUP2 MSTORE PUSH1 0x20 ADD PUSH0 KECCAK256 PUSH0 PUSH2 0x100 EXP DUP2 SLOAD DUP2 PUSH1 0xFF MUL NOT AND SWAP1 DUP4 ISZERO ISZERO MUL OR SWAP1 SSTORE POP POP JUMP JUMPDEST PUSH0 PUSH1 0x20 MSTORE DUP1 PUSH0 MSTORE PUSH1 0x40 PUSH0 KECCAK256 PUSH0 SWAP2 POP SWAP1 POP DUP1 PUSH0 ADD SLOAD SWAP1 DUP1 PUSH1 0x1 ADD DUP1 SLOAD PUSH2 0x447 SWAP1 PUSH2 0x1B68 JUMP JUMPDEST DUP1 PUSH1 0x1F ADD PUSH1 0x20 DUP1 SWAP2 DIV MUL PUSH1 0x20 ADD PUSH1 0x40 MLOAD SWAP1 DUP2 ADD PUSH1 0x40 MSTORE DUP1 SWAP3 SWAP2 SWAP1 DUP2 DUP2 MSTORE PUSH1 0x20 ADD DUP3 DUP1 SLOAD PUSH2 0x473 SWAP1 PUSH2 0x1B68 JUMP JUMPDEST DUP1 ISZERO PUSH2 0x4BE JUMPI DUP1 PUSH1 0x1F LT PUSH2 0x495 JUMPI PUSH2 0x100 DUP1 DUP4 SLOAD DIV MUL DUP4 MSTORE SWAP2 PUSH1 0x20 ADD SWAP2 PUSH2 0x4BE JUMP JUMPDEST DUP3 ADD SWAP2 SWAP1 PUSH0 MSTORE PUSH1 0x20 PUSH0 KECCAK256 SWAP1 JUMPDEST DUP2 SLOAD DUP2 MSTORE SWAP1 PUSH1 0x1 ADD SWAP1 PUSH1 0x20 ADD DUP1 DUP4 GT PUSH2 0x4A1 JUMPI DUP3 SWAP1 SUB PUSH1 0x1F AND DUP3 ADD SWAP2 JUMPDEST POP POP POP POP POP SWAP1 DUP1 PUSH1 0x2 ADD SLOAD SWAP1 DUP1 PUSH1 0x3 ADD DUP1 SLOAD PUSH2 0x4D9 SWAP1 PUSH2 0x1B68 JUMP JUMPDEST DUP1 PUSH1 0x1F ADD PUSH1 0x20 DUP1 SWAP2 DIV MUL PUSH1 0x20 ADD PUSH1 0x40 MLOAD SWAP1 DUP2 ADD PUSH1 0x40 MSTORE DUP1 SWAP3 SWAP2 SWAP1 DUP2 DUP2 MSTORE PUSH1 0x20 ADD DUP3 DUP1 SLOAD PUSH2 0x505 SWAP1 PUSH2 0x1B68 JUMP JUMPDEST DUP1 ISZERO PUSH2 0x550 JUMPI DUP1 PUSH1 0x1F LT PUSH2 0x527 JUMPI PUSH2 0x100 DUP1 DUP4 SLOAD DIV MUL DUP4 MSTORE SWAP2 PUSH1 0x20 ADD SWAP2 PUSH2 0x550 JUMP JUMPDEST DUP3 ADD SWAP2 SWAP1 PUSH0 MSTORE PUSH1 0x20 PUSH0 KECCAK256 SWAP1 JUMPDEST DUP2 SLOAD DUP2 MSTORE SWAP1 PUSH1 0x1 ADD SWAP1 PUSH1 0x20 ADD DUP1 DUP4 GT PUSH2 0x533 JUMPI DUP3 SWAP1 SUB PUSH1 0x1F AND DUP3 ADD SWAP2 JUMPDEST POP POP POP POP POP SWAP1 DUP1 PUSH1 0x4 ADD SLOAD SWAP1 DUP1 PUSH1 0x5 ADD PUSH0 SWAP1 SLOAD SWAP1 PUSH2 0x100 EXP SWAP1 DIV PUSH20 0xFFFFFFFFFFFFFFFFFFFFFFFFFFFFFFFFFFFFFFFF AND SWAP1 DUP1 PUSH1 0x5 ADD PUSH1 0x14 SWAP1 SLOAD SWAP1 PUSH2 0x100 EXP SWAP1 DIV PUSH1 0xFF AND SWAP1 POP DUP8 JUMP JUMPDEST PUSH1 0x2 PUSH0 SWAP1 SLOAD SWAP1 PUSH2 0x100 EXP SWAP1 DIV PUSH20 0xFFFFFFFFFFFFFFFFFFFFFFFFFFFFFFFFFFFFFFFF AND PUSH20 0xFFFFFFFFFFFFFFFFFFFFFFFFFFFFFFFFFFFFFFFF AND CALLER PUSH20 0xFFFFFFFFFFFFFFFFFFFFFFFFFFFFFFFFFFFFFFFF AND EQ PUSH2 0x627 JUMPI PUSH1 0x40 MLOAD PUSH32 0x8C379A000000000000000000000000000000000000000000000000000000000 DUP2 MSTORE PUSH1 0x4 ADD PUSH2 0x61E SWAP1 PUSH2 0x1B1D JUMP JUMPDEST PUSH1 0x40 MLOAD DUP1 SWAP2 SUB SWAP1 REVERT JUMPDEST PUSH1 0x1 PUSH1 0x3 PUSH0 DUP4 PUSH20 0xFFFFFFFFFFFFFFFFFFFFFFFFFFFFFFFFFFFFFFFF AND PUSH20 0xFFFFFFFFFFFFFFFFFFFFFFFFFFFFFFFFFFFFFFFF AND DUP2 MSTORE PUSH1 0x20 ADD SWAP1 DUP2 MSTORE PUSH1 0x20 ADD PUSH0 KECCAK256 PUSH0 PUSH2 0x100 EXP DUP2 SLOAD DUP2 PUSH1 0xFF MUL NOT AND SWAP1 DUP4 ISZERO ISZERO MUL OR SWAP1 SSTORE POP POP JUMP JUMPDEST PUSH1 0x2 PUSH0 SWAP1 SLOAD SWAP1 PUSH2 0x100 EXP SWAP1 DIV PUSH20 0xFFFFFFFFFFFFFFFFFFFFFFFFFFFFFFFFFFFFFFFF AND DUP2 JUMP JUMPDEST PUSH1 0x3 PUSH0 CALLER PUSH20 0xFFFFFFFFFFFFFFFFFFFFFFFFFFFFFFFFFFFFFFFF AND PUSH20 0xFFFFFFFFFFFFFFFFFFFFFFFFFFFFFFFFFFFFFFFF AND DUP2 MSTORE PUSH1 0x20 ADD SWAP1 DUP2 MSTORE PUSH1 0x20 ADD PUSH0 KECCAK256 PUSH0 SWAP1 SLOAD SWAP1 PUSH2 0x100 EXP SWAP1 DIV PUSH1 0xFF AND PUSH2 0x72D JUMPI PUSH1 0x40 MLOAD PUSH32 0x8C379A000000000000000000000000000000000000000000000000000000000 DUP2 MSTORE PUSH1 0x4 ADD PUSH2 0x724 SWAP1 PUSH2 0x1BE2 JUMP JUMPDEST PUSH1 0x40 MLOAD DUP1 SWAP2 SUB SWAP1 REVERT JUMPDEST PUSH0 PUSH0 PUSH0 DUP7 DUP2 MSTORE PUSH1 0x20 ADD SWAP1 DUP2 MSTORE PUSH1 0x20 ADD PUSH0 KECCAK256 PUSH0 ADD SLOAD EQ PUSH2 0x781 JUMPI PUSH1 0x40 MLOAD PUSH32 0x8C379A000000000000000000000000000000000000000000000000000000000 DUP2 MSTORE PUSH1 0x4 ADD PUSH2 0x778 SWAP1 PUSH2 0x1C4A JUMP JUMPDEST PUSH1 0x40 MLOAD DUP1 SWAP2 SUB SWAP1 REVERT JUMPDEST PUSH1 0x40 MLOAD DUP1 PUSH1 0xE0 ADD PUSH1 0x40 MSTORE DUP1 DUP6 DUP2 MSTORE PUSH1 0x20 ADD DUP5 DUP2 MSTORE PUSH1 0x20 ADD DUP4 DUP2 MSTORE PUSH1 0x20 ADD DUP3 DUP2 MSTORE PUSH1 0x20 ADD TIMESTAMP DUP2 MSTORE PUSH1 0x20 ADD CALLER PUSH20 0xFFFFFFFFFFFFFFFFFFFFFFFFFFFFFFFFFFFFFFFF AND DUP2 MSTORE PUSH1 0x20 ADD PUSH0 PUSH1 0x2 DUP2 GT ISZERO PUSH2 0x7D9 JUMPI PUSH2 0x7D8 PUSH2 0x1518 JUMP JUMPDEST JUMPDEST DUP2 MSTORE POP PUSH0 PUSH0 DUP7 DUP2 MSTORE PUSH1 0x20 ADD SWAP1 DUP2 MSTORE PUSH1 0x20 ADD PUSH0 KECCAK256 PUSH0 DUP3 ADD MLOAD DUP2 PUSH0 ADD SSTORE PUSH1 0x20 DUP3 ADD MLOAD DUP2 PUSH1 0x1 ADD SWAP1 DUP2 PUSH2 0x809 SWAP2 SWAP1 PUSH2 0x1E08 JUMP JUMPDEST POP PUSH1 0x40 DUP3 ADD MLOAD DUP2 PUSH1 0x2 ADD SSTORE PUSH1 0x60 DUP3 ADD MLOAD DUP2 PUSH1 0x3 ADD SWAP1 DUP2 PUSH2 0x829 SWAP2 SWAP1 PUSH2 0x1E08 JUMP JUMPDEST POP PUSH1 0x80 DUP3 ADD MLOAD DUP2 PUSH1 0x4 ADD SSTORE PUSH1 0xA0 DUP3 ADD MLOAD DUP2 PUSH1 0x5 ADD PUSH0 PUSH2 0x100 EXP DUP2 SLOAD DUP2 PUSH20 0xFFFFFFFFFFFFFFFFFFFFFFFFFFFFFFFFFFFFFFFF MUL NOT AND SWAP1 DUP4 PUSH20 0xFFFFFFFFFFFFFFFFFFFFFFFFFFFFFFFFFFFFFFFF AND MUL OR SWAP1 SSTORE POP PUSH1 0xC0 DUP3 ADD MLOAD DUP2 PUSH1 0x5 ADD PUSH1 0x14 PUSH2 0x100 EXP DUP2 SLOAD DUP2 PUSH1 0xFF MUL NOT AND SWAP1 DUP4 PUSH1 0x2 DUP2 GT ISZERO PUSH2 0x8A5 JUMPI PUSH2 0x8A4 PUSH2 0x1518 JUMP JUMPDEST JUMPDEST MUL OR SWAP1 SSTORE POP SWAP1 POP POP PUSH1 0x1 PUSH0 DUP6 DUP2 MSTORE PUSH1 0x20 ADD SWAP1 DUP2 MSTORE PUSH1 0x20 ADD PUSH0 KECCAK256 PUSH1 0x40 MLOAD DUP1 PUSH1 0x80 ADD PUSH1 0x40 MSTORE DUP1 PUSH0 PUSH20 0xFFFFFFFFFFFFFFFFFFFFFFFFFFFFFFFFFFFFFFFF AND DUP2 MSTORE PUSH1 0x20 ADD CALLER PUSH20 0xFFFFFFFFFFFFFFFFFFFFFFFFFFFFFFFFFFFFFFFF AND DUP2 MSTORE PUSH1 0x20 ADD TIMESTAMP DUP2 MSTORE PUSH1 0x20 ADD PUSH0 PUSH1 0x2 DUP2 GT ISZERO PUSH2 0x91A JUMPI PUSH2 0x919 PUSH2 0x1518 JUMP JUMPDEST JUMPDEST DUP2 MSTORE POP SWAP1 DUP1 PUSH1 0x1 DUP2 SLOAD ADD DUP1 DUP3 SSTORE DUP1 SWAP2 POP POP PUSH1 0x1 SWAP1 SUB SWAP1 PUSH0 MSTORE PUSH1 0x20 PUSH0 KECCAK256 SWAP1 PUSH1 0x4 MUL ADD PUSH0 SWAP1 SWAP2 SWAP1 SWAP2 SWAP1 SWAP2 POP PUSH0 DUP3 ADD MLOAD DUP2 PUSH0 ADD PUSH0 PUSH2 0x100 EXP DUP2 SLOAD DUP2 PUSH20 0xFFFFFFFFFFFFFFFFFFFFFFFFFFFFFFFFFFFFFFFF MUL NOT AND SWAP1 DUP4 PUSH20 0xFFFFFFFFFFFFFFFFFFFFFFFFFFFFFFFFFFFFFFFF AND MUL OR SWAP1 SSTORE POP PUSH1 0x20 DUP3 ADD MLOAD DUP2 PUSH1 0x1 ADD PUSH0 PUSH2 0x100 EXP DUP2 SLOAD DUP2 PUSH20 0xFFFFFFFFFFFFFFFFFFFFFFFFFFFFFFFFFFFFFFFF MUL NOT AND SWAP1 DUP4 PUSH20 0xFFFFFFFFFFFFFFFFFFFFFFFFFFFFFFFFFFFFFFFF AND MUL OR SWAP1 SSTORE POP PUSH1 0x40 DUP3 ADD MLOAD DUP2 PUSH1 0x2 ADD SSTORE PUSH1 0x60 DUP3 ADD MLOAD DUP2 PUSH1 0x3 ADD PUSH0 PUSH2 0x100 EXP DUP2 SLOAD DUP2 PUSH1 0xFF MUL NOT AND SWAP1 DUP4 PUSH1 0x2 DUP2 GT ISZERO PUSH2 0xA01 JUMPI PUSH2 0xA00 PUSH2 0x1518 JUMP JUMPDEST JUMPDEST MUL OR SWAP1 SSTORE POP POP POP POP POP POP POP JUMP JUMPDEST PUSH0 PUSH1 0x60 PUSH0 PUSH1 0x60 PUSH0 PUSH0 PUSH0 PUSH0 PUSH0 PUSH0 DUP11 DUP2 MSTORE PUSH1 0x20 ADD SWAP1 DUP2 MSTORE PUSH1 0x20 ADD PUSH0 KECCAK256 PUSH1 0x40 MLOAD DUP1 PUSH1 0xE0 ADD PUSH1 0x40 MSTORE SWAP1 DUP2 PUSH0 DUP3 ADD SLOAD DUP2 MSTORE PUSH1 0x20 ADD PUSH1 0x1 DUP3 ADD DUP1 SLOAD PUSH2 0xA4C SWAP1 PUSH2 0x1B68 JUMP JUMPDEST DUP1 PUSH1 0x1F ADD PUSH1 0x20 DUP1 SWAP2 DIV MUL PUSH1 0x20 ADD PUSH1 0x40 MLOAD SWAP1 DUP2 ADD PUSH1 0x40 MSTORE DUP1 SWAP3 SWAP2 SWAP1 DUP2 DUP2 MSTORE PUSH1 0x20 ADD DUP3 DUP1 SLOAD PUSH2 0xA78 SWAP1 PUSH2 0x1B68 JUMP JUMPDEST DUP1 ISZERO PUSH2 0xAC3 JUMPI DUP1 PUSH1 0x1F LT PUSH2 0xA9A JUMPI PUSH2 0x100 DUP1 DUP4 SLOAD DIV MUL DUP4 MSTORE SWAP2 PUSH1 0x20 ADD SWAP2 PUSH2 0xAC3 JUMP JUMPDEST DUP3 ADD SWAP2 SWAP1 PUSH0 MSTORE PUSH1 0x20 PUSH0 KECCAK256 SWAP1 JUMPDEST DUP2 SLOAD DUP2 MSTORE SWAP1 PUSH1 0x1 ADD SWAP1 PUSH1 0x20 ADD DUP1 DUP4 GT PUSH2 0xAA6 JUMPI DUP3 SWAP1 SUB PUSH1 0x1F AND DUP3 ADD SWAP2 JUMPDEST POP POP POP POP POP DUP2 MSTORE PUSH1 0x20 ADD PUSH1 0x2 DUP3 ADD SLOAD DUP2 MSTORE PUSH1 0x20 ADD PUSH1 0x3 DUP3 ADD DUP1 SLOAD PUSH2 0xAE6 SWAP1 PUSH2 0x1B68 JUMP JUMPDEST DUP1 PUSH1 0x1F ADD PUSH1 0x20 DUP1 SWAP2 DIV MUL PUSH1 0x20 ADD PUSH1 0x40 MLOAD SWAP1 DUP2 ADD PUSH1 0x40 MSTORE DUP1 SWAP3 SWAP2 SWAP1 DUP2 DUP2 MSTORE PUSH1 0x20 ADD DUP3 DUP1 SLOAD PUSH2 0xB12 SWAP1 PUSH2 0x1B68 JUMP JUMPDEST DUP1 ISZERO PUSH2 0xB5D JUMPI DUP1 PUSH1 0x1F LT PUSH2 0xB34 JUMPI PUSH2 0x100 DUP1 DUP4 SLOAD DIV MUL DUP4 MSTORE SWAP2 PUSH1 0x20 ADD SWAP2 PUSH2 0xB5D JUMP JUMPDEST DUP3 ADD SWAP2 SWAP1 PUSH0 MSTORE PUSH1 0x20 PUSH0 KECCAK256 SWAP1 JUMPDEST DUP2 SLOAD DUP2 MSTORE SWAP1 PUSH1 0x1 ADD SWAP1 PUSH1 0x20 ADD DUP1 DUP4 GT PUSH2 0xB40 JUMPI DUP3 SWAP1 SUB PUSH1 0x1F AND DUP3 ADD SWAP2 JUMPDEST POP POP POP POP POP DUP2 MSTORE PUSH1 0x20 ADD PUSH1 0x4 DUP3 ADD SLOAD DUP2 MSTORE PUSH1 0x20 ADD PUSH1 0x5 DUP3 ADD PUSH0 SWAP1 SLOAD SWAP1 PUSH2 0x100 EXP SWAP1 DIV PUSH20 0xFFFFFFFFFFFFFFFFFFFFFFFFFFFFFFFFFFFFFFFF AND PUSH20 0xFFFFFFFFFFFFFFFFFFFFFFFFFFFFFFFFFFFFFFFF AND PUSH20 0xFFFFFFFFFFFFFFFFFFFFFFFFFFFFFFFFFFFFFFFF AND DUP2 MSTORE PUSH1 0x20 ADD PUSH1 0x5 DUP3 ADD PUSH1 0x14 SWAP1 SLOAD SWAP1 PUSH2 0x100 EXP SWAP1 DIV PUSH1 0xFF AND PUSH1 0x2 DUP2 GT ISZERO PUSH2 0xBEA JUMPI PUSH2 0xBE9 PUSH2 0x1518 JUMP JUMPDEST JUMPDEST PUSH1 0x2 DUP2 GT ISZERO PUSH2 0xBFC JUMPI PUSH2 0xBFB PUSH2 0x1518 JUMP JUMPDEST JUMPDEST DUP2 MSTORE POP POP SWAP1 POP DUP1 PUSH0 ADD MLOAD DUP2 PUSH1 0x20 ADD MLOAD DUP3 PUSH1 0x40 ADD MLOAD DUP4 PUSH1 0x60 ADD MLOAD DUP5 PUSH1 0x80 ADD MLOAD DUP6 PUSH1 0xA0 ADD MLOAD DUP7 PUSH1 0xC0 ADD MLOAD SWAP8 POP SWAP8 POP SWAP8 POP SWAP8 POP SWAP8 POP SWAP8 POP SWAP8 POP POP SWAP2 SWAP4 SWAP6 SWAP8 SWAP1 SWAP3 SWAP5 SWAP7 POP JUMP JUMPDEST PUSH1 0x60 PUSH1 0x1 PUSH0 DUP4 DUP2 MSTORE PUSH1 0x20 ADD SWAP1 DUP2 MSTORE PUSH1 0x20 ADD PUSH0 KECCAK256 DUP1 SLOAD DUP1 PUSH1 0x20 MUL PUSH1 0x20 ADD PUSH1 0x40 MLOAD SWAP1 DUP2 ADD PUSH1 0x40 MSTORE DUP1 SWAP3 SWAP2 SWAP1 DUP2 DUP2 MSTORE PUSH1 0x20 ADD PUSH0 SWAP1 JUMPDEST DUP3 DUP3 LT ISZERO PUSH2 0xD8D JUMPI DUP4 DUP3 SWAP1 PUSH0 MSTORE PUSH1 0x20 PUSH0 KECCAK256 SWAP1 PUSH1 0x4 MUL ADD PUSH1 0x40 MLOAD DUP1 PUSH1 0x80 ADD PUSH1 0x40 MSTORE SWAP1 DUP2 PUSH0 DUP3 ADD PUSH0 SWAP1 SLOAD SWAP1 PUSH2 0x100 EXP SWAP1 DIV PUSH20 0xFFFFFFFFFFFFFFFFFFFFFFFFFFFFFFFFFFFFFFFF AND PUSH20 0xFFFFFFFFFFFFFFFFFFFFFFFFFFFFFFFFFFFFFFFF AND PUSH20 0xFFFFFFFFFFFFFFFFFFFFFFFFFFFFFFFFFFFFFFFF AND DUP2 MSTORE PUSH1 0x20 ADD PUSH1 0x1 DUP3 ADD PUSH0 SWAP1 SLOAD SWAP1 PUSH2 0x100 EXP SWAP1 DIV PUSH20 0xFFFFFFFFFFFFFFFFFFFFFFFFFFFFFFFFFFFFFFFF AND PUSH20 0xFFFFFFFFFFFFFFFFFFFFFFFFFFFFFFFFFFFFFFFF AND PUSH20 0xFFFFFFFFFFFFFFFFFFFFFFFFFFFFFFFFFFFFFFFF AND DUP2 MSTORE PUSH1 0x20 ADD PUSH1 0x2 DUP3 ADD SLOAD DUP2 MSTORE PUSH1 0x20 ADD PUSH1 0x3 DUP3 ADD PUSH0 SWAP1 SLOAD SWAP1 PUSH2 0x100 EXP SWAP1 DIV PUSH1 0xFF AND PUSH1 0x2 DUP2 GT ISZERO PUSH2 0xD68 JUMPI PUSH2 0xD67 PUSH2 0x1518 JUMP JUMPDEST JUMPDEST PUSH1 0x2 DUP2 GT ISZERO PUSH2 0xD7A JUMPI PUSH2 0xD79 PUSH2 0x1518 JUMP JUMPDEST JUMPDEST DUP2 MSTORE POP POP DUP2 MSTORE PUSH1 0x20 ADD SWAP1 PUSH1 0x1 ADD SWAP1 PUSH2 0xC70 JUMP JUMPDEST POP POP POP POP SWAP1 POP SWAP2 SWAP1 POP JUMP JUMPDEST PUSH1 0x4 PUSH1 0x20 MSTORE DUP1 PUSH0 MSTORE PUSH1 0x40 PUSH0 KECCAK256 PUSH0 SWAP2 POP SLOAD SWAP1 PUSH2 0x100 EXP SWAP1 DIV PUSH1 0xFF AND DUP2 JUMP JUMPDEST PUSH1 0x3 PUSH0 CALLER PUSH20 0xFFFFFFFFFFFFFFFFFFFFFFFFFFFFFFFFFFFFFFFF AND PUSH20 0xFFFFFFFFFFFFFFFFFFFFFFFFFFFFFFFFFFFFFFFF AND DUP2 MSTORE PUSH1 0x20 ADD SWAP1 DUP2 MSTORE PUSH1 0x20 ADD PUSH0 KECCAK256 PUSH0 SWAP1 SLOAD SWAP1 PUSH2 0x100 EXP SWAP1 DIV PUSH1 0xFF AND PUSH2 0xE3E JUMPI PUSH1 0x40 MLOAD PUSH32 0x8C379A000000000000000000000000000000000000000000000000000000000 DUP2 MSTORE PUSH1 0x4 ADD PUSH2 0xE35 SWAP1 PUSH2 0x1BE2 JUMP JUMPDEST PUSH1 0x40 MLOAD DUP1 SWAP2 SUB SWAP1 REVERT JUMPDEST PUSH0 PUSH0 PUSH0 DUP5 DUP2 MSTORE PUSH1 0x20 ADD SWAP1 DUP2 MSTORE PUSH1 0x20 ADD PUSH0 KECCAK256 PUSH0 ADD SLOAD SUB PUSH2 0xE92 JUMPI PUSH1 0x40 MLOAD PUSH32 0x8C379A000000000000000000000000000000000000000000000000000000000 DUP2 MSTORE PUSH1 0x4 ADD PUSH2 0xE89 SWAP1 PUSH2 0x1F21 JUMP JUMPDEST PUSH1 0x40 MLOAD DUP1 SWAP2 SUB SWAP1 REVERT JUMPDEST PUSH1 0x4 PUSH0 DUP3 PUSH20 0xFFFFFFFFFFFFFFFFFFFFFFFFFFFFFFFFFFFFFFFF AND PUSH20 0xFFFFFFFFFFFFFFFFFFFFFFFFFFFFFFFFFFFFFFFF AND DUP2 MSTORE PUSH1 0x20 ADD SWAP1 DUP2 MSTORE PUSH1 0x20 ADD PUSH0 KECCAK256 PUSH0 SWAP1 SLOAD SWAP1 PUSH2 0x100 EXP SWAP1 DIV PUSH1 0xFF AND PUSH2 0xF1B JUMPI PUSH1 0x40 MLOAD PUSH32 0x8C379A000000000000000000000000000000000000000000000000000000000 DUP2 MSTORE PUSH1 0x4 ADD PUSH2 0xF12 SWAP1 PUSH2 0x1F89 JUMP JUMPDEST PUSH1 0x40 MLOAD DUP1 SWAP2 SUB SWAP1 REVERT JUMPDEST PUSH0 PUSH0 PUSH0 DUP5 DUP2 MSTORE PUSH1 0x20 ADD SWAP1 DUP2 MSTORE PUSH1 0x20 ADD PUSH0 KECCAK256 SWAP1 POP CALLER PUSH20 0xFFFFFFFFFFFFFFFFFFFFFFFFFFFFFFFFFFFFFFFF AND DUP2 PUSH1 0x5 ADD PUSH0 SWAP1 SLOAD SWAP1 PUSH2 0x100 EXP SWAP1 DIV PUSH20 0xFFFFFFFFFFFFFFFFFFFFFFFFFFFFFFFFFFFFFFFF AND PUSH20 0xFFFFFFFFFFFFFFFFFFFFFFFFFFFFFFFFFFFFFFFF AND EQ PUSH2 0xFBF JUMPI PUSH1 0x40 MLOAD PUSH32 0x8C379A000000000000000000000000000000000000000000000000000000000 DUP2 MSTORE PUSH1 0x4 ADD PUSH2 0xFB6 SWAP1 PUSH2 0x1FF1 JUMP JUMPDEST PUSH1 0x40 MLOAD DUP1 SWAP2 SUB SWAP1 REVERT JUMPDEST DUP2 DUP2 PUSH1 0x5 ADD PUSH0 PUSH2 0x100 EXP DUP2 SLOAD DUP2 PUSH20 0xFFFFFFFFFFFFFFFFFFFFFFFFFFFFFFFFFFFFFFFF MUL NOT AND SWAP1 DUP4 PUSH20 0xFFFFFFFFFFFFFFFFFFFFFFFFFFFFFFFFFFFFFFFF AND MUL OR SWAP1 SSTORE POP PUSH1 0x1 DUP2 PUSH1 0x5 ADD PUSH1 0x14 PUSH2 0x100 EXP DUP2 SLOAD DUP2 PUSH1 0xFF MUL NOT AND SWAP1 DUP4 PUSH1 0x2 DUP2 GT ISZERO PUSH2 0x1029 JUMPI PUSH2 0x1028 PUSH2 0x1518 JUMP JUMPDEST JUMPDEST MUL OR SWAP1 SSTORE POP PUSH1 0x1 PUSH0 DUP5 DUP2 MSTORE PUSH1 0x20 ADD SWAP1 DUP2 MSTORE PUSH1 0x20 ADD PUSH0 KECCAK256 PUSH1 0x40 MLOAD DUP1 PUSH1 0x80 ADD PUSH1 0x40 MSTORE DUP1 CALLER PUSH20 0xFFFFFFFFFFFFFFFFFFFFFFFFFFFFFFFFFFFFFFFF AND DUP2 MSTORE PUSH1 0x20 ADD DUP5 PUSH20 0xFFFFFFFFFFFFFFFFFFFFFFFFFFFFFFFFFFFFFFFF AND DUP2 MSTORE PUSH1 0x20 ADD TIMESTAMP DUP2 MSTORE PUSH1 0x20 ADD PUSH1 0x1 PUSH1 0x2 DUP2 GT ISZERO PUSH2 0x109C JUMPI PUSH2 0x109B PUSH2 0x1518 JUMP JUMPDEST JUMPDEST DUP2 MSTORE POP SWAP1 DUP1 PUSH1 0x1 DUP2 SLOAD ADD DUP1 DUP3 SSTORE DUP1 SWAP2 POP POP PUSH1 0x1 SWAP1 SUB SWAP1 PUSH0 MSTORE PUSH1 0x20 PUSH0 KECCAK256 SWAP1 PUSH1 0x4 MUL ADD PUSH0 SWAP1 SWAP2 SWAP1 SWAP2 SWAP1 SWAP2 POP PUSH0 DUP3 ADD MLOAD DUP2 PUSH0 ADD PUSH0 PUSH2 0x100 EXP DUP2 SLOAD DUP2 PUSH20 0xFFFFFFFFFFFFFFFFFFFFFFFFFFFFFFFFFFFFFFFF MUL NOT AND SWAP1 DUP4 PUSH20 0xFFFFFFFFFFFFFFFFFFFFFFFFFFFFFFFFFFFFFFFF AND MUL OR SWAP1 SSTORE POP PUSH1 0x20 DUP3 ADD MLOAD DUP2 PUSH1 0x1 ADD PUSH0 PUSH2 0x100 EXP DUP2 SLOAD DUP2 PUSH20 0xFFFFFFFFFFFFFFFFFFFFFFFFFFFFFFFFFFFFFFFF MUL NOT AND SWAP1 DUP4 PUSH20 0xFFFFFFFFFFFFFFFFFFFFFFFFFFFFFFFFFFFFFFFF AND MUL OR SWAP1 SSTORE POP PUSH1 0x40 DUP3 ADD MLOAD DUP2 PUSH1 0x2 ADD SSTORE PUSH1 0x60 DUP3 ADD MLOAD DUP2 PUSH1 0x3 ADD PUSH0 PUSH2 0x100 EXP DUP2 SLOAD DUP2 PUSH1 0xFF MUL NOT AND SWAP1 DUP4 PUSH1 0x2 DUP2 GT ISZERO PUSH2 0x1183 JUMPI PUSH2 0x1182 PUSH2 0x1518 JUMP JUMPDEST JUMPDEST MUL OR SWAP1 SSTORE POP POP POP POP POP POP JUMP JUMPDEST PUSH1 0x4 PUSH0 CALLER PUSH20 0xFFFFFFFFFFFFFFFFFFFFFFFFFFFFFFFFFFFFFFFF AND PUSH20 0xFFFFFFFFFFFFFFFFFFFFFFFFFFFFFFFFFFFFFFFF AND DUP2 MSTORE PUSH1 0x20 ADD SWAP1 DUP2 MSTORE PUSH1 0x20 ADD PUSH0 KECCAK256 PUSH0 SWAP1 SLOAD SWAP1 PUSH2 0x100 EXP SWAP1 DIV PUSH1 0xFF AND PUSH2 0x1218 JUMPI PUSH1 0x40 MLOAD PUSH32 0x8C379A000000000000000000000000000000000000000000000000000000000 DUP2 MSTORE PUSH1 0x4 ADD PUSH2 0x120F SWAP1 PUSH2 0x2059 JUMP JUMPDEST PUSH1 0x40 MLOAD DUP1 SWAP2 SUB SWAP1 REVERT JUMPDEST PUSH0 PUSH0 PUSH0 DUP4 DUP2 MSTORE PUSH1 0x20 ADD SWAP1 DUP2 MSTORE PUSH1 0x20 ADD PUSH0 KECCAK256 SWAP1 POP CALLER PUSH20 0xFFFFFFFFFFFFFFFFFFFFFFFFFFFFFFFFFFFFFFFF AND DUP2 PUSH1 0x5 ADD PUSH0 SWAP1 SLOAD SWAP1 PUSH2 0x100 EXP SWAP1 DIV PUSH20 0xFFFFFFFFFFFFFFFFFFFFFFFFFFFFFFFFFFFFFFFF AND PUSH20 0xFFFFFFFFFFFFFFFFFFFFFFFFFFFFFFFFFFFFFFFF AND EQ PUSH2 0x12BC JUMPI PUSH1 0x40 MLOAD PUSH32 0x8C379A000000000000000000000000000000000000000000000000000000000 DUP2 MSTORE PUSH1 0x4 ADD PUSH2 0x12B3 SWAP1 PUSH2 0x1FF1 JUMP JUMPDEST PUSH1 0x40 MLOAD DUP1 SWAP2 SUB SWAP1 REVERT JUMPDEST PUSH1 0x2 DUP2 PUSH1 0x5 ADD PUSH1 0x14 PUSH2 0x100 EXP DUP2 SLOAD DUP2 PUSH1 0xFF MUL NOT AND SWAP1 DUP4 PUSH1 0x2 DUP2 GT ISZERO PUSH2 0x12E4 JUMPI PUSH2 0x12E3 PUSH2 0x1518 JUMP JUMPDEST JUMPDEST MUL OR SWAP1 SSTORE POP PUSH1 0x1 PUSH0 DUP4 DUP2 MSTORE PUSH1 0x20 ADD SWAP1 DUP2 MSTORE PUSH1 0x20 ADD PUSH0 KECCAK256 PUSH1 0x40 MLOAD DUP1 PUSH1 0x80 ADD PUSH1 0x40 MSTORE DUP1 CALLER PUSH20 0xFFFFFFFFFFFFFFFFFFFFFFFFFFFFFFFFFFFFFFFF AND DUP2 MSTORE PUSH1 0x20 ADD CALLER PUSH20 0xFFFFFFFFFFFFFFFFFFFFFFFFFFFFFFFFFFFFFFFF AND DUP2 MSTORE PUSH1 0x20 ADD TIMESTAMP DUP2 MSTORE PUSH1 0x20 ADD PUSH1 0x2 DUP1 DUP2 GT ISZERO PUSH2 0x1356 JUMPI PUSH2 0x1355 PUSH2 0x1518 JUMP JUMPDEST JUMPDEST DUP2 MSTORE POP SWAP1 DUP1 PUSH1 0x1 DUP2 SLOAD ADD DUP1 DUP3 SSTORE DUP1 SWAP2 POP POP PUSH1 0x1 SWAP1 SUB SWAP1 PUSH0 MSTORE PUSH1 0x20 PUSH0 KECCAK256 SWAP1 PUSH1 0x4 MUL ADD PUSH0 SWAP1 SWAP2 SWAP1 SWAP2 SWAP1 SWAP2 POP PUSH0 DUP3 ADD MLOAD DUP2 PUSH0 ADD PUSH0 PUSH2 0x100 EXP DUP2 SLOAD DUP2 PUSH20 0xFFFFFFFFFFFFFFFFFFFFFFFFFFFFFFFFFFFFFFFF MUL NOT AND SWAP1 DUP4 PUSH20 0xFFFFFFFFFFFFFFFFFFFFFFFFFFFFFFFFFFFFFFFF AND MUL OR SWAP1 SSTORE POP PUSH1 0x20 DUP3 ADD MLOAD DUP2 PUSH1 0x1 ADD PUSH0 PUSH2 0x100 EXP DUP2 SLOAD DUP2 PUSH20 0xFFFFFFFFFFFFFFFFFFFFFFFFFFFFFFFFFFFFFFFF MUL NOT AND SWAP1 DUP4 PUSH20 0xFFFFFFFFFFFFFFFFFFFFFFFFFFFFFFFFFFFFFFFF AND MUL OR SWAP1 SSTORE POP PUSH1 0x40 DUP3 ADD MLOAD DUP2 PUSH1 0x2 ADD SSTORE PUSH1 0x60 DUP3 ADD MLOAD DUP2 PUSH1 0x3 ADD PUSH0 PUSH2 0x100 EXP DUP2 SLOAD DUP2 PUSH1 0xFF MUL NOT AND SWAP1 DUP4 PUSH1 0x2 DUP2 GT ISZERO PUSH2 0x143D JUMPI PUSH2 0x143C PUSH2 0x1518 JUMP JUMPDEST JUMPDEST MUL OR SWAP1 SSTORE POP POP POP POP POP JUMP JUMPDEST PUSH0 PUSH1 0x40 MLOAD SWAP1 POP SWAP1 JUMP JUMPDEST PUSH0 PUSH0 REVERT JUMPDEST PUSH0 PUSH0 REVERT JUMPDEST PUSH0 DUP2 SWAP1 POP SWAP2 SWAP1 POP JUMP JUMPDEST PUSH2 0x146B DUP2 PUSH2 0x1459 JUMP JUMPDEST DUP2 EQ PUSH2 0x1475 JUMPI PUSH0 PUSH0 REVERT JUMPDEST POP JUMP JUMPDEST PUSH0 DUP2 CALLDATALOAD SWAP1 POP PUSH2 0x1486 DUP2 PUSH2 0x1462 JUMP JUMPDEST SWAP3 SWAP2 POP POP JUMP JUMPDEST PUSH0 PUSH0 PUSH1 0x40 DUP4 DUP6 SUB SLT ISZERO PUSH2 0x14A2 JUMPI PUSH2 0x14A1 PUSH2 0x1451 JUMP JUMPDEST JUMPDEST PUSH0 PUSH2 0x14AF DUP6 DUP3 DUP7 ADD PUSH2 0x1478 JUMP JUMPDEST SWAP3 POP POP PUSH1 0x20 PUSH2 0x14C0 DUP6 DUP3 DUP7 ADD PUSH2 0x1478 JUMP JUMPDEST SWAP2 POP POP SWAP3 POP SWAP3 SWAP1 POP JUMP JUMPDEST PUSH0 PUSH20 0xFFFFFFFFFFFFFFFFFFFFFFFFFFFFFFFFFFFFFFFF DUP3 AND SWAP1 POP SWAP2 SWAP1 POP JUMP JUMPDEST PUSH0 PUSH2 0x14F3 DUP3 PUSH2 0x14CA JUMP JUMPDEST SWAP1 POP SWAP2 SWAP1 POP JUMP JUMPDEST PUSH2 0x1503 DUP2 PUSH2 0x14E9 JUMP JUMPDEST DUP3 MSTORE POP POP JUMP JUMPDEST PUSH2 0x1512 DUP2 PUSH2 0x1459 JUMP JUMPDEST DUP3 MSTORE POP POP JUMP JUMPDEST PUSH32 0x4E487B7100000000000000000000000000000000000000000000000000000000 PUSH0 MSTORE PUSH1 0x21 PUSH1 0x4 MSTORE PUSH1 0x24 PUSH0 REVERT JUMPDEST PUSH1 0x3 DUP2 LT PUSH2 0x1556 JUMPI PUSH2 0x1555 PUSH2 0x1518 JUMP JUMPDEST JUMPDEST POP JUMP JUMPDEST PUSH0 DUP2 SWAP1 POP PUSH2 0x1566 DUP3 PUSH2 0x1545 JUMP JUMPDEST SWAP2 SWAP1 POP JUMP JUMPDEST PUSH0 PUSH2 0x1575 DUP3 PUSH2 0x1559 JUMP JUMPDEST SWAP1 POP SWAP2 SWAP1 POP JUMP JUMPDEST PUSH2 0x1585 DUP2 PUSH2 0x156B JUMP JUMPDEST DUP3 MSTORE POP POP JUMP JUMPDEST PUSH0 PUSH1 0x80 DUP3 ADD SWAP1 POP PUSH2 0x159E PUSH0 DUP4 ADD DUP8 PUSH2 0x14FA JUMP JUMPDEST PUSH2 0x15AB PUSH1 0x20 DUP4 ADD DUP7 PUSH2 0x14FA JUMP JUMPDEST PUSH2 0x15B8 PUSH1 0x40 DUP4 ADD DUP6 PUSH2 0x1509 JUMP JUMPDEST PUSH2 0x15C5 PUSH1 0x60 DUP4 ADD DUP5 PUSH2 0x157C JUMP JUMPDEST SWAP6 SWAP5 POP POP POP POP POP JUMP JUMPDEST PUSH2 0x15D7 DUP2 PUSH2 0x14E9 JUMP JUMPDEST DUP2 EQ PUSH2 0x15E1 JUMPI PUSH0 PUSH0 REVERT JUMPDEST POP JUMP JUMPDEST PUSH0 DUP2 CALLDATALOAD SWAP1 POP PUSH2 0x15F2 DUP2 PUSH2 0x15CE JUMP JUMPDEST SWAP3 SWAP2 POP POP JUMP JUMPDEST PUSH0 PUSH1 0x20 DUP3 DUP5 SUB SLT ISZERO PUSH2 0x160D JUMPI PUSH2 0x160C PUSH2 0x1451 JUMP JUMPDEST JUMPDEST PUSH0 PUSH2 0x161A DUP5 DUP3 DUP6 ADD PUSH2 0x15E4 JUMP JUMPDEST SWAP2 POP POP SWAP3 SWAP2 POP POP JUMP JUMPDEST PUSH0 DUP2 ISZERO ISZERO SWAP1 POP SWAP2 SWAP1 POP JUMP JUMPDEST PUSH2 0x1637 DUP2 PUSH2 0x1623 JUMP JUMPDEST DUP3 MSTORE POP POP JUMP JUMPDEST PUSH0 PUSH1 0x20 DUP3 ADD SWAP1 POP PUSH2 0x1650 PUSH0 DUP4 ADD DUP5 PUSH2 0x162E JUMP JUMPDEST SWAP3 SWAP2 POP POP JUMP JUMPDEST PUSH0 PUSH1 0x20 DUP3 DUP5 SUB SLT ISZERO PUSH2 0x166B JUMPI PUSH2 0x166A PUSH2 0x1451 JUMP JUMPDEST JUMPDEST PUSH0 PUSH2 0x1678 DUP5 DUP3 DUP6 ADD PUSH2 0x1478 JUMP JUMPDEST SWAP2 POP POP SWAP3 SWAP2 POP POP JUMP JUMPDEST PUSH0 DUP2 MLOAD SWAP1 POP SWAP2 SWAP1 POP JUMP JUMPDEST PUSH0 DUP3 DUP3 MSTORE PUSH1 0x20 DUP3 ADD SWAP1 POP SWAP3 SWAP2 POP POP JUMP JUMPDEST DUP3 DUP2 DUP4 MCOPY PUSH0 DUP4 DUP4 ADD MSTORE POP POP POP JUMP JUMPDEST PUSH0 PUSH1 0x1F NOT PUSH1 0x1F DUP4 ADD AND SWAP1 POP SWAP2 SWAP1 POP JUMP JUMPDEST PUSH0 PUSH2 0x16C3 DUP3 PUSH2 0x1681 JUMP JUMPDEST PUSH2 0x16CD DUP2 DUP6 PUSH2 0x168B JUMP JUMPDEST SWAP4 POP PUSH2 0x16DD DUP2 DUP6 PUSH1 0x20 DUP7 ADD PUSH2 0x169B JUMP JUMPDEST PUSH2 0x16E6 DUP2 PUSH2 0x16A9 JUMP JUMPDEST DUP5 ADD SWAP2 POP POP SWAP3 SWAP2 POP POP JUMP JUMPDEST PUSH0 PUSH1 0xE0 DUP3 ADD SWAP1 POP PUSH2 0x1704 PUSH0 DUP4 ADD DUP11 PUSH2 0x1509 JUMP JUMPDEST DUP2 DUP2 SUB PUSH1 0x20 DUP4 ADD MSTORE PUSH2 0x1716 DUP2 DUP10 PUSH2 0x16B9 JUMP JUMPDEST SWAP1 POP PUSH2 0x1725 PUSH1 0x40 DUP4 ADD DUP9 PUSH2 0x1509 JUMP JUMPDEST DUP2 DUP2 SUB PUSH1 0x60 DUP4 ADD MSTORE PUSH2 0x1737 DUP2 DUP8 PUSH2 0x16B9 JUMP JUMPDEST SWAP1 POP PUSH2 0x1746 PUSH1 0x80 DUP4 ADD DUP7 PUSH2 0x1509 JUMP JUMPDEST PUSH2 0x1753 PUSH1 0xA0 DUP4 ADD DUP6 PUSH2 0x14FA JUMP JUMPDEST PUSH2 0x1760 PUSH1 0xC0 DUP4 ADD DUP5 PUSH2 0x157C JUMP JUMPDEST SWAP9 SWAP8 POP POP POP POP POP POP POP POP JUMP JUMPDEST PUSH0 PUSH1 0x20 DUP3 ADD SWAP1 POP PUSH2 0x177F PUSH0 DUP4 ADD DUP5 PUSH2 0x14FA JUMP JUMPDEST SWAP3 SWAP2 POP POP JUMP JUMPDEST PUSH0 PUSH0 REVERT JUMPDEST PUSH0 PUSH0 REVERT JUMPDEST PUSH32 0x4E487B7100000000000000000000000000000000000000000000000000000000 PUSH0 MSTORE PUSH1 0x41 PUSH1 0x4 MSTORE PUSH1 0x24 PUSH0 REVERT JUMPDEST PUSH2 0x17C3 DUP3 PUSH2 0x16A9 JUMP JUMPDEST DUP2 ADD DUP2 DUP2 LT PUSH8 0xFFFFFFFFFFFFFFFF DUP3 GT OR ISZERO PUSH2 0x17E2 JUMPI PUSH2 0x17E1 PUSH2 0x178D JUMP JUMPDEST JUMPDEST DUP1 PUSH1 0x40 MSTORE POP POP POP JUMP JUMPDEST PUSH0 PUSH2 0x17F4 PUSH2 0x1448 JUMP JUMPDEST SWAP1 POP PUSH2 0x1800 DUP3 DUP3 PUSH2 0x17BA JUMP JUMPDEST SWAP2 SWAP1 POP JUMP JUMPDEST PUSH0 PUSH8 0xFFFFFFFFFFFFFFFF DUP3 GT ISZERO PUSH2 0x181F JUMPI PUSH2 0x181E PUSH2 0x178D JUMP JUMPDEST JUMPDEST PUSH2 0x1828 DUP3 PUSH2 0x16A9 JUMP JUMPDEST SWAP1 POP PUSH1 0x20 DUP2 ADD SWAP1 POP SWAP2 SWAP1 POP JUMP JUMPDEST DUP3 DUP2 DUP4 CALLDATACOPY PUSH0 DUP4 DUP4 ADD MSTORE POP POP POP JUMP JUMPDEST PUSH0 PUSH2 0x1855 PUSH2 0x1850 DUP5 PUSH2 0x1805 JUMP JUMPDEST PUSH2 0x17EB JUMP JUMPDEST SWAP1 POP DUP3 DUP2 MSTORE PUSH1 0x20 DUP2 ADD DUP5 DUP5 DUP5 ADD GT ISZERO PUSH2 0x1871 JUMPI PUSH2 0x1870 PUSH2 0x1789 JUMP JUMPDEST JUMPDEST PUSH2 0x187C DUP5 DUP3 DUP6 PUSH2 0x1835 JUMP JUMPDEST POP SWAP4 SWAP3 POP POP POP JUMP JUMPDEST PUSH0 DUP3 PUSH1 0x1F DUP4 ADD SLT PUSH2 0x1898 JUMPI PUSH2 0x1897 PUSH2 0x1785 JUMP JUMPDEST JUMPDEST DUP2 CALLDATALOAD PUSH2 0x18A8 DUP5 DUP3 PUSH1 0x20 DUP7 ADD PUSH2 0x1843 JUMP JUMPDEST SWAP2 POP POP SWAP3 SWAP2 POP POP JUMP JUMPDEST PUSH0 PUSH0 PUSH0 PUSH0 PUSH1 0x80 DUP6 DUP8 SUB SLT ISZERO PUSH2 0x18C9 JUMPI PUSH2 0x18C8 PUSH2 0x1451 JUMP JUMPDEST JUMPDEST PUSH0 PUSH2 0x18D6 DUP8 DUP3 DUP9 ADD PUSH2 0x1478 JUMP JUMPDEST SWAP5 POP POP PUSH1 0x20 DUP6 ADD CALLDATALOAD PUSH8 0xFFFFFFFFFFFFFFFF DUP2 GT ISZERO PUSH2 0x18F7 JUMPI PUSH2 0x18F6 PUSH2 0x1455 JUMP JUMPDEST JUMPDEST PUSH2 0x1903 DUP8 DUP3 DUP9 ADD PUSH2 0x1884 JUMP JUMPDEST SWAP4 POP POP PUSH1 0x40 PUSH2 0x1914 DUP8 DUP3 DUP9 ADD PUSH2 0x1478 JUMP JUMPDEST SWAP3 POP POP PUSH1 0x60 DUP6 ADD CALLDATALOAD PUSH8 0xFFFFFFFFFFFFFFFF DUP2 GT ISZERO PUSH2 0x1935 JUMPI PUSH2 0x1934 PUSH2 0x1455 JUMP JUMPDEST JUMPDEST PUSH2 0x1941 DUP8 DUP3 DUP9 ADD PUSH2 0x1884 JUMP JUMPDEST SWAP2 POP POP SWAP3 SWAP6 SWAP2 SWAP5 POP SWAP3 POP JUMP JUMPDEST PUSH0 DUP2 MLOAD SWAP1 POP SWAP2 SWAP1 POP JUMP JUMPDEST PUSH0 DUP3 DUP3 MSTORE PUSH1 0x20 DUP3 ADD SWAP1 POP SWAP3 SWAP2 POP POP JUMP JUMPDEST PUSH0 DUP2 SWAP1 POP PUSH1 0x20 DUP3 ADD SWAP1 POP SWAP2 SWAP1 POP JUMP JUMPDEST PUSH2 0x197F DUP2 PUSH2 0x14E9 JUMP JUMPDEST DUP3 MSTORE POP POP JUMP JUMPDEST PUSH2 0x198E DUP2 PUSH2 0x1459 JUMP JUMPDEST DUP3 MSTORE POP POP JUMP JUMPDEST PUSH2 0x199D DUP2 PUSH2 0x156B JUMP JUMPDEST DUP3 MSTORE POP POP JUMP JUMPDEST PUSH1 0x80 DUP3 ADD PUSH0 DUP3 ADD MLOAD PUSH2 0x19B7 PUSH0 DUP6 ADD DUP3 PUSH2 0x1976 JUMP JUMPDEST POP PUSH1 0x20 DUP3 ADD MLOAD PUSH2 0x19CA PUSH1 0x20 DUP6 ADD DUP3 PUSH2 0x1976 JUMP JUMPDEST POP PUSH1 0x40 DUP3 ADD MLOAD PUSH2 0x19DD PUSH1 0x40 DUP6 ADD DUP3 PUSH2 0x1985 JUMP JUMPDEST POP PUSH1 0x60 DUP3 ADD MLOAD PUSH2 0x19F0 PUSH1 0x60 DUP6 ADD DUP3 PUSH2 0x1994 JUMP JUMPDEST POP POP POP POP JUMP JUMPDEST PUSH0 PUSH2 0x1A01 DUP4 DUP4 PUSH2 0x19A3 JUMP JUMPDEST PUSH1 0x80 DUP4 ADD SWAP1 POP SWAP3 SWAP2 POP POP JUMP JUMPDEST PUSH0 PUSH1 0x20 DUP3 ADD SWAP1 POP SWAP2 SWAP1 POP JUMP JUMPDEST PUSH0 PUSH2 0x1A23 DUP3 PUSH2 0x194D JUMP JUMPDEST PUSH2 0x1A2D DUP2 DUP6 PUSH2 0x1957 JUMP JUMPDEST SWAP4 POP PUSH2 0x1A38 DUP4 PUSH2 0x1967 JUMP JUMPDEST DUP1 PUSH0 JUMPDEST DUP4 DUP2 LT ISZERO PUSH2 0x1A68 JUMPI DUP2 MLOAD PUSH2 0x1A4F DUP9 DUP3 PUSH2 0x19F6 JUMP JUMPDEST SWAP8 POP PUSH2 0x1A5A DUP4 PUSH2 0x1A0D JUMP JUMPDEST SWAP3 POP POP PUSH1 0x1 DUP2 ADD SWAP1 POP PUSH2 0x1A3B JUMP JUMPDEST POP DUP6 SWAP4 POP POP POP POP SWAP3 SWAP2 POP POP JUMP JUMPDEST PUSH0 PUSH1 0x20 DUP3 ADD SWAP1 POP DUP2 DUP2 SUB PUSH0 DUP4 ADD MSTORE PUSH2 0x1A8D DUP2 DUP5 PUSH2 0x1A19 JUMP JUMPDEST SWAP1 POP SWAP3 SWAP2 POP POP JUMP JUMPDEST PUSH0 PUSH0 PUSH1 0x40 DUP4 DUP6 SUB SLT ISZERO PUSH2 0x1AAB JUMPI PUSH2 0x1AAA PUSH2 0x1451 JUMP JUMPDEST JUMPDEST PUSH0 PUSH2 0x1AB8 DUP6 DUP3 DUP7 ADD PUSH2 0x1478 JUMP JUMPDEST SWAP3 POP POP PUSH1 0x20 PUSH2 0x1AC9 DUP6 DUP3 DUP7 ADD PUSH2 0x15E4 JUMP JUMPDEST SWAP2 POP POP SWAP3 POP SWAP3 SWAP1 POP JUMP JUMPDEST PUSH32 0x4E6F7420636F6E7472616374206F776E65720000000000000000000000000000 PUSH0 DUP3 ADD MSTORE POP JUMP JUMPDEST PUSH0 PUSH2 0x1B07 PUSH1 0x12 DUP4 PUSH2 0x168B JUMP JUMPDEST SWAP2 POP PUSH2 0x1B12 DUP3 PUSH2 0x1AD3 JUMP JUMPDEST PUSH1 0x20 DUP3 ADD SWAP1 POP SWAP2 SWAP1 POP JUMP JUMPDEST PUSH0 PUSH1 0x20 DUP3 ADD SWAP1 POP DUP2 DUP2 SUB PUSH0 DUP4 ADD MSTORE PUSH2 0x1B34 DUP2 PUSH2 0x1AFB JUMP JUMPDEST SWAP1 POP SWAP2 SWAP1 POP JUMP JUMPDEST PUSH32 0x4E487B7100000000000000000000000000000000000000000000000000000000 PUSH0 MSTORE PUSH1 0x22 PUSH1 0x4 MSTORE PUSH1 0x24 PUSH0 REVERT JUMPDEST PUSH0 PUSH1 0x2 DUP3 DIV SWAP1 POP PUSH1 0x1 DUP3 AND DUP1 PUSH2 0x1B7F JUMPI PUSH1 0x7F DUP3 AND SWAP2 POP JUMPDEST PUSH1 0x20 DUP3 LT DUP2 SUB PUSH2 0x1B92 JUMPI PUSH2 0x1B91 PUSH2 0x1B3B JUMP JUMPDEST JUMPDEST POP SWAP2 SWAP1 POP JUMP JUMPDEST PUSH32 0x4E6F7420617574686F72697A6564206661726D65720000000000000000000000 PUSH0 DUP3 ADD MSTORE POP JUMP JUMPDEST PUSH0 PUSH2 0x1BCC PUSH1 0x15 DUP4 PUSH2 0x168B JUMP JUMPDEST SWAP2 POP PUSH2 0x1BD7 DUP3 PUSH2 0x1B98 JUMP JUMPDEST PUSH1 0x20 DUP3 ADD SWAP1 POP SWAP2 SWAP1 POP JUMP JUMPDEST PUSH0 PUSH1 0x20 DUP3 ADD SWAP1 POP DUP2 DUP2 SUB PUSH0 DUP4 ADD MSTORE PUSH2 0x1BF9 DUP2 PUSH2 0x1BC0 JUMP JUMPDEST SWAP1 POP SWAP2 SWAP1 POP JUMP JUMPDEST PUSH32 0x50726F6475637420616C72656164792065786973747300000000000000000000 PUSH0 DUP3 ADD MSTORE POP JUMP JUMPDEST PUSH0 PUSH2 0x1C34 PUSH1 0x16 DUP4 PUSH2 0x168B JUMP JUMPDEST SWAP2 POP PUSH2 0x1C3F DUP3 PUSH2 0x1C00 JUMP JUMPDEST PUSH1 0x20 DUP3 ADD SWAP1 POP SWAP2 SWAP1 POP JUMP JUMPDEST PUSH0 PUSH1 0x20 DUP3 ADD SWAP1 POP DUP2 DUP2 SUB PUSH0 DUP4 ADD MSTORE PUSH2 0x1C61 DUP2 PUSH2 0x1C28 JUMP JUMPDEST SWAP1 POP SWAP2 SWAP1 POP JUMP JUMPDEST PUSH0 DUP2 SWAP1 POP DUP2 PUSH0 MSTORE PUSH1 0x20 PUSH0 KECCAK256 SWAP1 POP SWAP2 SWAP1 POP JUMP JUMPDEST PUSH0 PUSH1 0x20 PUSH1 0x1F DUP4 ADD DIV SWAP1 POP SWAP2 SWAP1 POP JUMP JUMPDEST PUSH0 DUP3 DUP3 SHL SWAP1 POP SWAP3 SWAP2 POP POP JUMP JUMPDEST PUSH0 PUSH1 0x8 DUP4 MUL PUSH2 0x1CC4 PUSH32 0xFFFFFFFFFFFFFFFFFFFFFFFFFFFFFFFFFFFFFFFFFFFFFFFFFFFFFFFFFFFFFFFF DUP3 PUSH2 0x1C89 JUMP JUMPDEST PUSH2 0x1CCE DUP7 DUP4 PUSH2 0x1C89 JUMP JUMPDEST SWAP6 POP DUP1 NOT DUP5 AND SWAP4 POP DUP1 DUP7 AND DUP5 OR SWAP3 POP POP POP SWAP4 SWAP3 POP POP POP JUMP JUMPDEST PUSH0 DUP2 SWAP1 POP SWAP2 SWAP1 POP JUMP JUMPDEST PUSH0 PUSH2 0x1D09 PUSH2 0x1D04 PUSH2 0x1CFF DUP5 PUSH2 0x1459 JUMP JUMPDEST PUSH2 0x1CE6 JUMP JUMPDEST PUSH2 0x1459 JUMP JUMPDEST SWAP1 POP SWAP2 SWAP1 POP JUMP JUMPDEST PUSH0 DUP2 SWAP1 POP SWAP2 SWAP1 POP JUMP JUMPDEST PUSH2 0x1D22 DUP4 PUSH2 0x1CEF JUMP JUMPDEST PUSH2 0x1D36 PUSH2 0x1D2E DUP3 PUSH2 0x1D10 JUMP JUMPDEST DUP5 DUP5 SLOAD PUSH2 0x1C95 JUMP JUMPDEST DUP3 SSTORE POP POP POP POP JUMP JUMPDEST PUSH0 PUSH0 SWAP1 POP SWAP1 JUMP JUMPDEST PUSH2 0x1D4D PUSH2 0x1D3E JUMP JUMPDEST PUSH2 0x1D58 DUP2 DUP5 DUP5 PUSH2 0x1D19 JUMP JUMPDEST POP POP POP JUMP JUMPDEST JUMPDEST DUP2 DUP2 LT ISZERO PUSH2 0x1D7B JUMPI PUSH2 0x1D70 PUSH0 DUP3 PUSH2 0x1D45 JUMP JUMPDEST PUSH1 0x1 DUP2 ADD SWAP1 POP PUSH2 0x1D5E JUMP JUMPDEST POP POP JUMP JUMPDEST PUSH1 0x1F DUP3 GT ISZERO PUSH2 0x1DC0 JUMPI PUSH2 0x1D91 DUP2 PUSH2 0x1C68 JUMP JUMPDEST PUSH2 0x1D9A DUP5 PUSH2 0x1C7A JUMP JUMPDEST DUP2 ADD PUSH1 0x20 DUP6 LT ISZERO PUSH2 0x1DA9 JUMPI DUP2 SWAP1 POP JUMPDEST PUSH2 0x1DBD PUSH2 0x1DB5 DUP6 PUSH2 0x1C7A JUMP JUMPDEST DUP4 ADD DUP3 PUSH2 0x1D5D JUMP JUMPDEST POP POP JUMPDEST POP POP POP JUMP JUMPDEST PUSH0 DUP3 DUP3 SHR SWAP1 POP SWAP3 SWAP2 POP POP JUMP JUMPDEST PUSH0 PUSH2 0x1DE0 PUSH0 NOT DUP5 PUSH1 0x8 MUL PUSH2 0x1DC5 JUMP JUMPDEST NOT DUP1 DUP4 AND SWAP2 POP POP SWAP3 SWAP2 POP POP JUMP JUMPDEST PUSH0 PUSH2 0x1DF8 DUP4 DUP4 PUSH2 0x1DD1 JUMP JUMPDEST SWAP2 POP DUP3 PUSH1 0x2 MUL DUP3 OR SWAP1 POP SWAP3 SWAP2 POP POP JUMP JUMPDEST PUSH2 0x1E11 DUP3 PUSH2 0x1681 JUMP JUMPDEST PUSH8 0xFFFFFFFFFFFFFFFF DUP2 GT ISZERO PUSH2 0x1E2A JUMPI PUSH2 0x1E29 PUSH2 0x178D JUMP JUMPDEST JUMPDEST PUSH2 0x1E34 DUP3 SLOAD PUSH2 0x1B68 JUMP JUMPDEST PUSH2 0x1E3F DUP3 DUP3 DUP6 PUSH2 0x1D7F JUMP JUMPDEST PUSH0 PUSH1 0x20 SWAP1 POP PUSH1 0x1F DUP4 GT PUSH1 0x1 DUP2 EQ PUSH2 0x1E70 JUMPI PUSH0 DUP5 ISZERO PUSH2 0x1E5E JUMPI DUP3 DUP8 ADD MLOAD SWAP1 POP JUMPDEST PUSH2 0x1E68 DUP6 DUP3 PUSH2 0x1DED JUMP JUMPDEST DUP7 SSTORE POP PUSH2 0x1ECF JUMP JUMPDEST PUSH1 0x1F NOT DUP5 AND PUSH2 0x1E7E DUP7 PUSH2 0x1C68 JUMP JUMPDEST PUSH0 JUMPDEST DUP3 DUP2 LT ISZERO PUSH2 0x1EA5 JUMPI DUP5 DUP10 ADD MLOAD DUP3 SSTORE PUSH1 0x1 DUP3 ADD SWAP2 POP PUSH1 0x20 DUP6 ADD SWAP5 POP PUSH1 0x20 DUP2 ADD SWAP1 POP PUSH2 0x1E80 JUMP JUMPDEST DUP7 DUP4 LT ISZERO PUSH2 0x1EC2 JUMPI DUP5 DUP10 ADD MLOAD PUSH2 0x1EBE PUSH1 0x1F DUP10 AND DUP3 PUSH2 0x1DD1 JUMP JUMPDEST DUP4 SSTORE POP JUMPDEST PUSH1 0x1 PUSH1 0x2 DUP9 MUL ADD DUP9 SSTORE POP POP POP JUMPDEST POP POP POP POP POP POP JUMP JUMPDEST PUSH32 0x50726F64756374206E6F7420666F756E64000000000000000000000000000000 PUSH0 DUP3 ADD MSTORE POP JUMP JUMPDEST PUSH0 PUSH2 0x1F0B PUSH1 0x11 DUP4 PUSH2 0x168B JUMP JUMPDEST SWAP2 POP PUSH2 0x1F16 DUP3 PUSH2 0x1ED7 JUMP JUMPDEST PUSH1 0x20 DUP3 ADD SWAP1 POP SWAP2 SWAP1 POP JUMP JUMPDEST PUSH0 PUSH1 0x20 DUP3 ADD SWAP1 POP DUP2 DUP2 SUB PUSH0 DUP4 ADD MSTORE PUSH2 0x1F38 DUP2 PUSH2 0x1EFF JUMP JUMPDEST SWAP1 POP SWAP2 SWAP1 POP JUMP JUMPDEST PUSH32 0x496E76616C6964206469737472696275746F7200000000000000000000000000 PUSH0 DUP3 ADD MSTORE POP JUMP JUMPDEST PUSH0 PUSH2 0x1F73 PUSH1 0x13 DUP4 PUSH2 0x168B JUMP JUMPDEST SWAP2 POP PUSH2 0x1F7E DUP3 PUSH2 0x1F3F JUMP JUMPDEST PUSH1 0x20 DUP3 ADD SWAP1 POP SWAP2 SWAP1 POP JUMP JUMPDEST PUSH0 PUSH1 0x20 DUP3 ADD SWAP1 POP DUP2 DUP2 SUB PUSH0 DUP4 ADD MSTORE PUSH2 0x1FA0 DUP2 PUSH2 0x1F67 JUMP JUMPDEST SWAP1 POP SWAP2 SWAP1 POP JUMP JUMPDEST PUSH32 0x4E6F74206F776E65720000000000000000000000000000000000000000000000 PUSH0 DUP3 ADD MSTORE POP JUMP JUMPDEST PUSH0 PUSH2 0x1FDB PUSH1 0x9 DUP4 PUSH2 0x168B JUMP JUMPDEST SWAP2 POP PUSH2 0x1FE6 DUP3 PUSH2 0x1FA7 JUMP JUMPDEST PUSH1 0x20 DUP3 ADD SWAP1 POP SWAP2 SWAP1 POP JUMP JUMPDEST PUSH0 PUSH1 0x20 DUP3 ADD SWAP1 POP DUP2 DUP2 SUB PUSH0 DUP4 ADD MSTORE PUSH2 0x2008 DUP2 PUSH2 0x1FCF JUMP JUMPDEST SWAP1 POP SWAP2 SWAP1 POP JUMP JUMPDEST PUSH32 0x4E6F7420617574686F72697A6564206469737472696275746F72000000000000 PUSH0 DUP3 ADD MSTORE POP JUMP JUMPDEST PUSH0 PUSH2 0x2043 PUSH1 0x1A DUP4 PUSH2 0x168B JUMP JUMPDEST SWAP2 POP PUSH2 0x204E DUP3 PUSH2 0x200F JUMP JUMPDEST PUSH1 0x20 DUP3 ADD SWAP1 POP SWAP2 SWAP1 POP JUMP JUMPDEST PUSH0 PUSH1 0x20 DUP3 ADD SWAP1 POP DUP2 DUP2 SUB PUSH0 DUP4 ADD MSTORE PUSH2 0x2070 DUP2 PUSH2 0x2037 JUMP JUMPDEST SWAP1 POP SWAP2 SWAP1 POP JUMP INVALID LOG2 PUSH5 0x6970667358 0x22 SLT KECCAK256 DUP15 0xC7 SWAP14 XOR 0xD3 0xE2 0xB2 PUSH25 0x98D1C22961A0DFBE864027657798CA10D4084B90BDF534F364 PUSH20 0x6F6C634300081F00330000000000000000000000 "
				},
				"gasEstimates": {
					"creation": {
						"codeDepositCost": "1673000",
						"executionCost": "26020",
						"totalCost": "1699020"
					},
					"external": {
						"addDistributor(address)": "27017",
						"addFarmer(address)": "27061",
						"confirmDelivery(uint256)": "148875",
						"distributors(address)": "2899",
						"farmers(address)": "2856",
						"getHistory(uint256)": "infinite",
						"getProduct(uint256)": "infinite",
						"owner()": "2619",
						"productHistory(uint256,uint256)": "infinite",
						"products(uint256)": "infinite",
						"registerProduct(uint256,string,uint256,string)": "infinite",
						"transferToDistributor(uint256,address)": "177786"
					}
				},
				"methodIdentifiers": {
					"addDistributor(address)": "7250e224",
					"addFarmer(address)": "80c3f96d",
					"confirmDelivery(uint256)": "fd84cb97",
					"distributors(address)": "cc642784",
					"farmers(address)": "401b2168",
					"getHistory(uint256)": "c8691b2a",
					"getProduct(uint256)": "b9db15b4",
					"owner()": "8da5cb5b",
					"productHistory(uint256,uint256)": "3a7d2376",
					"products(uint256)": "7acc0b20",
					"registerProduct(uint256,string,uint256,string)": "a9ec9d07",
					"transferToDistributor(uint256,address)": "e229f2cb"
				}
			},
			"storageLayout": {
				"storage": [
					{
						"astId": 36,
						"contract": "SmartContract.sol:TilapiaSupplyChain",
						"label": "products",
						"offset": 0,
						"slot": "0",
						"type": "t_mapping(t_uint256,t_struct(Product)21_storage)"
					},
					{
						"astId": 42,
						"contract": "SmartContract.sol:TilapiaSupplyChain",
						"label": "productHistory",
						"offset": 0,
						"slot": "1",
						"type": "t_mapping(t_uint256,t_array(t_struct(History)31_storage)dyn_storage)"
					},
					{
						"astId": 44,
						"contract": "SmartContract.sol:TilapiaSupplyChain",
						"label": "owner",
						"offset": 0,
						"slot": "2",
						"type": "t_address"
					},
					{
						"astId": 48,
						"contract": "SmartContract.sol:TilapiaSupplyChain",
						"label": "farmers",
						"offset": 0,
						"slot": "3",
						"type": "t_mapping(t_address,t_bool)"
					},
					{
						"astId": 52,
						"contract": "SmartContract.sol:TilapiaSupplyChain",
						"label": "distributors",
						"offset": 0,
						"slot": "4",
						"type": "t_mapping(t_address,t_bool)"
					}
				],
				"types": {
					"t_address": {
						"encoding": "inplace",
						"label": "address",
						"numberOfBytes": "20"
					},
					"t_array(t_struct(History)31_storage)dyn_storage": {
						"base": "t_struct(History)31_storage",
						"encoding": "dynamic_array",
						"label": "struct TilapiaSupplyChain.History[]",
						"numberOfBytes": "32"
					},
					"t_bool": {
						"encoding": "inplace",
						"label": "bool",
						"numberOfBytes": "1"
					},
					"t_enum(Status)5": {
						"encoding": "inplace",
						"label": "enum TilapiaSupplyChain.Status",
						"numberOfBytes": "1"
					},
					"t_mapping(t_address,t_bool)": {
						"encoding": "mapping",
						"key": "t_address",
						"label": "mapping(address => bool)",
						"numberOfBytes": "32",
						"value": "t_bool"
					},
					"t_mapping(t_uint256,t_array(t_struct(History)31_storage)dyn_storage)": {
						"encoding": "mapping",
						"key": "t_uint256",
						"label": "mapping(uint256 => struct TilapiaSupplyChain.History[])",
						"numberOfBytes": "32",
						"value": "t_array(t_struct(History)31_storage)dyn_storage"
					},
					"t_mapping(t_uint256,t_struct(Product)21_storage)": {
						"encoding": "mapping",
						"key": "t_uint256",
						"label": "mapping(uint256 => struct TilapiaSupplyChain.Product)",
						"numberOfBytes": "32",
						"value": "t_struct(Product)21_storage"
					},
					"t_string_storage": {
						"encoding": "bytes",
						"label": "string",
						"numberOfBytes": "32"
					},
					"t_struct(History)31_storage": {
						"encoding": "inplace",
						"label": "struct TilapiaSupplyChain.History",
						"members": [
							{
								"astId": 23,
								"contract": "SmartContract.sol:TilapiaSupplyChain",
								"label": "from",
								"offset": 0,
								"slot": "0",
								"type": "t_address"
							},
							{
								"astId": 25,
								"contract": "SmartContract.sol:TilapiaSupplyChain",
								"label": "to",
								"offset": 0,
								"slot": "1",
								"type": "t_address"
							},
							{
								"astId": 27,
								"contract": "SmartContract.sol:TilapiaSupplyChain",
								"label": "timestamp",
								"offset": 0,
								"slot": "2",
								"type": "t_uint256"
							},
							{
								"astId": 30,
								"contract": "SmartContract.sol:TilapiaSupplyChain",
								"label": "status",
								"offset": 0,
								"slot": "3",
								"type": "t_enum(Status)5"
							}
						],
						"numberOfBytes": "128"
					},
					"t_struct(Product)21_storage": {
						"encoding": "inplace",
						"label": "struct TilapiaSupplyChain.Product",
						"members": [
							{
								"astId": 7,
								"contract": "SmartContract.sol:TilapiaSupplyChain",
								"label": "productId",
								"offset": 0,
								"slot": "0",
								"type": "t_uint256"
							},
							{
								"astId": 9,
								"contract": "SmartContract.sol:TilapiaSupplyChain",
								"label": "name",
								"offset": 0,
								"slot": "1",
								"type": "t_string_storage"
							},
							{
								"astId": 11,
								"contract": "SmartContract.sol:TilapiaSupplyChain",
								"label": "quantity",
								"offset": 0,
								"slot": "2",
								"type": "t_uint256"
							},
							{
								"astId": 13,
								"contract": "SmartContract.sol:TilapiaSupplyChain",
								"label": "origin",
								"offset": 0,
								"slot": "3",
								"type": "t_string_storage"
							},
							{
								"astId": 15,
								"contract": "SmartContract.sol:TilapiaSupplyChain",
								"label": "dateCreated",
								"offset": 0,
								"slot": "4",
								"type": "t_uint256"
							},
							{
								"astId": 17,
								"contract": "SmartContract.sol:TilapiaSupplyChain",
								"label": "currentOwner",
								"offset": 0,
								"slot": "5",
								"type": "t_address"
							},
							{
								"astId": 20,
								"contract": "SmartContract.sol:TilapiaSupplyChain",
								"label": "status",
								"offset": 20,
								"slot": "5",
								"type": "t_enum(Status)5"
							}
						],
						"numberOfBytes": "192"
					},
					"t_uint256": {
						"encoding": "inplace",
						"label": "uint256",
						"numberOfBytes": "32"
					}
				}
			},
			"userdoc": {
				"kind": "user",
				"methods": {},
				"version": 1
			}
		}
	}
}